:020000040000fa
:020000040800f2
:10000000f0ff07204925000c332b000c472c000c77
:100010006b24000c6b24000c6b24000c6b24000c74
:100020000000000000000000000000006b24000c35
:100030006b24000c000000006b24000c6b24000cef
:100040006b24000c6b24000c6b24000c6b24000c44
:100050006b24000c6b24000c6b24000c6b24000c34
:100060006b24000c6b24000c6b24000c6b24000c24
:100070006b24000c6b24000c6b24000c6b24000c14
:100080006b24000c6b24000c6b24000c6b24000c04
:100090006b24000c6b24000c6b24000c6b24000cf4
:1000a0006b24000c6b24000c6b24000c6b24000ce4
:1000b0006b24000c6b24000c6b24000c6b24000cd4
:1000c0006b24000c6d2e000c952e000cbd2e000c28
:1000d0006b24000c6b24000c6b24000c6b24000cb4
:1000e0006b24000c6b24000c6b24000c6b24000ca4
:1000f0006b24000c6b24000c6b24000c6b24000c94
:100100006b24000c6b24000c6b24000c6b24000c83
:100110006b24000c6b24000c6b24000c6b24000c73
:100120006b24000c6b24000c6b24000c6b24000c63
:100130006b24000c6b24000c6b24000c6b24000c53
:100140006b24000c6b24000c6b24000c6b24000c43
:100150006b24000c6b24000c6b24000c6b24000c33
:100160006b24000c6b24000c6b24000c6b24000c23
:100170006b24000c6b24000c6b24000c6b24000c13
:100180006b24000c6b24000c6b24000c6b24000c03
:100190006b24000c6b24000c6b24000c6b24000cf3
:1001a0006b24000c6b24000c6b24000c6b24000ce3
:1001b0006b24000c6b24000c6b24000c6b24000cd3
:1001c0006b24000c6b24000c6b24000c6b24000cc3
:1001d0006b24000c6b24000c3117000c3117000c41
:1001e0003117000c3117000c3117000c3117000cbf
:1001f0006b24000c6b24000c6b24000c6b24000c93
:100200006b24000c6b24000c6b24000c6b24000c82
:100210006b24000c6b24000c6b24000c6b24000c72
:100220006b24000c6b24000c6b24000c6b24000c62
:100230006b24000c6b24000c6b24000c6b24000c52
:100240006b24000c6b24000c6b24000c6b24000c42
:100250006b24000c6b24000c6b24000c6b24000c32
:100260006b24000c6b24000c6b24000c6b24000c22
:100270006b24000c6b24000c6b24000c6b24000c12
:100280006b24000c6b24000c6b24000c6b24000c02
:100290006b24000c6b24000c6b24000c6b24000cf2
:0c02a0006b24000c6b24000c6b24000c81
:020000040000fa
:020000040a00f0
:040000000100fefffe
:020000040000fa
:020000040a00f0
:040004000100fefffa
:020000040000fa
:020000040a00f0
:040008000100fefff6
:020000040000fa
:020000040a00f0
:04000c000100fefff2
:020000040000fa
:020000040a00f0
:040010000100feffee
:020000040000fa
:020000040a00f0
:040014000100feffea
:020000040000fa
:020000040a00f0
:040018000100feffe6
:020000040000fa
:020000040a00f0
:04001c000100feffe2
:020000040000fa
:020000040a00f0
:04002000ffffffffe0
:020000040000fa
:020000040a00f0
:04002400ffffffffdc
:020000040000fa
:020000040a00f0
:04002800ffffffffd8
:020000040000fa
:020000040a00f0
:04002c00ffffffffd4
:020000040000fa
:020000040a00f0
:04003000ffffffffd0
:020000040000fa
:020000040a00f0
:04003400ffffffffcc
:020000040000fa
:020000040a00f0
:04003800ffffffffc8
:020000040000fa
:020000040a00f0
:04003c00ffffffffc4
:020000040000fa
:020000040a00f0
:0400400000000000bc
:020000040000fa
:020000040a00f0
:04004400ffffffffbc
:020000040000fa
:020000040a00f0
:0400480007000000ad
:020000040000fa
:020000040a00f0
:04004c00ff050000ac
:020000040000fa
:020000040a00f0
:040054000f0f00008a
:020000040000fa
:020000040a00f0
:040058007000000034
:020000040000fa
:020000040a00f0
:04005c00020000009e
:020000040000fa
:020000040a00f0
:04006000000000009c
:020000040000fa
:020000040a00f0
:040064000202000094
:020000040000fa
:020000040a00f0
:040068000000000094
:020000040000fa
:020000040a00f0
:04006c000000000090
:020000040000fa
:020000040a00f0
:04007000000000008c
:020000040000fa
:020000040a00f0
:040074000000000088
:020000040000fa
:020000040a00f0
:040078000000000084
:020000040000fa
:020000040a00f0
:04007c000000000080
:020000040000fa
:020000040a00f0
:04008000ffffffff80
:020000040000fa
:020000040a00f0
:0400a000ffffffff60
:020000040000fa
:020000040a00f0
:04200000000000c01c
:020000040000fa
:020000040a00f0
:042004000100feffda
:020000040000fa
:020000040a00f0
:04200800ffffffffd8
:020000040000fa
:020000040a00f0
:04202000ffffffffc0
:020000040000fa
:020000040a00f0
:04202400ffffffffbc
:020000040000fa
:020000040a00f0
:04202800ffffffffb8
:020000040000fa
:020000040a00f0
:04202c00ffffffffb4
:020000040000fa
:020000040a00f0
:04203000ffffffffb0
:020000040000fa
:020000040a00f0
:04203400ffffffffac
:020000040000fa
:020000040a00f0
:04203800ffffffffa8
:020000040000fa
:020000040a00f0
:04203c00ffffffffa4
:020000040000fa
:020000040a00f0
:04204000ffffffffa0
:020000040000fa
:020000040a00f0
:04204400ffffffff9c
:020000040000fa
:020000040a00f0
:04204800ffffffff98
:020000040000fa
:020000040a00f0
:04204c00ffffffff94
:020000040000fa
:020000040a00f0
:04205000ffffffff90
:020000040000fa
:020000040a00f0
:04205400ffffffff8c
:020000040000fa
:020000040a00f0
:04205800ffffffff88
:020000040000fa
:020000040a00f0
:04205c00ffffffff84
:020000040000fa
:020000040a00f0
:04206000ffffffff80
:020000040000fa
:020000040a00f0
:04206400ffffffff7c
:020000040000fa
:020000040a00f0
:04206800ffffffff78
:020000040000fa
:020000040a00f0
:04206c00ffffffff74
:020000040000fa
:020000040a00f0
:04207000ffffffff70
:020000040000fa
:020000040a00f0
:04207400ffffffff6c
:020000040000fa
:020000040a00f0
:04207800ffffffff68
:020000040000fa
:020000040a00f0
:04207c00ffffffff64
:020000040000fa
:020000040a00f0
:04208000ffffffff60
:020000040000fa
:020000040a00f0
:04208400ffffffff5c
:020000040000fa
:020000040a00f0
:04208800ffffffff58
:020000040000fa
:020000040a00f0
:04208c00ffffffff54
:020000040000fa
:020000040a00f0
:04209000ffffffff50
:020000040000fa
:020000040a00f0
:04209400ffffffff4c
:020000040000fa
:020000040a00f0
:04209800ffffffff48
:020000040000fa
:020000040a00f0
:04209c00ffffffff44
:020000040000fa
:020000040a00f0
:0420a000ffffffff40
:020000040000fa
:020000040a00f0
:0420a400ffffffff3c
:020000040000fa
:020000040a00f0
:0420a800ffffffff38
:020000040000fa
:020000040a00f0
:0420ac00ffffffff34
:020000040000fa
:020000040a00f0
:0420b000ffffffff30
:020000040000fa
:020000040a00f0
:0420b400ffffffff2c
:020000040000fa
:020000040a00f0
:0420b800ffffffff28
:020000040000fa
:020000040a00f0
:0420bc00ffffffff24
:020000040000fa
:020000040a00f0
:0420c000ffffffff20
:020000040000fa
:020000040a00f0
:0420c400ffffffff1c
:020000040000fa
:020000040a00f0
:0420c800ffffffff18
:020000040000fa
:020000040a00f0
:0420cc00ffffffff14
:020000040000fa
:020000040a00f0
:0420d000ffffffff10
:020000040000fa
:020000040a00f0
:0420d400ffffffff0c
:020000040000fa
:020000040a00f0
:0420d800ffffffff08
:020000040000fa
:020000040a00f0
:0420dc00ffffffff04
:020000040000fa
:020000040a00f0
:0420e00006070000ef
:020000040000fa
:020000040a00f0
:0420e40004cf0f0016
:020000040000fa
:020000040a00f0
:0420e80036f70707b9
:020000040000fa
:020000040a00f0
:0420ec00863a000030
:020000040000fa
:020000040a00f0
:0420f000ff030000ea
:020000040000fa
:020000040a00f0
:0420f4003f000000a9
:020000040000fa
:020000040a00f0
:0420f800bf00000025
:020000040000fa
:020000040a00f0
:0420fc00ffffffffe4
:020000040000fa
:020000040a00f0
:04210000ffffffffdf
:020000040000fa
:020000040a00f0
:04211000ffffffffcf
:020000040000fa
:020000040a00f0
:04211400ffffffffcb
:020000040000fa
:020000040a00f0
:04211800ffffffffc7
:020000040000fa
:020000040a00f0
:04211c00ffffffffc3
:020000040000fa
:020000040a00f0
:04212000ffffffffbf
:020000040000fa
:020000040a00f0
:04400000db000000e1
:020000040000fa
:020000040a00f0
:048000000000ffff7e
:020000040000fa
:020000040a00f0
:048004000000ffff7a
:020000040000fa
:020000040a00f0
:048008000000ffff76
:020000040000fa
:020000040a00f0
:04800c000000ffff72
:020000040000fa
:020000040a00f0
:048010000000ffff6e
:020000040000fa
:020000040a00f0
:048014000000ffff6a
:020000040000fa
:020000040a00f0
:048018000000ffff66
:020000040000fa
:020000040a00f0
:04801c000000ffff62
:020000040000fa
:020000040a00f0
:04802000ffffffff60
:020000040000fa
:020000040a00f0
:04802400ffffffff5c
:020000040000fa
:020000040a00f0
:04802800ffffffff58
:020000040000fa
:020000040a00f0
:04802c00ffffffff54
:020000040000fa
:020000040a00f0
:04803000ffffffff50
:020000040000fa
:020000040a00f0
:04803400ffffffff4c
:020000040000fa
:020000040a00f0
:04803800ffffffff48
:020000040000fa
:020000040a00f0
:04803c00ffffffff44
:020000040000fa
:020000040a00f0
:0480400044000000f8
:020000040000fa
:020000040a00f0
:04804400ffffffff3c
:020000040000fa
:020000040a00f0
:04804800070000002d
:020000040000fa
:020000040a00f0
:04804c00ff0500002c
:020000040000fa
:020000040a00f0
:048054000f0f00000a
:020000040000fa
:020000040a00f0
:0480580070000000b4
:020000040000fa
:020000040a00f0
:04805c00020000001e
:020000040000fa
:020000040a00f0
:04806000000000001c
:020000040000fa
:020000040a00f0
:048064000202000014
:020000040000fa
:020000040a00f0
:048068000000000014
:020000040000fa
:020000040a00f0
:04806c000000000010
:020000040000fa
:020000040a00f0
:04807000000000000c
:020000040000fa
:020000040a00f0
:048074000000000008
:020000040000fa
:020000040a00f0
:048078000000000004
:020000040000fa
:020000040a00f0
:04807c000000000000
:020000040000fa
:020000040a00f0
:04808000ffffffff00
:020000040000fa
:020000040a00f0
:0480a000ffffffffe0
:020000040000fa
:020000040a00f0
:04a00000000000c09c
:020000040000fa
:020000040a00f0
:04a004000000ffff5a
:020000040000fa
:020000040a00f0
:04a00800ffffffff58
:020000040000fa
:020000040a00f0
:04a02000ffffffff40
:020000040000fa
:020000040a00f0
:04a02400ffffffff3c
:020000040000fa
:020000040a00f0
:04a02800ffffffff38
:020000040000fa
:020000040a00f0
:04a02c00ffffffff34
:020000040000fa
:020000040a00f0
:04a03000ffffffff30
:020000040000fa
:020000040a00f0
:04a03400ffffffff2c
:020000040000fa
:020000040a00f0
:04a03800ffffffff28
:020000040000fa
:020000040a00f0
:04a03c00ffffffff24
:020000040000fa
:020000040a00f0
:04a04000ffffffff20
:020000040000fa
:020000040a00f0
:04a04400ffffffff1c
:020000040000fa
:020000040a00f0
:04a04800ffffffff18
:020000040000fa
:020000040a00f0
:04a04c00ffffffff14
:020000040000fa
:020000040a00f0
:04a05000ffffffff10
:020000040000fa
:020000040a00f0
:04a05400ffffffff0c
:020000040000fa
:020000040a00f0
:04a05800ffffffff08
:020000040000fa
:020000040a00f0
:04a05c00ffffffff04
:020000040000fa
:020000040a00f0
:04a06000ffffffff00
:020000040000fa
:020000040a00f0
:04a06400fffffffffc
:020000040000fa
:020000040a00f0
:04a06800fffffffff8
:020000040000fa
:020000040a00f0
:04a06c00fffffffff4
:020000040000fa
:020000040a00f0
:04a07000fffffffff0
:020000040000fa
:020000040a00f0
:04a07400ffffffffec
:020000040000fa
:020000040a00f0
:04a07800ffffffffe8
:020000040000fa
:020000040a00f0
:04a07c00ffffffffe4
:020000040000fa
:020000040a00f0
:04a08000ffffffffe0
:020000040000fa
:020000040a00f0
:04a08400ffffffffdc
:020000040000fa
:020000040a00f0
:04a08800ffffffffd8
:020000040000fa
:020000040a00f0
:04a08c00ffffffffd4
:020000040000fa
:020000040a00f0
:04a09000ffffffffd0
:020000040000fa
:020000040a00f0
:04a09400ffffffffcc
:020000040000fa
:020000040a00f0
:04a09800ffffffffc8
:020000040000fa
:020000040a00f0
:04a09c00ffffffffc4
:020000040000fa
:020000040a00f0
:04a0a000ffffffffc0
:020000040000fa
:020000040a00f0
:04a0a400ffffffffbc
:020000040000fa
:020000040a00f0
:04a0a800ffffffffb8
:020000040000fa
:020000040a00f0
:04a0ac00ffffffffb4
:020000040000fa
:020000040a00f0
:04a0b000ffffffffb0
:020000040000fa
:020000040a00f0
:04a0b400ffffffffac
:020000040000fa
:020000040a00f0
:04a0b800ffffffffa8
:020000040000fa
:020000040a00f0
:04a0bc00ffffffffa4
:020000040000fa
:020000040a00f0
:04a0c000ffffffffa0
:020000040000fa
:020000040a00f0
:04a0c400ffffffff9c
:020000040000fa
:020000040a00f0
:04a0c800ffffffff98
:020000040000fa
:020000040a00f0
:04a0cc00ffffffff94
:020000040000fa
:020000040a00f0
:04a0d000ffffffff90
:020000040000fa
:020000040a00f0
:04a0d400ffffffff8c
:020000040000fa
:020000040a00f0
:04a0d800ffffffff88
:020000040000fa
:020000040a00f0
:04a0dc00ffffffff84
:020000040000fa
:020000040a00f0
:04a0e000060700006f
:020000040000fa
:020000040a00f0
:04a0e40004cf0f0096
:020000040000fa
:020000040a00f0
:04a0e80036f7070739
:020000040000fa
:020000040a00f0
:04a0ec00863a0000b0
:020000040000fa
:020000040a00f0
:04a0f000ff0300006a
:020000040000fa
:020000040a00f0
:04a0f4003f00000029
:020000040000fa
:020000040a00f0
:04a0f800bf000000a5
:020000040000fa
:020000040a00f0
:04a0fc00ffffffff64
:020000040000fa
:020000040a00f0
:04a10000ffffffff5f
:020000040000fa
:020000040a00f0
:04a11000ffffffff4f
:020000040000fa
:020000040a00f0
:04a11400ffffffff4b
:020000040000fa
:020000040a00f0
:04a11800ffffffff47
:020000040000fa
:020000040a00f0
:04a11c00ffffffff43
:020000040000fa
:020000040a00f0
:04a12000ffffffff3f
:020000040000fa
:020000040c00ee
:10000000f8b500bff8bc08bc9e467047e129000c5b
:10001000f8b500bff8bc08bc9e467047bd29000c6f
:020000040000fa
:020000040c00ee
:080020007c0c0000010000004f
:020000040000fa
:020000040c00ee
:100028002de9f04f2ded028b97b0cd68cde90c137b
:100038008b680f9008930b69d2e90089d1e900b663
:100048001493002200234046494602f0c3fd40b9fc
:100058001bf0040f32d11bf00803059330d0202386
:1000680003e089f0004399462d232b70089b03f188
:10007800ff3a0123059329f000434b4900208b42a6
:1000880008bf80451fd10d9b413b192b059b2b4475
:1000980094bf46494649184603f044f8284603f0f9
:1000a8002bf8089b02462946cdf800b00f9802f0bd
:1000b8006cf817b0bdec028bbde8f08f2b23d4e7aa
:1000c800ddf820a0d7e7994208bf404509d20d9b2b
:1000d800413b192b059b2b4494bf3649364918469a
:1000e800dae7002200234046494602f08ffd9fede3
:1000f8002c7b8ded027b48b300240d9803f004f8a7
:10010800002ec3b20993c0f2eb81672b5ad1002e9f
:1001180008bf0126231d02dbb442c0f2cd8165274a
:1001280061e09ded067b01348ded027b0022234bbf
:10013800dde9020101f09cfb42464b46cde9060190
:1001480002f02cfd0028ecd000271fe00446ede764
:1001580014f5967f11da87b90022194b40464946b3
:10016800012701f085fb002280468946144bdde912
:10017800020101f07dfbcde90201013c00220f4b99
:10018800dde9020101f003f8cde90201dde902230e
:100198004046494602f01efd0028d9d1ade700bf10
:1001a800000000000000f03f0000f07ff030000c7d
:1001b800f430000cf830000cfc30000c0000244037
:1001c80000005043099f662f06f101060bd1002c51
:1001d80004da00249fedbc7b8ded027b099b672b25
:1001e80018bf3619662700239ded027bcde90689e5
:1001f8000e938ded0a7bdde90a23dde9060100f0a7
:10020800c6ff41ec100b01f02bfeb0ee408af0ee79
:10021800608a51ec100b02f085fb069bb0ee480a91
:10022800f0ee680a15901093079b83f00043119332
:100238009ded0a1b9ded102b02f0befd8ded060a0b
:1002480053ec102b83f0004300220793a24bdde907
:100258000a0100f09cff0e9b01339e420e93cde9ec
:100268000a01c8d100229d4b01f002fb02460b4651
:10027800cde90a01dde9060102f0acfc002840f0f6
:100288008880dde90a23dde9060102f0bffc10b130
:10029800159bda077dd540464946dde90a2300f07b
:1002a80057fe00228c4bcde90601dde9020101f081
:1002b800dffadde90623cde90a0102f0fbfb00289d
:1002c8006cd0662f04f101046cd10136a146a9eb6c
:1002d80006034ff00008059e10930bf01003cdf8ad
:1002e80008801593109b994540f08680029b002b4f
:1002f80000f0cc800022652f05eb0600aa552cd112
:10030800149b9442149903f1ff33b8bf6442c1f1be
:10031800030e4ff00a01ea54b8bf0122002c40f046
:10032800bc800eeb030cbcf1000f00f3b680002a72
:1003380003f1ff31a3f10203aaf1020a14bf2d222f
:100348002b226a54e9180d9a413a192a98bf452771
:100358009e42ef5401da02f0e5fe0bf00303022b94
:100368007ff49caebaf1000f7ff798ae284602f0f2
:10037800c3fe05eb0a03059a824240f39980059b68
:10038800524630212b44184602f09efe0023089363
:1003980084e69fed4f7b8ded0a7b7ce79ded027b2c
:1003a8008ded0a7b652f14bfa1464ff000098ee73b
:1003b800029a52b9b9f1000f07da2e220e990136c6
:1003c8000af1ff3a6a540122029205eb0801aa19c0
:1003d800314403e04ff0300002f8010b9142f9d1ab
:1003e80008eb06023033aaeb0808561cab5408f198
:1003f800ff3a4ff0000827e00c9b0e961b69053b5f
:10040800b3427ff673afdde90a23dde9060100f0a8
:10041800befe41ec100b01f023fdb0ee408af0ee79
:10042800608a51ec100b02f07dfa159a09280346f0
:10043800a8bf09230243bbd1099a672ab8d1b9f1e9
:10044800000fc2da08f10108069bb0ee480af0ee88
:10045800680a09f1ff391293079b83f0004313934d
:100468009ded0a1b9ded122b02f0a6fc8ded060af0
:1004780053ec102b83f0004300220793164bdde961
:100488000a0100f084fecde90a012be71bf0100fea
:100498001ebf2e23ab5501362ce7b4fbf1fc01fb44
:1004a8001c44013b0af1ff3a3034ec54644635e70a
:1004b8002a5c1a5401385ee7002cbff693ae662713
:1004c80081e6062626e600bf000000000000f03f97
:1004d800000000000000000000002440000014405c
:0c04e800099b672bedd01f4606266ce632
:020000040000fa
:020000040c00ee
:0404f40002f05cb8fe
:020000040000fa
:020000040c00ee
:1004f8002de9f04f95b0cc68cde912030b6808934d
:100508004b680a938b6892ed007b099300220b6974
:1005180051ec170b0d9300238ded047b02f05afb71
:1005280040b9089b580733d4089b13f0080731d00b
:10053800202306e0dde9042181f00043cde904230e
:100548002d2323700127099b5a1edff8f4b24ff0c0
:10055800000adde9040323f00041594508bf50456e
:100568001ad1139be019413b192b94bfae49af49ef
:1005780002f0d8fdad4802f0bffd089b02462146b7
:100588000093099b129801f000fe15b0bde8f08faa
:100598002b23d6e7099ad8e78b45139b08bf8245da
:1005a800a3f141030b9309d2192b04eb070094bf65
:1005b8009f49a04902f0b6fd9e48dce730217b1c2c
:1005c800e15502370b991a2934bf58217821e15493
:1005d800931e002207930023dde9040102f016fbb5
:1005e800002800f0788100269fed8d7b8ded027b41
:1005f8000a9b0025002bdde90289b8bf1823dde935
:1006080004ab0e9342464b465046594600f0bffd98
:1006180041ec100b01f024fc42464b4651ec100b08
:100628008ded100b01f024f902460b465046594651
:1006380002f082fd804b82468b46404649460022a6
:1006480001f016f96b1c804689460c930a9b002b17
:1006580006da002200235046594602f0d7fa28b994
:100668000e9bab4200f33d8101330c930022734b88
:100678004046494601f0fcf88046894602460b464a
:100688005046594602f0a6fa002840f02c8142460e
:100698004b465046594602f0b9fa30b1dde910012f
:1006a80002f040f9c10740f11e8142464b46dde9a0
:1006b800040100f04dfccde90401dde9042100202e
:1006c80021f000435e498b4208bf82423ff449afa4
:1006d8004ff000083d46c246c1460d9bab46053b60
:1006e800ab4233d9dde90223dde9040100f04ffd17
:1006f80041ec100b01f0b4fb51ec100b8ded0e0b1f
:1007080002f010f9002840f0f380b9f1000f00f072
:10071800ef8008f1010809f10109dde90223dde9ab
:100728000e0101f0a5f802460b46dde9040102f0ce
:1007380003fd414b0022cde90401dde9020101f08e
:1007480097f80c9b4b45cde90201c6d1baf1000fd1
:100758001dd1b8f1000f00f012810a9b002b40f365
:100768000e81089bda0700f10a812e2308eb0502a7
:10077800302163552244631903f8011f9a42fbd1c3
:100788004544079b6fea0808013543440793002254
:100798000d9b0d996019964203f1ff336255c1f123
:1007a800020ee254bcbf764201224ff00a08002e26
:1007b80040f0d5800eeb030cbcf1010f00f0cf80a8
:1007c800002a03f1ff31a3f1020314bf2d222b22cb
:1007d8006254e1180b9a1a2a34bf502270229d42a3
:1007e800e25401da02f09efc089b03f00303022b9b
:1007f80014d1079ba3f10208b8f1000f0edd2046c3
:1008080002f07afc04eb0803b84280f2b480424656
:100818003021e01902f058fc002309932046aae68b
:10082800000000000000f03fe030000ce430000c55
:10083800e830000cec30000c0000b03f0000204015
:100848000000f07f0136cde90289dde90223104678
:10085800194600f07dfb8046894602460b46dde9d5
:10086800040102f0b7f90028ecd04ff0000adff8d5
:1008780028b14ff00008dff82491dde90223dde913
:10088800040102f0a7f900283ff4b2ae52465b46d5
:10089800dde9020100f0ecff0022002302f0b6f9c6
:1008a80078b142464b46dde9020100f0e1ff4246dd
:1008b8004b46cde90201dde9040100f0d9ffcde99d
:1008c8000401dde9020152465b4600f0d1ff013e1a
:1008d800cde90201d1e79fed2e7b06468ded027b27
:1008e800b3e70c9d8ee64ff000084ff00009dce6f8
:1008f800baf1000f0bd1b9f1000f08d02e23013542
:100908004ff0010a04f80b30079b013b079304ebf7
:10091800080362192b4403e04ff0300102f8011b71
:100928009a42f9d1079b092805eb080ba3eb0808a5
:100938000b9bd4bf30305730192b06d840f020031a
:10094800613b192b01d802f0e6fb08f1ff330bf1ec
:10095800010504f80b004ff000080793dbe6b6fb2f
:10096800f8fc079908fb1c66013b30360139e65450
:10097800664607911be7225c1a54013844e7089b36
:10098800db067ff504af2e2363550135ffe600bf74
:10099800000000000000f03f0000e03f000050436e
:020000040000fa
:020000040c00ee
:1009a8002de9f04f0027adb006461546b8464ff082
:1009b800ff39dff8dca2039103990b78002b00f0d4
:1009c800f9800cab0024cdf824800a938023cde96c
:1009d80007890b930b5d0bb1252b26d134b1224629
:1009e800304602f085f8039b23440393039b1a784f
:1009f800252a40f0d78003f1010bcdf80cb00398fd
:100a080003782b2b1ad025d8202b1bd0232b1dd0b5
:100a18002a2b27d001f0abff0990039b1a78303ab4
:100a2800092a2ed801330393f7e70134d2e7079b4d
:100a380043f00103013007930390e0e7079b43f07d
:100a48000403f7e7079b43f00803f3e7079b43f02a
:100a58001003efe72d2bead0302bd9d1079b43f0b9
:100a68000203e7e72b6801301a1d1b680390002b6f
:100a78002a60099305da079a5b4282f0010209931a
:100a88000792079bda0744bf23f002030793039bef
:100a98001a782e2a0dd1581ccdf8208003905a7848
:100aa8002a2a25d1023303932b681a1d1b682a6052
:100ab800089303a802f056f8039b0190187802f0f7
:100ac80023fb6928019979d032dc632800f0c680bd
:100ad80019dc252800f0d080612853d02523cdf8d3
:100ae8000cb0cdf81c808df81030cde90898c0e026
:100af80001f03dff0890039b1a78303a092ad8d8ac
:100b080001330393f7e7642858d06728e6dc2a46c0
:100b180004a802f07df9002800f09c80039b07a937
:100b280030465a1c039204aa1b78fff779fa38e07a
:100b3800702873d015dc6e2800f087806f28cdd11f
:100b48002b46002204a801f0e9f9002800f0828071
:100b5800039b04aa07a930460133039301f047fc1d
:100b68001fe075283ad0782848d07328b6d1802954
:100b780070d1039b2a6801330393131d2b60002354
:100b880012685be02a4604a802f042f9002861d006
:100b9800039b07a930465a1c039204aa1b78fff747
:100ba800a7fc04443c44a7426edd384b4f224ff06b
:100bb800ff371a6038462db0bde8f08f2b4601226a
:100bc80004a801f0abf9002844d0039b04aa07a9a4
:100bd80030460133039301f0f7f9e2e72b46002290
:100be80004a801f09bf9002834d0039b04aa07a9a4
:100bf80030460133039301f019fed2e72b46002259
:100c080004a801f08bf928b3039b5a1c03921b78a4
:100c180004aa07a9304600f0c3fec2e72b4600220b
:100c2800f02104a801f07af9a0b1039b01330393e2
:100c3800dde90423134306d10023524607a93046b1
:100c480001f0c8fdade77823e2e72b463a1904a87e
:100c580001f018fb039b01330393a3e78029f9d123
:100c6800039b013303932b681a1d1b682a608df8b8
:100c78001030012304aae1e78029ebd1039b8df80a
:100c8800100001330393f4e7274695e6cc0e0020c5
:040c98001a30000c02
:020000040000fa
:020000040c00ee
:100c9c002de9f04f099f154604468e461e46002b43
:100cac0040f0cc808a42b2fa82fc4cd9bcf1000fe5
:100cbc000bd0ccf1200801fa0cfe02fa0cf500fa6c
:100ccc000cf420fa08f848ea0e0e4fea15491ffa00
:100cdc0085f8210cbefbf9fa09fb1ae30afb08fba9
:100cec0041ea03439b452ad9eb180af1ff3004d2a1
:100cfc009b4502d9aaf102002b44a3eb0b03a4b22f
:100d0c00b3fbf9f209fb123302fb08f844ea034483
:100d1c00a04516d92c1902f1ff3303d2a04501d9f5
:100d2c00931e2c44a4eb080443ea004027b124fa98
:100d3c000cf400233c607b603146bde8f08f5046dc
:100d4c00dbe71346eee702b9ffdebcf1000f2ed154
:100d5c008b1a01264fea154eaab2210cb3fbfef8f2
:100d6c000efb183308fb02f941ea0343994561d99c
:100d7c00eb1808f1ff3004d2994502d9a8f1020012
:100d8c002b44a3eb0903a4b2b3fbfef10efb11330e
:100d9c004a4344ea0344a2424ed92c1901f1ff33d1
:100dac0003d2a24201d98b1e2c44a41abce702fa2e
:100dbc000cf5ccf1200e01fa0cf300fa0cf421fa2c
:100dcc000ef94fea154820fa0efeb9fbf8f14eea7f
:100ddc00030308fb11921ffa85fe180c01fb0ef69b
:100dec0040ea0242964221d9aa1801f1ff3003d2ff
:100dfc00964201d9881e2a44921b9bb2b2fbf8f989
:100e0c0008fb192209fb0efe43ea02439e450fd94b
:100e1c00eb1809f1ff3604d29e4502d9a9f102065e
:100e2c002b44a3eb0e0346ea004693e70846e3e7a0
:100e3c004e46f6e74046a4e70b46b6e78b4206d98a
:100e4c00002f7ed00026c7e90001304674e7b3fac4
:100e5c0083fcbcf1000f0fd18b4201d3824209d825
:100e6c00841a61eb030e0120002f6dd0c7e9004ef0
:100e7c00002661e76046f7e7ccf1200e03fa0cf38d
:100e8c0000fa0cf622fa0ef521fa0ef402fa0cf224
:100e9c001d4301fa0cf320fa0ef14fea154a0b43ed
:100eac001ffa85f8b4fbfaf90afb19401c0c09fb74
:100ebc0008f144ea0044a1423fd92c1909f1ff3052
:100ecc0004d2a14202d9a9f102002c44641a9bb2ab
:100edc00b4fbfaf90afb194409fb08f843ea04418c
:100eec0088452cd9691809f1ff3304d2884502d9f9
:100efc00a9f10203294443ea0040a1eb0801a0fb3d
:100f0c0002894945c2464c4602d306d1464504d215
:100f1c000138b8eb020a69eb0504afb1b6eb0a0372
:100f2c0061eb040606fa0efe23fa0cf326fa0cf615
:100f3c004eea0303c7e900369ae74846c6e74b4634
:0c0f4c00d9e73e463846f7e63e46f5e69b
:020000040000fa
:020000040c00ee
:100f580030b591ea030f00f18280841a71eb030c1b
:100f680005d2121953eb0c03001b71eb0c0140f274
:100f7800000ccff6e07c1cea430f52d0bceb410fcb
:100f88005fd90c0da4eb135e5ff0010c6cf31f51dd
:100f98006cf31f53def1200c2ad303fa0cf5401929
:100fa80041f1000122fa0ef5401923fa0ef56941c4
:100fb80012fa0cf2cd0208d349085fea30005fea62
:100fc800320228bf42f001020134013c5fea500cb2
:100fd80072f1004250f1000051eb04514ff400133c
:100fe80013eb410f38bf30bd6ff31301002030bd44
:100ff800bef1200ebef1200f1ed223fa0ef54019c5
:1010080041f10001cef1200c124218bf012203fa6f
:101018000cf52a43cee711ea5c0f04bf002000213b
:1010280030bd1cea410f04bf01f00041002030bd73
:1010380001f00041002030bd21f4801101eb045182
:1010480030bd004218bf41f00101bceb410f08bfa1
:1010580030bd4ff0fe4141f47801002030bd83f0ef
:101068000043841a71eb030e07d28ef0004e001b6a
:1010780071eb0e01121953eb0e0340f2000ccff680
:10108800e07c1cea430fc6d0bceb410f72d90c0db3
:10109800a4eb135ec90241ea5051c00241f000417d
:1010a800db0243ea5253d20243f00043def1200c44
:1010b80041d312fa0cf522fa0ef203fa0cf542eac1
:1010c800050218bf42f0010223fa0ef3801a994173
:1010d800e30ac4f30a0411f0404f03d418d0013cca
:1010e80040004941013c23d44205c00a40ea41502e
:1010f800c90a51eac3715fea500c72f1004250f11b
:10110800000051eb045130bd01002fd00020203cdd
:101118000029f9d0b1fa81fcdcf1200e11fa0cf1aa
:1011280030fa0ef510fa0cf02943a4eb0c04d9e7b9
:101138000020d90730bdaef1200ebef1200f0dd230
:10114800cef1200c03fa0cf533fa0ef32a4318bf3c
:1011580043f00103c01a61f10001b9e721f0004131
:10116800c00a40ea4150c90a01eb045130bd0020d1
:10117800002130bd004218bf41f00101bceb410f16
:0e1188007ff467afbceb430f3ff463af30bda5
:020000040000fa
:020000040c00ee
:10119600f0b581ea030e0ef0004e40f20007cff6de
:1011a600e07717ea41051ebf95ea070f17ea4304e1
:1011b60094ea070f00f0c5806d0da5eb545707f5af
:1011c60080674ff0004646eac12444ea5054c00204
:1011d60046eac32343ea5253d202801a9c4104d200
:1011e6000018644180185c41013f5b084fea3202f7
:1011f6000025002140f001004ff0070604e0801aa8
:101206009c4136d340416441801a9c4136d34041cb
:101216006441801a9c4136d340416441801a9c4106
:1012260036d340416441801a9c4136d340416441e3
:10123600013e17d0801a9c4136d340416441801a42
:101246009c4136d340416441801a9c4136d340418b
:101256006441090201eb156190ea052520f0ff00c3
:101266004540cce7801a9c4156d335e080185c4156
:10127600c8d20018644180185c41c8d20018644185
:1012860080185c41c8d20018644180185c41c8d2fd
:101296000018644180185c41c8d200186441013ec0
:1012a60017d080185c41c8d20018644180185c4190
:1012b600c8d20018644180185c41c8d20018644145
:1012c600090201eb156190ea052520f0ff00454073
:1012d600cce780185c411fd3420918bf44f00104d3
:1012e600490101ebd56100f01f0000eb451021f428
:1012f600801141ea0e01013041f10001244208bf8c
:1013060020f00100b7f5006f3eda013f49dd01eb41
:101316000751bde8f0407047490101ebd56100f087
:101326001f0000eb451021f4801141ea0e01b7f5cc
:10133600006f29da013f34dd01eb0751bde8f040cb
:101346007047004218bf41f00101124218bf43f036
:101356000103b7eb410f2cbfb7eb430f1ce0b7eb14
:10136600410f04bfb7eb430f16e017ea410f04bf66
:1013760017ea430f10e017ea410f12d017ea430f9e
:1013860002d0b7eb430f0cd04ef0fe4141f4700192
:101396000020bde8f04070474ff0fe4141f478016f
:0613a600f6e77146f4e7d2
:020000040000fa
:020000040c00ee
:1013ac00ac0e00201c00000000000000080400200f
:1013bc000c000000000000007c0e0020300000003b
:1013cc0000000000d40e002001000000000000000e
:1013dc00d50e0020010000000000000020040020b9
:1013ec0000040000000000002008002000040000a1
:1013fc00000000001c04002004000000000000009d
:10140c002c0e00205000000000000000d80e002020
:10141c006c00000001000000e40e0020e00e002033
:10142c00e40e002000000000250000000800002051
:10143c00000400000000000000000000000000009c
:10144c000000000000000000000000000000000090
:10145c00000000005d31000c0000000000000000e6
:10146c0000000000000000001126000c000000002d
:10147c000000000000000000000000000000000060
:10148c000000000000000020080400000000000024
:10149c00a40f00202000000001000000010000004b
:1014ac00030000000000000000000000000000002d
:1014bc0000000000000000001404002014040020b0
:1014cc000800000000000000c80e0020040000000e
:1014dc0000000000200c00200c02000000000000a6
:1014ec00440f00206000000001000000010000001b
:1014fc0003000000000000000000000000000000dd
:10150c0000000000000000002927000c0000000073
:10151c0000000000000000005131000c932f000c63
:10152c0000000000000000000000000000000000af
:10153c00000000000000000000000000000000009f
:10154c00000000000000000000000000cc0e002095
:10155c000400000000000000d00e00200400000079
:10156c00000000000000000000000000444444445f
:020000040000fa
:020000040c00ee
:10157c002de9f04f87b0039003a801f079fa002809
:10158c0003da002007b0bde8f08f039b1b095d1e3a
:10159c00202d0fd9023b5f4ab3f5007f35bf02eb1c
:1015ac00d30302ebd31313f8045c13f8045c34bfbd
:1015bc00013511350123a5f12001c5f1200203faf3
:1015cc0001f903fa05f823fa02f2d8f1000849ea06
:1015dc00020969eb4909cde90089dff84481dff89c
:1015ec00349147460099d8e9002302ea010a01998f
:1015fc0003ea010b5aea0b0343d1039b05a81033f2
:10160c00059301f01ffd18b9434b0c221a60b9e782
:10161c00d8f80852a84206d0059b00f11005103be3
:10162c00059301238360059b0121b5f1080405ebab
:10163c00030243f0010342f8041c42f8083cc7f8cb
:10164c00082245f8043c9cd0204601f027fb88b1c9
:10165c0055f8083c55f8041c23f00103e31a5a68aa
:10166c0022f001020a445a6055f8041c21f00101d1
:10167c0062501c462046039901f058fb04f1080007
:10168c0080e75446254bbaf1000f34d1cbf1000062
:10169c0000ea0b00434309ebd36393f83c6020361c
:1016ac00304601f051fc731c57f8334007ebc30371
:1016bc00083b9c4296d0272e26dd0235ae4201dc3b
:1016cc003f2e21d16268039922f00102551a284657
:1016dc0001f02afa864217d1e0686318a668d86030
:1016ec009e6083609868c36041f0010060505d604b
:1016fc00a5506060bee7caf100002040434309ebef
:10170c00d36393f83c60cbe73146204601f034f8c4
:10171c00b0e700bfcc26000ccc0e002029e66b07ee
:04172c00200c00206d
:020000040000fa
:020000040c00ee
:1017300038b54f4b9b7dd3b14d4a137edbb2927dc2
:1017400012f0800f14d14a4a137edbb2927d12f060
:10175000010f02d013f0010f50d1454a137edbb2c6
:10176000927d12f0040f02d013f0040f18d138bd8f
:1017700013f0800fe7d03e4b5b8b13f00703e2d0f2
:101780003c4ce38501f060fa394b84221a75002342
:1017900084f82c30636a002bd5d0a06a9847d2e732
:1017a000344b93f82c30002be1d0324b1a6adb69b2
:1017b0009a42dcd22e4b9a6a5b6803f00703012b36
:1017c0002c4b196a9b6914bf5a5423f81120294bda
:1017d0001a6a01321a621a6adb699a42c7d1254b2a
:1017e000002283f82c20da61214a842111755b6a7a
:1017f000002bbcd01f4a906a9847b8e71d4b1b7d51
:10180000002baad01b4b9a685c68194b1b7e13f007
:10181000010f18d0a24216d2164b1d6814494a680f
:1018200002f00702012a9a6814bfaa5c35f8122058
:101830008a629a6801329a6098680a7e12f0010ff3
:1018400001d08442ebd80b4b9a685b689a4284d3f0
:10185000084b00221a755a60054a01211175db6890
:10186000002b3ff47aaf034a1069984775e700bf31
:08187000002000457c0e002061
:020000040000fa
:020000040c00ee
:10187800f0b540f2ff7681ea030c16ea115e1ebf4e
:10188800b64516ea1355b54252d021ea465141f4fd
:101898008011a1fb024723ea465343f48013ae4468
:1018a800a0fb03650cf0004c36197d41a1fb0347f2
:1018b80047f10003a0fb0217f619654153f1000335
:1018c800094218bf46f0010640f2fe74b3f5007fe6
:1018d80013d2aef5806ea64523d24cea0331280315
:1018e80041ea155140ea16503203450872f10042a8
:1018f80050f1000051eb0e51f0bdaef2ff3ea6458f
:101908000fd24ceac321e80241ea555140ea565049
:10191800f202450872f1004250f1000051eb0e51fd
:10192800f0bd1eea0e0f2dd50cf000410020f0bdd1
:1019380016ea115f04bf01f000410020004218bf01
:1019480041f0010116ea135f04bf03f000430022cf
:10195800124218bf43f0010306ea1354b44218bff9
:10196800b64503d00cf000410020f0bd21f0004145
:1019780023f00043b1eb065f0cd8b3eb065f09d840
:1019880041b13bb10cf0004141f0fe4141f470011e
:101998000020f0bd40f20001c7f6f8710020f0bd4c
:020000040000fa
:020000040c00ee
:1019a8002de9f04fd1e901590e688bb0002d0f4693
:1019b8000393acbf26f002060125029016f010032f
:1019c800d1f80c800493d2e900ab37d05aea0b0364
:1019d80034d0a9f1020316f008013c69059104f11d
:1019e800ff344ff0000118bf03f1ff3308f804106b
:1019f80006f002015b1b069103994139012c1fdc9b
:101a0800049b002b4bd1059b1bb1013c202308f8fc
:101a180004303a694b46009608eb0401013a0298f3
:101a2800121b00f0b2fb029b5b68db0503d57b68e9
:101a38009842b8bf18460bb0bde8f08f4b46cae7ce
:101a48005aea0b0007d1002d05dc58190028d7dd0c
:101a580006980028d4d00af00f00013c0928d4bf0a
:101a68003030573019290ed840f0200cacf1610cf9
:101a7800bcf1190f07d80792cde9083101f04bfbeb
:101a8800079adde9083108f804004fea1a104fea0e
:101a98001b1c013d40ea0b70e3468246aee7d2e9e3
:101aa80000231343afd008eb0403039a023c03f866
:0a1ab800012c302308f80430a5e7e4
:020000040000fa
:020000040c00ee
:021ac20070476b
:020000040000fa
:020000040c00ee
:101ac4002de9f84300286ad050f8043ca0f108043a
:101ad40023f00106a259a719934200d0ffde7a68c9
:101ae40023681340da070fd4204601f0dbf80028fe
:101af40057d1384601f04bf90028f0d07b6823f029
:101b040001031e441f44eae746f0010330466360c4
:101b14003b6001f00df8054601f01afa23687a6873
:101b24001340db07e0d5dff88ce0c5f1200ca5f10c
:101b3400200201210023dee9008928fa05f009fad0
:101b44000cfc29fa02f240ea0c00104300ea0102fc
:101b5400c5f1200013437346a5f1200212d121fae6
:101b640000f001fa02f2a94042ea00021ebfdef8c8
:101b740000000143cef8001022b1def804100a433d
:101b8400cef80420681c66603e6003ebc003a3f13a
:101b94000802a2605a68e2605c60e3689c60bde889
:101ba400f883236823f00103e41a636823f0010334
:081bb4001e449ee7200c0020f6
:020000040000fa
:020000040c00ee
:101bbc000a0d2d2d2d2d2d2d2d2d2d2d2d2d2d2d8c
:101bcc002d2d2d2d2d2d2d2d2d2d2d2d2d2d2d2d39
:101bdc002d2d2d2d2d2d2d2d2d2d2d2d2d2d2d2d29
:101bec002d2d2d2d2d2d2d2d2d2d2d2d2d2d2d0046
:101bfc000a0d090920444d41204d656d6f72792005
:101c0c005472616e736665722044454d4f0909002c
:101c1c000a0d20444d41204d656d6f727920547230
:101c2c00616e736665722053756363657373667555
:101c3c006c20776974682044617461204d61746311
:101c4c00680a0d000a0d20444d41204d656d6f72e0
:101c5c0079205472616e7366657220537563636587
:101c6c00737366756c2077697468204461746120a5
:101c7c004d69736d61746368202121210a0d000088
:101c8c000a0d20444d41204d656d6f7279205472c0
:101c9c00616e73666572204572726f72202121210c
:041cac000a0d00001d
:020000040000fa
:020000040c00ee
:101cb00010b5002000f0c2fe4ff089434ff48012af
:101cc000c3f898212b4a002302f8013f0133b3f5f2
:101cd000806ff9d1284c204601f02af904f1400028
:101ce00001f026f9204601f023f90022234910468d
:101cf00001f050f94ff48063214a2249002000f09e
:101d0000edfb214a214b117811b919780029fad03d
:101d10001d4b1b78ebb11c4b00221a7002f5806240
:101d20001749184801f052f948b9194801f000f96b
:101d30004ff089434ff48012c3f894210ce015480a
:101d400001f0f6f84ff089434ff48012c3f8982160
:101d500002e00e4b1b7803b9fee70c4b00221a7011
:101d60000d4801f0e5f84ff089434ff48012c3f8b5
:101d70009821f1e71f080020bc1b000c0d2f000c60
:101d80002004002020080020d40e0020d50e0020c2
:0c1d90001c1c000c501c000c8c1c000cd7
:020000040000fa
:020000040c00ee
:101d9c0000b583b000230193009300eb80031b017b
:101dac0003f1894303f500535a6e01921b6e019a9d
:101dbc0043f4c02313400093009b03f001039b00ea
:101dcc00009a12f0020f18bf43f00803009a12f0a9
:101ddc00040f18bf43f01003009a12f0080f18bf3d
:101dec0043f00103009a12f0100f18bf43f02003c8
:101dfc00009a12f0200f18bf43f04003009a12f41f
:101e0c00c02f18bf43f002030199124a0a4032b1a5
:101e1c0000eb4002104901eb820200211172019982
:101e2c0000eb8002120102f1894202f50052516668
:101e3c0000eb4002084951f822203ab133b100ebd3
:101e4c00400001eb800041681846904703b05df8f4
:0c1e5c0004fb00bf2a0006000804002060
:020000040000fa
:020000040c00ee
:101e680053ec102bc3f30a5040f2fd712de9f041f9
:101e7800461e8e423ed8a0f2ff36002e2edb332eb1
:101e88002adc254f4ff0ff31c6f1200ca0f21f408d
:101e9800f14027fa06fe07fa0cf2c74010ee104a86
:101ea80003ea0e08114323ea0e03394324ea010228
:101eb800214051ea08010dd0002b0bda4ff48014b1
:101ec80004fa0cf124fa00f024fa06f60143521839
:101ed80046eb030343ec102bbde8f081002a73f1b5
:101ee800000303db9fed080bbde8f0819fed080bb5
:101ef800bde8f0810028efd1024603f0004343ec2f
:101f0800102be9e7aff3008000000000000000009c
:0c1f1800000000000000f0bfffff0f0001
:020000040000fa
:020000040c00ee
:101f2400882910b536d012dc812943d003dc8029fe
:101f340040d0002010bd82290ed08429f9d119681f
:101f440002b30a1d1a60b1f90020d3171ee0a029bc
:101f54002bd00bdc9029ecd11968073121f0070153
:101f640001f108021a60d1e900230fe0c02901d071
:101f7400f029ded11a68111d19601368036000236b
:101f8400436005e00a1d1a600a880023c0e90023a3
:101f94000120cfe7196822b10a1d1a6091f90020c7
:101fa400d3e70a1d1a600a78efe71a68111d126850
:101fb4001960cae719681ab10a1d1a600a68c4e7e9
:0c1fc4000c1d1c600b68c0e90032e1e756
:020000040000fa
:020000040c00ee
:101fd0002de9f041d2e900230c4686b007465feabe
:101fe000d37820684968a5680590e66841d05242d8
:101ff00063eb4303002908db20f002000590b8f1f1
:10200000000f02d1059948072ad5691e05a802903c
:102010000a20cde90010204600f076f9b8f1000f53
:1020200002d1059b59071fd5b8f1000f00f1ff3011
:1020300014bf2d232b23335422693118059b013af9
:1020400000932b46121a384600f0a3f87b68db0594
:1020500003d563689842b8bf184606b0bde8f08162
:102060000807d2d42946d1e71a07e5d5013820233d
:08207000e1e70029c0dac5e731
:020000040000fa
:020000040c00ee
:102078001f4b01221a611f4ad36943f48033d3618d
:10208800d36813f4807ffbd01b4b0c229a64f02298
:102098005a640022da661a46936f13f0400ffbd198
:1020a800154a8823d364136c43f4206343f0020376
:1020b8001364136913f0807ffbd0104b104a1a6227
:1020c8001a46536813f0040ffbd10c4b0d4a5a62a1
:1020d8001a46536813f0080ffbd1084b4122c3f886
:1020e800e8201a46d2f8e83013f0400ffad07047cb
:1020f80000e000440080004400c0004400000144a7
:082108000601010006010200be
:020000040000fa
:020000040c00ee
:102110002de9ff4183690446466917464ff00208de
:102120006d46f61a00930392cde9016116444246ca
:102130002946206800f0d0fdb04209d1d4e902322e
:102140001a44c4e90533a262384604b0bde8f08100
:1021500000280dda62680023b8f1020f42f0100285
:10216000a362c4e90533626011d06b68ff1aebe724
:102170006b68361a984282bf0835c01a08f1ff38da
:102180002b6803442b606b68181a6860cfe71f4602
:02219000dae78c
:020000040000fa
:020000040c00ee
:102192002de9ff471d460c9b06468a4613f00109ae
:1021a200144601d195420bd822465146304600f0e2
:1021b200a2fca54204d82546284604b0bde8f08713
:1021c2002f1b20216846102f3a46b84628bf1022fe
:1021d20000f07dffb8f10f0f11d83b096ff00f022d
:1021e2006946304602fb037200f085fcb9f1000f2c
:1021f200e2d122465146304600f07dfcdce7102257
:0e22020069463046a8f1100800f075fce2e7ce
:020000040000fa
:020000040c00ee
:102210001c4ad36823f4e0631b041b0c43f0bf6328
:1022200043f40033d360bff35f8f62b6164be022f6
:1022300083f821230221596083f822230421596065
:1022400083f823230821596083f866234021d9604d
:1022500083f867238021d96083f868234ff4807165
:10226000d96083f869234ff40071d96083f86a2339
:102270004ff48061d96083f86b234ff40062da6019
:0c228000704700bf00ed00e000e100e04e
:020000040000fa
:020000040c00ee
:10228c00842910b523d00cdc812903d0822913d0ea
:10229c0080290bd119680c1d1c600b6803601a6037
:1022ac0013e0902921d003dc882917d0002010bd21
:1022bc00a029efd0c029ece719680c1d1c600b6835
:1022cc00d11703601046c3e900010120efe719683c
:1022dc000c1d1c600b6803601a80f6e719680c1d56
:1022ec001c600b6803601a70efe719680c1d1c600a
:0c22fc00d31709680160c1e90023e6e780
:020000040000fa
:020000040c00ee
:102308002de9f84f0c9f04461046194666680025cb
:102318003a680123d4f80cb0002e246902f0020aae
:102328000b9ab8bf0126013c90464feae2790bf8b8
:102338000450002c03dcd3b12046bde8f88f50eae6
:10234800010209d1721b002a06dc0a9a521b002ad4
:10235800f1ddbaf1000feed042464b4600f0d0fc5a
:10236800013c1346303201350bf80420e1e73b68a5
:0823780023f010033b60dfe7d6
:020000040000fa
:020000040c00ee
:10238000f8b5846a05460f46164654b1ab6a6a69c9
:102390009b1ab3420bd2324639462846fff7b8fea5
:1023a000f8bd00f03dfe0028f0d02046f8e7002ef2
:1023b000f1d095f93430002b1bdbdbb23446621ec2
:1023c000b95c994212d1224639462846fff7a0fe51
:1023d000a042e5d32744341b22463946686900f001
:1023e0004dfe6b6930461c446c61d9e71446002ae7
:0623f000e5d13446f0e7e0
:020000040000fa
:020000040c00ee
:1023f600f0b50c46496887b0064623680029a768e9
:1024060020460593a8bf23f00203e568a8bf0593fd
:1024160005ab02930823cde90073d2e90023fff749
:1024260070ff059bd90642bf00f1ff3030232b54c5
:10243600059b1a0742bf00f1ff3020232b542918b1
:102446002269059b013a00933b46121a3046fff774
:102456009dfe7368db0503d563689842b8bf1846ce
:0424660007b0f0bd0e
:020000040000fa
:020000040c00ee
:02246a00fee78b
:020000040000fa
:020000040c00ee
:10246c0068b310b40446184b1b7d53bb164b186055
:10247c00596001221a75154b1b7e13f0010f1ad0ef
:10248c00d9b100231148426802f00702012a14bf97
:10249c00e25c34f8132082620133027e12f0010fe9
:1024ac0001d09942efd8084a93600120074b9875e8
:1024bc005df8044b70470023f5e70b46f3e700206b
:1024cc0070470020f4e700bf7c0e00200020004580
:020000040000fa
:020000040c00ee
:1024dc0070b400eb4005174c04eb8504247a24bb44
:1024ec00144c04eb850401252572134d8600341819
:1024fc0005eb0414a166e266a26f92b242ea0342b3
:10250c000644a267300100f1894000f50050036dcc
:10251c0043f001030365436d13f47f0f08d1036d82
:10252c0043f480330365012000e0002070bc704749
:0c253c000120fbe7080400200020804480
:020000040000fa
:020000040c00ee
:1025480008b5124b9847124b9847eff3108172b6b3
:10255800104ad2f8883043f47003c2f88830bff3c9
:102568004f8fbff36f8f01b962b6fdf7bfff0a4bfc
:1025780023f07f03074a9360084b9847084b984716
:10258800084b9847fff790fbfee700bfbb29000cfc
:10259800bb29000c00ed00e0000000087126000ccb
:0825a800bb29000cbb29000c4b
:020000040000fa
:020000040c00ee
:1025b000144b0021144a70b5934206d3134a0025e8
:1025c000d2e9003123b919b970bd03f8011bf3e753
:1025d000946858180c3294b11446834208d111f013
:1025e000030318bf012303eb910102eb8102e7e72c
:1025f00014f8016b03f8016befe703f8015b83420a
:10260000fbd1dde70000002000000020ac13000c2f
:020000040000fa
:020000040c00ee
:102610007fb5c368154600910446002b18bf013ae8
:102620000e466946019282680068cde902230222c3
:1026300000f022fb002808dc00f0180383f00802f9
:1026400063681343636005460fe0019a8242fad241
:10265000a368801ae2681844e36320642ab15a1c14
:102660002e44e2631b7806f8013c284604b070bd96
:020000040000fa
:020000040c00ee
:1026700038b50e4a00230e4c13600e4a0e4d1360ff
:102680000e4a13600e4a13600e4a13600e4a5362dc
:1026900013610123936000f013fd00f090fbac4246
:1026a00000d338bd54f8043b9847f8e7c80e002023
:1026b0000c00000c380e00201000000c340e00201e
:0c26c0002c0e0020300e00203c0e0020ec
:020000040000fa
:020000040c00ee
:1026cc0020212223242425252626272728282828ac
:1026dc00292929292a2a2a2a2b2b2b2b2c2c2c2c46
:1026ec002c2c2c2c2d2d2d2d2d2d2d2d2e2e2e2e0e
:1026fc002e2e2e2e2f2f2f2f2f2f2f2f0001170284
:10270c001d1813031e1b190b1408040d1f161c1285
:0c271c001a0a070c1511090610050f0e13
:020000040000fa
:020000040c00ee
:1027280038b50d46044608b9002038bd43689b06f5
:1027380007d5d0e905239a4216d80023a362c4e935
:102748000533d4e90f13994204d20122c91a20682b
:1027580000f004fd0023c4e90f33002de4d0206805
:10276800bde8384000f0f3bc0022c36a1146984720
:0c2778006369002be1d14ff0ff30d6e781
:020000040000fa
:020000040c00ee
:1027840070b5d0e90245a54217d10122a1f1200379
:10279400c1f1200602fa03f322fa06f68a40334313
:1027a400d643db431ab10b490a6832400a605a1c0b
:1027b4001fbf084a51680b4053604368ac6043f044
:1027c400010223f00103e5604260c25842f00102b5
:0827d400c25070bd200c002072
:020000040000fa
:020000040c00ee
:1027dc002de9ff41134d064602acd1f80080286864
:1027ec00af88002a18bf144602901a46a879adf893
:1027fc000c708df80e00d1e901571bb9204600f082
:10280c0079fc0246002d02dbaa4228bf2a463b4631
:10281c002146cdf800803046fff7b5fc04b0bde88a
:08282c00f08100bf4831000cef
:020000040000fa
:020000040c00ee
:10283400f0b50c46496887b0054600292368a668a8
:1028440020460593a8bf23f00203e768a8bf0593b9
:1028540005ab02930a23cde90063d2e90023fff715
:1028640051fd2269059b3918013a00933346121a27
:102874002846fff78cfc6b68db0503d56368984238
:08288400b8bf184607b0f0bd13
:020000040000fa
:020000040c00ee
:10288c00114b124a1a604ff622029a814ff44032d1
:10289c005a601a46d369002bfcd10b4a136843f0db
:1028ac0002031360d369002bfcd1094b00229a61ff
:1028bc00da611a6283f82c205a621a605a609a60a4
:1028cc001a75da60da857047002000450401104063
:0428dc007c0e00204e
:020000040000fa
:020000040c00ee
:1028e000022a70b5044616461d461ad043689b0658
:1028f00017d441b9002d08bf4ff4806505f10800d9
:10290000fef73cfe01466368012e43f0200363603e
:1029100014bfff230a2384f83430034bc4e90215a3
:0c292000e362002070bd00bf8123000caa
:020000040000fa
:020000040c00ee
:10292c00c1f30a5340f21e42d21a0edd202a0ad8f5
:10293c00cb0243ea505040f00040d04090eae170a6
:10294c00b0ebe1707047002070474b00004218bf9d
:10295c0043f0010313f5001f88bf21f0004111f073
:0a296c00004058bf6ff000407047b4
:020000040000fa
:020000040c00ee
:1029760010b5027803460130202afad0a2f10901e7
:102986000429f6d92b2a07d02d2a11d1012101338a
:10299600013b00200a2403e00021f8e76043801a87
:1029a60013f8012f303a092af8d901b9404210bd6f
:0429b6000021ede728
:020000040000fa
:020000040c00ee
:0229ba00704764
:020000040000fa
:020000040c00ee
:1029bc0010b5054c227832b9044b13b1044800e031
:1029cc0000bf0123237010bdac0e002000000000de
:1029dc000000000008b5034b1bb10349034800e09d
:1029ec0000bf08bd00000000b00e00200000000079
:020000040000fa
:020000040c00ee
:1029fc00b8b138b505460c4a92f82c200ab1002023
:102a0c0038bd0c4600f01af9074b9d61dc610022c1
:102a1c001a62012083f82c00da85044b84229a7503
:102a2c00eee70020704700bf7c0e00200020004520
:020000040000fa
:020000040c00ee
:102a3c0008b50d4b1b680021186800f033fb0b4bdd
:102a4c001b680021186800f02dfb00f086f9fff7d9
:102a5c000dfbfff730f800f0eff900f01bfbfff770
:102a6c000ffffff7cffb08bddc0e0020c00f0020ce
:020000040000fa
:020000040c00ee
:102a7c000c4a036810b5546a591e0b4a121b8a4241
:102a8c000ad22bb1094b0c224ff0ff301a6010bd4b
:102a9c00102202600020fae7173323f00f030360c3
:102aac00f8e700bf3c0e0020efffff7fcc0e0020ac
:020000040000fa
:020000040c00ee
:102abc004ff4001c1ceb410f98bf1ceb430f11d8bb
:102acc0051ea030c50ea4c0c5cea020c0cd004d218
:102adc0082428b4180410130704790429941804144
:0c2aec0001307047002070470120704747
:020000040000fa
:020000040c00ee
:102af80038b543680446154613f4807f10d003693f
:102b080040699a4228bf1d462a4600f0b3fa626916
:102b18005319636123695b1b23610023535538bd37
:0a2b2800db06fcd400f084faf9e7a4
:020000040000fa
:020000040c00ee
:022b3200fee7bc
:020000040000fa
:020000040c00ee
:102b340000090138202813d9b0f5007f05d2094bcc
:102b440003ebd00010f8040c7047b0f5e05f06d832
:102b5400044b03ebd01010f8040c103070473f20e6
:082b6400704700bfcc26000cf5
:020000040000fa
:020000040c00ee
:102b6c0000230c4a30b512f8134024b902eb43038e
:102b7c005b78184630bd01680d78a54209bf02eba1
:102b8c004303013301315b7814bfdbb201600a2bc4
:082b9c00e9d9eee70430000c5a
:020000040000fa
:020000040c00ee
:102ba4004ff4001c1ceb410f98bf1ceb430f11d8d2
:102bb40051ea030c50ea4c0c5cea020c0ad004d231
:102bc40082428b418041404270479042994180410a
:082bd4004042704700207047e9
:020000040000fa
:020000040c00ee
:102bdc004ff4001c1ceb410f98bf1ceb430f11d89a
:102bec0051ea030c50ea4c0c5cea020c0ad004d2f9
:102bfc009042994180414042704782428b418041d2
:082c0c004042704700207047b0
:020000040000fa
:020000040c00ee
:102c14004ff4001c1ceb410f98bf1ceb430f0cd866
:102c240050ea410c08bf52ea430c08d0904208bf56
:102c340099420cbf012000207047002070470120fa
:022c44007047d7
:020000040000fa
:020000040c00ee
:022c4600fee7a7
:020000040000fa
:020000040c00ee
:102c48000a4b5b8b13f0070f0ed0084b80221a76c5
:102c580007225a831b7e13f0040f05d0034b9a6a90
:102c68001a7e12f0040ffad1704700bf0020004509
:020000040000fa
:020000040c00ee
:102c78002de9f843002580460e4617462c4601f1fb
:102c88000409bc4202db2846bde8f88359f8342021
:102c9800404656f83410013400f068f90544f0e76e
:020000040000fa
:020000040c00ee
:102ca80070b505462c68e30701d500200fe02046e3
:102cb800fff73cff064600f049f92868a042f1d129
:102cc80020f001003146281afff758fd012070bd99
:020000040000fa
:020000040c00ee
:102cd8002de9f843002580460e4617462c4601f19b
:102ce8000409bc4202db2846bde8f88359f83420c1
:102cf800404656f83410013400f056f90544f0e720
:020000040000fa
:020000040c00ee
:102d080053b94ab9002908bf00281cbf4ff0ff314a
:102d18004ff0ff3000f020baadf1080c6de904ce99
:102d2800fdf7b8ffddf804e0dde9022304b07047e1
:020000040000fa
:020000040c00ee
:102d3800426822f00102531a102b30b40dd94418fe
:102d480041f0010543f0010345506360835045603d
:0e2d580004f1080030bcfef7b1be30bc70477d
:020000040000fa
:020000040c00ee
:102d66004ff08943012283f8582083f85920222204
:102d760083f83c204ff48012c3f88021c3f89021d9
:0c2d8600002283f8d42183f8ba217047a2
:020000040000fa
:020000040c00ee
:102d920070b505466c68e30701d500200de02046ba
:102da200fff7c7fe064600f0d4f86b68a342f1d1e4
:0c2db20028463146fff7e5fc012070bd0b
:020000040000fa
:020000040c00ee
:022dbe0070475c
:020000040000fa
:020000040c00ee
:102dc00000b583b053ec112b51ec100b8ded002ba3
:102dd000fef752fd9ded002b53ec122bfef7bcf8d5
:0c2de00041ec100b03b05df804fb00bfd9
:020000040000fa
:020000040c00ee
:102dec00074b0246196809b9064919601868064963
:102dfc0002448a4294bf1a604ff0ff30704700bf04
:0c2e0c00d00e0020c80f0020c8110020cc
:020000040000fa
:020000040c00ee
:102e1800802910db812901dd83290cd11368073350
:102e280023f0070303f108011160d3e90023c0e987
:0a2e380000230120704700207047be
:020000040000fa
:020000040c00ee
:022e42007047d7
:020000040000fa
:020000040c00ee
:102e4400074b00221a605a601a72064b4ff0005268
:102e54005a6501229a6708221a6602221a6070478c
:082e6400080400200020804456
:020000040000fa
:020000040c00ee
:102e6c0000b583b000230193064b1b6a0193019bb1
:102e7c0013f0010f02d103b05df804fb0020fef744
:082e8c0087fff8e700208044f5
:020000040000fa
:020000040c00ee
:102e940000b583b000230193064bdb690193019bca
:102ea40013f0010f02d103b05df804fb0020fef71c
:082eb40073fff8e700208044e1
:020000040000fa
:020000040c00ee
:102ebc0000b583b000230193064b9b690193019be2
:102ecc0013f0010f02d103b05df804fb0020fef7f4
:082edc005ffff8e700208044cd
:020000040000fa
:020000040c00ee
:102ee40090f948305a1e1343426880f8483012f073
:102ef400040317bf42f01002c0e90f3342604ff0e1
:082f0400ff3008bf18467047ba
:020000040000fa
:020000040c00ee
:102f0c0010f0010f03d0054b01221a70704710f01e
:102f1c00020f02d0024b01221a707047d40e00200f
:042f2c00d50e00209e
:020000040000fa
:020000040c00ee
:102f30000fb4074b07b504aa1b6852f8041b1868a6
:102f4000019200f051f803b05df804eb04b0704753
:042f5000c00f00208e
:020000040000fa
:020000040c00ee
:102f5400064b013053f830203ab9c100a1f1080200
:102f640019441a444a6043f830207047200c00206a
:020000040000fa
:020000040c00ee
:102f740038b550b952b10c46012529462046fff711
:0e2f84003bfd0028f9d0012000e0002038bd00
:020000040000fa
:020000040c00ee
:022f9200704786
:020000040000fa
:020000040c00ee
:102f940030b4054b4400251843f8251003eb850392
:0c2fa4005a6030bc704700bf08040020d9
:020000040000fa
:020000040c00ee
:102fb00038b50d461446012801d0204638bd2146bb
:0c2fc0002846fff753fa0028f9d0f6e786
:020000040000fa
:020000040c00ee
:102fcc0030b501390024a24206d0035d01340d5df9
:0c2fdc00ab42f8d0581b00e0002030bdd4
:020000040000fa
:020000040c00ee
:102fe80013b50446019201aafdf7dafc636813f0f1
:0c2ff800100f18bf4ff0ff3002b010bdea
:020000040000fa
:020000040c00ee
:1030040068076c094c836a9074a07ac00080688851
:0c30140000846c820081286e696c290029
:020000040000fa
:020000040c00ee
:1030200010b50446fff75eff28b9a368e268c4e95b
:0830300005331344a36210bd37
:020000040000fa
:020000040c00ee
:1030380010b4c46a1cb123465df8044b18470068f5
:083048005df8044bfff7b0bf77
:020000040000fa
:020000040c00ee
:103050000068002808b501da002008bdfff7c6fea9
:06306000431cfad1f8e761
:020000040000fa
:020000040c00ee
:1030680008b500f065f8024b1860586008bd00bf4d
:04307800140400201c
:020000040000fa
:020000040c00ee
:10307c00002310b59a4200d110bdcc5cc45401336e
:02308c00f8e763
:020000040000fa
:020000040c00ee
:10308e00034611f8012b184603f8012b002af8d13c
:02309e00704779
:020000040000fa
:020000040c00ee
:1030a000024b04221a725a72704700bf006000443b
:020000040000fa
:020000040c00ee
:1030b00000294ff480630cbf02220022fff710bcee
:020000040000fa
:020000040c00ee
:1030c00008b5fff7d1fffff7bcfefff7bafe08bd5a
:020000040000fa
:020000040c00ee
:1030d00002440346934200d1704703f8011bf9e70d
:020000040000fa
:020000040c00ee
:1030e000494e4600696e66004e414e006e616e00ac
:1030f000494e4600696e66004e414e006e616e009c
:020000040000fa
:020000040c00ee
:1031000003461a46013311780029fad1101a704784
:020000040000fa
:020000040c00ee
:0e311000a0f14103192b98bf40f0200070473a
:020000040000fa
:020000040c00ee
:0e311e00a0f16103192b98bf00f05f0070470d
:020000040000fa
:020000040c00ee
:0c312c0010b50446fff7adff204610bdb3
:020000040000fa
:020000040c00ee
:0831380000487047440f00201d
:020000040000fa
:020000040c00ee
:0831400083f00043fdf708bf16
:020000040000fa
:020000040c00ee
:07314800286e756c6c290074
:020000040000fa
:020000040c00ee
:063150000068fff72dbf2f
:020000040000fa
:020000040c00ee
:063156004ff0ff3070474e
:020000040000fa
:020000040c00ee
:04315c000020704798
:020000040000fa
:020000040c00ee
:04316000704700bff5
:020000040000fa
:020000040c00ee
:043164000020704790
:00000001FF
