:020000040000fa
:020000040800f2
:10000000f00f0000c921000c831a000cc721000c5e
:100010007b28000c7b28000c7b28000c7b28000c24
:100020000000000000000000000000007b28000c21
:100030007b28000c000000007b28000c7b28000cb3
:100040007b28000c7b28000c7b28000c7b28000cf4
:100050007b28000c7b28000c7b28000c7b28000ce4
:100060007b28000c7b28000c7b28000c7b28000cd4
:10007000292c000c7b28000c7b28000c7b28000c12
:100080007b28000c7b28000c7b28000c7b28000cb4
:100090007b28000c7b28000c7b28000c7b28000ca4
:1000a0007b28000c7b28000c7b28000c7b28000c94
:1000b0007b28000c7b28000c7b28000c7b28000c84
:020000040000fa
:020000040a00f0
:040000000100fefffe
:020000040000fa
:020000040a00f0
:040004000100fefffa
:020000040000fa
:020000040a00f0
:040008000100fefff6
:020000040000fa
:020000040a00f0
:04000c000100fefff2
:020000040000fa
:020000040a00f0
:040010000100feffee
:020000040000fa
:020000040a00f0
:040014000100feffea
:020000040000fa
:020000040a00f0
:040018000100feffe6
:020000040000fa
:020000040a00f0
:04001c000100feffe2
:020000040000fa
:020000040a00f0
:04002000ffffffffe0
:020000040000fa
:020000040a00f0
:04002400ffffffffdc
:020000040000fa
:020000040a00f0
:04002800ffffffffd8
:020000040000fa
:020000040a00f0
:04002c00ffffffffd4
:020000040000fa
:020000040a00f0
:04003000ffffffffd0
:020000040000fa
:020000040a00f0
:04003400ffffffffcc
:020000040000fa
:020000040a00f0
:04003800ffffffffc8
:020000040000fa
:020000040a00f0
:04003c00ffffffffc4
:020000040000fa
:020000040a00f0
:0400400000000000bc
:020000040000fa
:020000040a00f0
:04004400ffffffffbc
:020000040000fa
:020000040a00f0
:0400480007000000ad
:020000040000fa
:020000040a00f0
:04004c00ff050000ac
:020000040000fa
:020000040a00f0
:040054000f0f00008a
:020000040000fa
:020000040a00f0
:040058007000000034
:020000040000fa
:020000040a00f0
:04005c00020000009e
:020000040000fa
:020000040a00f0
:04006000000000009c
:020000040000fa
:020000040a00f0
:040064000202000094
:020000040000fa
:020000040a00f0
:040068000000000094
:020000040000fa
:020000040a00f0
:04006c000000000090
:020000040000fa
:020000040a00f0
:04007000000000008c
:020000040000fa
:020000040a00f0
:040074000000000088
:020000040000fa
:020000040a00f0
:040078000000000084
:020000040000fa
:020000040a00f0
:04007c000000000080
:020000040000fa
:020000040a00f0
:04008000ffffffff80
:020000040000fa
:020000040a00f0
:0400a000ffffffff60
:020000040000fa
:020000040a00f0
:04200000000000c01c
:020000040000fa
:020000040a00f0
:042004000100feffda
:020000040000fa
:020000040a00f0
:04200800ffffffffd8
:020000040000fa
:020000040a00f0
:04202000ffffffffc0
:020000040000fa
:020000040a00f0
:04202400ffffffffbc
:020000040000fa
:020000040a00f0
:04202800ffffffffb8
:020000040000fa
:020000040a00f0
:04202c00ffffffffb4
:020000040000fa
:020000040a00f0
:04203000ffffffffb0
:020000040000fa
:020000040a00f0
:04203400ffffffffac
:020000040000fa
:020000040a00f0
:04203800ffffffffa8
:020000040000fa
:020000040a00f0
:04203c00ffffffffa4
:020000040000fa
:020000040a00f0
:04204000ffffffffa0
:020000040000fa
:020000040a00f0
:04204400ffffffff9c
:020000040000fa
:020000040a00f0
:04204800ffffffff98
:020000040000fa
:020000040a00f0
:04204c00ffffffff94
:020000040000fa
:020000040a00f0
:04205000ffffffff90
:020000040000fa
:020000040a00f0
:04205400ffffffff8c
:020000040000fa
:020000040a00f0
:04205800ffffffff88
:020000040000fa
:020000040a00f0
:04205c00ffffffff84
:020000040000fa
:020000040a00f0
:04206000ffffffff80
:020000040000fa
:020000040a00f0
:04206400ffffffff7c
:020000040000fa
:020000040a00f0
:04206800ffffffff78
:020000040000fa
:020000040a00f0
:04206c00ffffffff74
:020000040000fa
:020000040a00f0
:04207000ffffffff70
:020000040000fa
:020000040a00f0
:04207400ffffffff6c
:020000040000fa
:020000040a00f0
:04207800ffffffff68
:020000040000fa
:020000040a00f0
:04207c00ffffffff64
:020000040000fa
:020000040a00f0
:04208000ffffffff60
:020000040000fa
:020000040a00f0
:04208400ffffffff5c
:020000040000fa
:020000040a00f0
:04208800ffffffff58
:020000040000fa
:020000040a00f0
:04208c00ffffffff54
:020000040000fa
:020000040a00f0
:04209000ffffffff50
:020000040000fa
:020000040a00f0
:04209400ffffffff4c
:020000040000fa
:020000040a00f0
:04209800ffffffff48
:020000040000fa
:020000040a00f0
:04209c00ffffffff44
:020000040000fa
:020000040a00f0
:0420a000ffffffff40
:020000040000fa
:020000040a00f0
:0420a400ffffffff3c
:020000040000fa
:020000040a00f0
:0420a800ffffffff38
:020000040000fa
:020000040a00f0
:0420ac00ffffffff34
:020000040000fa
:020000040a00f0
:0420b000ffffffff30
:020000040000fa
:020000040a00f0
:0420b400ffffffff2c
:020000040000fa
:020000040a00f0
:0420b800ffffffff28
:020000040000fa
:020000040a00f0
:0420bc00ffffffff24
:020000040000fa
:020000040a00f0
:0420c000ffffffff20
:020000040000fa
:020000040a00f0
:0420c400ffffffff1c
:020000040000fa
:020000040a00f0
:0420c800ffffffff18
:020000040000fa
:020000040a00f0
:0420cc00ffffffff14
:020000040000fa
:020000040a00f0
:0420d000ffffffff10
:020000040000fa
:020000040a00f0
:0420d400ffffffff0c
:020000040000fa
:020000040a00f0
:0420d800ffffffff08
:020000040000fa
:020000040a00f0
:0420dc00ffffffff04
:020000040000fa
:020000040a00f0
:0420e00006070000ef
:020000040000fa
:020000040a00f0
:0420e40004cf0f0016
:020000040000fa
:020000040a00f0
:0420e80036f70707b9
:020000040000fa
:020000040a00f0
:0420ec00863a000030
:020000040000fa
:020000040a00f0
:0420f000ff030000ea
:020000040000fa
:020000040a00f0
:0420f4003f000000a9
:020000040000fa
:020000040a00f0
:0420f800bf00000025
:020000040000fa
:020000040a00f0
:0420fc00ffffffffe4
:020000040000fa
:020000040a00f0
:04210000ffffffffdf
:020000040000fa
:020000040a00f0
:04211000ffffffffcf
:020000040000fa
:020000040a00f0
:04211400ffffffffcb
:020000040000fa
:020000040a00f0
:04211800ffffffffc7
:020000040000fa
:020000040a00f0
:04211c00ffffffffc3
:020000040000fa
:020000040a00f0
:04212000ffffffffbf
:020000040000fa
:020000040a00f0
:04400000db000000e1
:020000040000fa
:020000040a00f0
:048000000000ffff7e
:020000040000fa
:020000040a00f0
:048004000000ffff7a
:020000040000fa
:020000040a00f0
:048008000000ffff76
:020000040000fa
:020000040a00f0
:04800c000000ffff72
:020000040000fa
:020000040a00f0
:048010000000ffff6e
:020000040000fa
:020000040a00f0
:048014000000ffff6a
:020000040000fa
:020000040a00f0
:048018000000ffff66
:020000040000fa
:020000040a00f0
:04801c000000ffff62
:020000040000fa
:020000040a00f0
:04802000ffffffff60
:020000040000fa
:020000040a00f0
:04802400ffffffff5c
:020000040000fa
:020000040a00f0
:04802800ffffffff58
:020000040000fa
:020000040a00f0
:04802c00ffffffff54
:020000040000fa
:020000040a00f0
:04803000ffffffff50
:020000040000fa
:020000040a00f0
:04803400ffffffff4c
:020000040000fa
:020000040a00f0
:04803800ffffffff48
:020000040000fa
:020000040a00f0
:04803c00ffffffff44
:020000040000fa
:020000040a00f0
:0480400044000000f8
:020000040000fa
:020000040a00f0
:04804400ffffffff3c
:020000040000fa
:020000040a00f0
:04804800070000002d
:020000040000fa
:020000040a00f0
:04804c00ff0500002c
:020000040000fa
:020000040a00f0
:048054000f0f00000a
:020000040000fa
:020000040a00f0
:0480580070000000b4
:020000040000fa
:020000040a00f0
:04805c00020000001e
:020000040000fa
:020000040a00f0
:04806000000000001c
:020000040000fa
:020000040a00f0
:048064000202000014
:020000040000fa
:020000040a00f0
:048068000000000014
:020000040000fa
:020000040a00f0
:04806c000000000010
:020000040000fa
:020000040a00f0
:04807000000000000c
:020000040000fa
:020000040a00f0
:048074000000000008
:020000040000fa
:020000040a00f0
:048078000000000004
:020000040000fa
:020000040a00f0
:04807c000000000000
:020000040000fa
:020000040a00f0
:04808000ffffffff00
:020000040000fa
:020000040a00f0
:0480a000ffffffffe0
:020000040000fa
:020000040a00f0
:04a00000000000c09c
:020000040000fa
:020000040a00f0
:04a004000000ffff5a
:020000040000fa
:020000040a00f0
:04a00800ffffffff58
:020000040000fa
:020000040a00f0
:04a02000ffffffff40
:020000040000fa
:020000040a00f0
:04a02400ffffffff3c
:020000040000fa
:020000040a00f0
:04a02800ffffffff38
:020000040000fa
:020000040a00f0
:04a02c00ffffffff34
:020000040000fa
:020000040a00f0
:04a03000ffffffff30
:020000040000fa
:020000040a00f0
:04a03400ffffffff2c
:020000040000fa
:020000040a00f0
:04a03800ffffffff28
:020000040000fa
:020000040a00f0
:04a03c00ffffffff24
:020000040000fa
:020000040a00f0
:04a04000ffffffff20
:020000040000fa
:020000040a00f0
:04a04400ffffffff1c
:020000040000fa
:020000040a00f0
:04a04800ffffffff18
:020000040000fa
:020000040a00f0
:04a04c00ffffffff14
:020000040000fa
:020000040a00f0
:04a05000ffffffff10
:020000040000fa
:020000040a00f0
:04a05400ffffffff0c
:020000040000fa
:020000040a00f0
:04a05800ffffffff08
:020000040000fa
:020000040a00f0
:04a05c00ffffffff04
:020000040000fa
:020000040a00f0
:04a06000ffffffff00
:020000040000fa
:020000040a00f0
:04a06400fffffffffc
:020000040000fa
:020000040a00f0
:04a06800fffffffff8
:020000040000fa
:020000040a00f0
:04a06c00fffffffff4
:020000040000fa
:020000040a00f0
:04a07000fffffffff0
:020000040000fa
:020000040a00f0
:04a07400ffffffffec
:020000040000fa
:020000040a00f0
:04a07800ffffffffe8
:020000040000fa
:020000040a00f0
:04a07c00ffffffffe4
:020000040000fa
:020000040a00f0
:04a08000ffffffffe0
:020000040000fa
:020000040a00f0
:04a08400ffffffffdc
:020000040000fa
:020000040a00f0
:04a08800ffffffffd8
:020000040000fa
:020000040a00f0
:04a08c00ffffffffd4
:020000040000fa
:020000040a00f0
:04a09000ffffffffd0
:020000040000fa
:020000040a00f0
:04a09400ffffffffcc
:020000040000fa
:020000040a00f0
:04a09800ffffffffc8
:020000040000fa
:020000040a00f0
:04a09c00ffffffffc4
:020000040000fa
:020000040a00f0
:04a0a000ffffffffc0
:020000040000fa
:020000040a00f0
:04a0a400ffffffffbc
:020000040000fa
:020000040a00f0
:04a0a800ffffffffb8
:020000040000fa
:020000040a00f0
:04a0ac00ffffffffb4
:020000040000fa
:020000040a00f0
:04a0b000ffffffffb0
:020000040000fa
:020000040a00f0
:04a0b400ffffffffac
:020000040000fa
:020000040a00f0
:04a0b800ffffffffa8
:020000040000fa
:020000040a00f0
:04a0bc00ffffffffa4
:020000040000fa
:020000040a00f0
:04a0c000ffffffffa0
:020000040000fa
:020000040a00f0
:04a0c400ffffffff9c
:020000040000fa
:020000040a00f0
:04a0c800ffffffff98
:020000040000fa
:020000040a00f0
:04a0cc00ffffffff94
:020000040000fa
:020000040a00f0
:04a0d000ffffffff90
:020000040000fa
:020000040a00f0
:04a0d400ffffffff8c
:020000040000fa
:020000040a00f0
:04a0d800ffffffff88
:020000040000fa
:020000040a00f0
:04a0dc00ffffffff84
:020000040000fa
:020000040a00f0
:04a0e000060700006f
:020000040000fa
:020000040a00f0
:04a0e40004cf0f0096
:020000040000fa
:020000040a00f0
:04a0e80036f7070739
:020000040000fa
:020000040a00f0
:04a0ec00863a0000b0
:020000040000fa
:020000040a00f0
:04a0f000ff0300006a
:020000040000fa
:020000040a00f0
:04a0f4003f00000029
:020000040000fa
:020000040a00f0
:04a0f800bf000000a5
:020000040000fa
:020000040a00f0
:04a0fc00ffffffff64
:020000040000fa
:020000040a00f0
:04a10000ffffffff5f
:020000040000fa
:020000040a00f0
:04a11000ffffffff4f
:020000040000fa
:020000040a00f0
:04a11400ffffffff4b
:020000040000fa
:020000040a00f0
:04a11800ffffffff47
:020000040000fa
:020000040a00f0
:04a11c00ffffffff43
:020000040000fa
:020000040a00f0
:04a12000ffffffff3f
:020000040000fa
:020000040c00ee
:10000000f8b500bff8bc08bc9e467047a927000c95
:10001000f8b500bff8bc08bc9e4670478527000ca9
:020000040000fa
:020000040c00ee
:080020007c0c0000010000004f
:020000040000fa
:020000040c00ee
:100028002de9f04f2ded028b97b0cd68cde90c137b
:100038008b680f9008930b69d2e90089d1e900b663
:100048001493002200234046494602f067fc40b959
:100058001bf0040f32d11bf00803059330d0202386
:1000680003e089f0004399462d232b70089b03f188
:10007800ff3a0123059329f000434b4900208b42a6
:1000880008bf80451fd10d9b413b192b059b2b4475
:1000980094bf46494649184602f0f2fe284602f047
:1000a800d3fe089b02462946cdf800b00f9801f010
:1000b80058ff17b0bdec028bbde8f08f2b23d4e7b7
:1000c800ddf820a0d7e7994208bf404509d20d9b2b
:1000d800413b192b059b2b4494bf3649364918469a
:1000e800dae7002200234046494602f081fc9fedf2
:1000f8002c7b8ded027b48b300240d9802f0acfefa
:10010800002ec3b20993c0f2eb81672b5ad1002e9f
:1001180008bf0126231d02dbb442c0f2cd8165274a
:1001280061e09ded067b01348ded027b0022234bbf
:10013800dde9020101f07cfb42464b46cde90601b0
:1001480002f0d0fb0028ecd000271fe00446ede7c2
:1001580014f5967f11da87b90022194b40464946b3
:10016800012701f065fb002280468946144bdde932
:10017800020101f05dfbcde90201013c00220f4bb9
:10018800dde9020101f003f8cde90201dde902230e
:100198004046494602f0c2fb0028d9d1ade700bf6e
:1001a800000000000000f03f0000f07f402e000c2f
:1001b800442e000c482e000c4c2e000c000024404d
:1001c80000005043099f662f06f101060bd1002c51
:1001d80004da00249fedbc7b8ded027b099b672b25
:1001e80018bf3619662700239ded027bcde90689e5
:1001f8000e938ded0a7bdde90a23dde9060100f0a7
:10020800c6ff41ec100b01f017fdb0ee408af0ee8e
:10021800608a51ec100b02f025fa069bb0ee480af2
:10022800f0ee680a15901093079b83f00043119332
:100238009ded0a1b9ded102b02f0b0fc8ded060a1a
:1002480053ec102b83f0004300220793a24bdde907
:100258000a0100f09cff0e9b01339e420e93cde9ec
:100268000a01c8d100229d4b01f0e2fa02460b4672
:10027800cde90a01dde9060102f050fb002840f053
:100288008880dde90a23dde9060102f0b1fb10b13f
:10029800159bda077dd540464946dde90a2300f07b
:1002a80057fe00228c4bcde90601dde9020101f081
:1002b800bffadde90623cde90a0102f09ffa00281a
:1002c8006cd0662f04f101046cd10136a146a9eb6c
:1002d80006034ff00008059e10930bf01003cdf8ad
:1002e80008801593109b994540f08680029b002b4f
:1002f80000f0cc800022652f05eb0600aa552cd112
:10030800149b9442149903f1ff33b8bf6442c1f1be
:10031800030e4ff00a01ea54b8bf0122002c40f046
:10032800bc800eeb030cbcf1000f00f3b680002a72
:1003380003f1ff31a3f10203aaf1020a14bf2d222f
:100348002b226a54e9180d9a413a192a98bf452771
:100358009e42ef5401da02f093fd0bf00303022be7
:100368007ff49caebaf1000f7ff798ae284602f0f2
:100378006bfd05eb0a03059a824240f39980059bc1
:10038800524630212b44184602f046fd00230893bc
:1003980084e69fed4f7b8ded0a7b7ce79ded027b2c
:1003a8008ded0a7b652f14bfa1464ff000098ee73b
:1003b800029a52b9b9f1000f07da2e220e990136c6
:1003c8000af1ff3a6a540122029205eb0801aa19c0
:1003d800314403e04ff0300002f8010b9142f9d1ab
:1003e80008eb06023033aaeb0808561cab5408f198
:1003f800ff3a4ff0000827e00c9b0e961b69053b5f
:10040800b3427ff673afdde90a23dde9060100f0a8
:10041800befe41ec100b01f00ffcb0ee408af0ee8e
:10042800608a51ec100b02f01df9159a0928034651
:10043800a8bf09230243bbd1099a672ab8d1b9f1e9
:10044800000fc2da08f10108069bb0ee480af0ee88
:10045800680a09f1ff391293079b83f0004313934d
:100468009ded0a1b9ded122b02f098fb8ded060aff
:1004780053ec102b83f0004300220793164bdde961
:100488000a0100f084fecde90a012be71bf0100fea
:100498001ebf2e23ab5501362ce7b4fbf1fc01fb44
:1004a8001c44013b0af1ff3a3034ec54644635e70a
:1004b8002a5c1a5401385ee7002cbff693ae662713
:1004c80081e6062626e600bf000000000000f03f97
:1004d800000000000000000000002440000014405c
:0c04e800099b672bedd01f4606266ce632
:020000040000fa
:020000040c00ee
:0404f40001f0febe57
:020000040000fa
:020000040c00ee
:1004f8002de9f04f95b0cc68cde912030b6808934d
:100508004b680a938b6892ed007b099300220b6974
:1005180051ec170b0d9300238ded047b02f0fef9cf
:1005280040b9089b580733d4089b13f0080731d00b
:10053800202306e0dde9042181f00043cde904230e
:100548002d2323700127099b5a1edff8f4b24ff0c0
:10055800000adde9040323f00041594508bf50456e
:100568001ad1139be019413b192b94bfae49af49ef
:1005780002f086fcad4802f067fc089b0246214663
:100588000093099b129801f0ecfc15b0bde8f08fc0
:100598002b23d6e7099ad8e78b45139b08bf8245da
:1005a800a3f141030b9309d2192b04eb070094bf65
:1005b8009f49a04902f064fc9e48dce730217b1c7f
:1005c800e15502370b991a2934bf58217821e15493
:1005d800931e002207930023dde9040102f008fac4
:1005e800002800f0788100269fed8d7b8ded027b41
:1005f8000a9b0025002bdde90289b8bf1823dde935
:1006080004ab0e9342464b465046594600f0bffd98
:1006180041ec100b01f010fb42464b4651ec100b1d
:100628008ded100b01f004f902460b465046594671
:1006380002f030fc804b82468b46404649460022f9
:1006480001f0f6f86b1c804689460c930a9b002b38
:1006580006da002200235046594602f0c9f928b9a3
:100668000e9bab4200f33d8101330c930022734b88
:100678004046494601f0dcf88046894602460b466a
:100688005046594602f04af9002840f02c8142466b
:100698004b465046594602f0abf930b1dde910013e
:1006a80001f0e0ffc10740f11e8142464b46dde9fb
:1006b800040100f04dfccde90401dde9042100202e
:1006c80021f000435e498b4208bf82423ff449afa4
:1006d8004ff000083d46c246c1460d9bab46053b60
:1006e800ab4233d9dde90223dde9040100f04ffd17
:1006f80041ec100b01f0a0fa51ec100b8ded0e0b34
:1007080001f0b0ff002840f0f380b9f1000f00f0cd
:10071800ef8008f1010809f10109dde90223dde9ab
:100728000e0101f085f802460b46dde9040102f0ee
:10073800b1fb414b0022cde90401dde9020101f0e2
:1007480077f80c9b4b45cde90201c6d1baf1000ff1
:100758001dd1b8f1000f00f012810a9b002b40f365
:100768000e81089bda0700f10a812e2308eb0502a7
:10077800302163552244631903f8011f9a42fbd1c3
:100788004544079b6fea0808013543440793002254
:100798000d9b0d996019964203f1ff336255c1f123
:1007a800020ee254bcbf764201224ff00a08002e26
:1007b80040f0d5800eeb030cbcf1010f00f0cf80a8
:1007c800002a03f1ff31a3f1020314bf2d222b22cb
:1007d8006254e1180b9a1a2a34bf502270229d42a3
:1007e800e25401da02f04cfb089b03f00303022bee
:1007f80014d1079ba3f10208b8f1000f0edd2046c3
:1008080002f022fb04eb0803b84280f2b4804246af
:100818003021e01902f000fb002309932046aae6e4
:10082800000000000000f03f302e000c342e000cb9
:10083800382e000c3c2e000c0000b03f0000204079
:100848000000f07f0136cde90289dde90223104678
:10085800194600f07dfb8046894602460b46dde9d5
:10086800040102f05bf80028ecd04ff0000adff832
:1008780028b14ff00008dff82491dde90223dde913
:10088800040102f04bf800283ff4b2ae52465b4632
:10089800dde9020100f0ccff0022002302f0a8f8f5
:1008a80078b142464b46dde9020100f0c1ff4246fd
:1008b8004b46cde90201dde9040100f0b9ffcde9bd
:1008c8000401dde9020152465b4600f0b1ff013e3a
:1008d800cde90201d1e79fed2e7b06468ded027b27
:1008e800b3e70c9d8ee64ff000084ff00009dce6f8
:1008f800baf1000f0bd1b9f1000f08d02e23013542
:100908004ff0010a04f80b30079b013b079304ebf7
:10091800080362192b4403e04ff0300102f8011b71
:100928009a42f9d1079b092805eb080ba3eb0808a5
:100938000b9bd4bf30305730192b06d840f020031a
:10094800613b192b01d802f08efa08f1ff330bf145
:10095800010504f80b004ff000080793dbe6b6fb2f
:10096800f8fc079908fb1c66013b30360139e65450
:10097800664607911be7225c1a54013844e7089b36
:10098800db067ff504af2e2363550135ffe600bf74
:10099800000000000000f03f0000e03f000050436e
:020000040000fa
:020000040c00ee
:1009a8002de9f04f0027adb006461546b8464ff082
:1009b800ff39dff8dca2039103990b78002b00f0d4
:1009c800f9800cab0024cdf824800a938023cde96c
:1009d80007890b930b5d0bb1252b26d134b1224629
:1009e800304601f029ff039b23440393039b1a78a5
:1009f800252a40f0d78003f1010bcdf80cb00398fd
:100a080003782b2b1ad025d8202b1bd0232b1dd0b5
:100a18002a2b27d001f090fe0990039b1a78303ad0
:100a2800092a2ed801330393f7e70134d2e7079b4d
:100a380043f00103013007930390e0e7079b43f07d
:100a48000403f7e7079b43f00803f3e7079b43f02a
:100a58001003efe72d2bead0302bd9d1079b43f0b9
:100a68000203e7e72b6801301a1d1b680390002b6f
:100a78002a60099305da079a5b4282f0010209931a
:100a88000792079bda0744bf23f002030793039bef
:100a98001a782e2a0dd1581ccdf8208003905a7848
:100aa8002a2a25d1023303932b681a1d1b682a6052
:100ab800089303a801f0fafe039b0190187802f04e
:100ac800cbf96928019979d032dc632800f0c68017
:100ad80019dc252800f0d080612853d02523cdf8d3
:100ae8000cb0cdf81c808df81030cde90898c0e026
:100af80001f022fe0890039b1a78303a092ad8d8c8
:100b080001330393f7e7642858d06728e6dc2a46c0
:100b180004a802f06ff8002800f09c80039b07a946
:100b280030465a1c039204aa1b78fff779fa38e07a
:100b3800702873d015dc6e2800f087806f28cdd11f
:100b48002b46002204a801f0d5f8002800f0828086
:100b5800039b04aa07a930460133039301f0f5fa71
:100b68001fe075283ad0782848d07328b6d1802954
:100b780070d1039b2a6801330393131d2b60002354
:100b880012685be02a4604a802f034f8002861d015
:100b9800039b07a930465a1c039204aa1b78fff747
:100ba800a7fc04443c44a7426edd384b4f224ff06b
:100bb800ff371a6038462db0bde8f08f2b4601226a
:100bc80004a801f097f8002844d0039b04aa07a9b9
:100bd80030460133039301f0e3f8e2e72b460022a5
:100be80004a801f087f8002834d0039b04aa07a9b9
:100bf80030460133039301f0bbfcd2e72b460022b9
:100c080004a801f077f828b3039b5a1c03921b78b9
:100c180004aa07a9304600f0a3fec2e72b4600222b
:100c2800f02104a801f066f8a0b1039b01330393f7
:100c3800dde90423134306d10023524607a93046b1
:100c480001f06afcade77823e2e72b463a1904a8dd
:100c580001f0c6f9039b01330393a3e78029f9d177
:100c6800039b013303932b681a1d1b682a608df8b8
:100c78001030012304aae1e78029ebd1039b8df80a
:100c8800100001330393f4e7274695e69c0600001d
:040c9800502d000ccf
:020000040000fa
:020000040c00ee
:100c9c002de9f04f099f154604468e461e46002b43
:100cac0040f0cc808a42b2fa82fc4cd9bcf1000fe5
:100cbc000bd0ccf1200801fa0cfe02fa0cf500fa6c
:100ccc000cf420fa08f848ea0e0e4fea15491ffa00
:100cdc0085f8210cbefbf9fa09fb1ae30afb08fba9
:100cec0041ea03439b452ad9eb180af1ff3004d2a1
:100cfc009b4502d9aaf102002b44a3eb0b03a4b22f
:100d0c00b3fbf9f209fb123302fb08f844ea034483
:100d1c00a04516d92c1902f1ff3303d2a04501d9f5
:100d2c00931e2c44a4eb080443ea004027b124fa98
:100d3c000cf400233c607b603146bde8f08f5046dc
:100d4c00dbe71346eee702b9ffdebcf1000f2ed154
:100d5c008b1a01264fea154eaab2210cb3fbfef8f2
:100d6c000efb183308fb02f941ea0343994561d99c
:100d7c00eb1808f1ff3004d2994502d9a8f1020012
:100d8c002b44a3eb0903a4b2b3fbfef10efb11330e
:100d9c004a4344ea0344a2424ed92c1901f1ff33d1
:100dac0003d2a24201d98b1e2c44a41abce702fa2e
:100dbc000cf5ccf1200e01fa0cf300fa0cf421fa2c
:100dcc000ef94fea154820fa0efeb9fbf8f14eea7f
:100ddc00030308fb11921ffa85fe180c01fb0ef69b
:100dec0040ea0242964221d9aa1801f1ff3003d2ff
:100dfc00964201d9881e2a44921b9bb2b2fbf8f989
:100e0c0008fb192209fb0efe43ea02439e450fd94b
:100e1c00eb1809f1ff3604d29e4502d9a9f102065e
:100e2c002b44a3eb0e0346ea004693e70846e3e7a0
:100e3c004e46f6e74046a4e70b46b6e78b4206d98a
:100e4c00002f7ed00026c7e90001304674e7b3fac4
:100e5c0083fcbcf1000f0fd18b4201d3824209d825
:100e6c00841a61eb030e0120002f6dd0c7e9004ef0
:100e7c00002661e76046f7e7ccf1200e03fa0cf38d
:100e8c0000fa0cf622fa0ef521fa0ef402fa0cf224
:100e9c001d4301fa0cf320fa0ef14fea154a0b43ed
:100eac001ffa85f8b4fbfaf90afb19401c0c09fb74
:100ebc0008f144ea0044a1423fd92c1909f1ff3052
:100ecc0004d2a14202d9a9f102002c44641a9bb2ab
:100edc00b4fbfaf90afb194409fb08f843ea04418c
:100eec0088452cd9691809f1ff3304d2884502d9f9
:100efc00a9f10203294443ea0040a1eb0801a0fb3d
:100f0c0002894945c2464c4602d306d1464504d215
:100f1c000138b8eb020a69eb0504afb1b6eb0a0372
:100f2c0061eb040606fa0efe23fa0cf326fa0cf615
:100f3c004eea0303c7e900369ae74846c6e74b4634
:0c0f4c00d9e73e463846f7e63e46f5e69b
:020000040000fa
:020000040c00ee
:100f580030b591ea030f00f18280841a71eb030c1b
:100f680005d2121953eb0c03001b71eb0c0140f274
:100f7800000ccff6e07c1cea430f52d0bceb410fcb
:100f88005fd90c0da4eb135e5ff0010c6cf31f51dd
:100f98006cf31f53def1200c2ad303fa0cf5401929
:100fa80041f1000122fa0ef5401923fa0ef56941c4
:100fb80012fa0cf2cd0208d349085fea30005fea62
:100fc800320228bf42f001020134013c5fea500cb2
:100fd80072f1004250f1000051eb04514ff400133c
:100fe80013eb410f38bf30bd6ff31301002030bd44
:100ff800bef1200ebef1200f1ed223fa0ef54019c5
:1010080041f10001cef1200c124218bf012203fa6f
:101018000cf52a43cee711ea5c0f04bf002000213b
:1010280030bd1cea410f04bf01f00041002030bd73
:1010380001f00041002030bd21f4801101eb045182
:1010480030bd004218bf41f00101bceb410f08bfa1
:1010580030bd4ff0fe4141f47801002030bd83f0ef
:101068000043841a71eb030e07d28ef0004e001b6a
:1010780071eb0e01121953eb0e0340f2000ccff680
:10108800e07c1cea430fc6d0bceb410f72d90c0db3
:10109800a4eb135ec90241ea5051c00241f000417d
:1010a800db0243ea5253d20243f00043def1200c44
:1010b80041d312fa0cf522fa0ef203fa0cf542eac1
:1010c800050218bf42f0010223fa0ef3801a994173
:1010d800e30ac4f30a0411f0404f03d418d0013cca
:1010e80040004941013c23d44205c00a40ea41502e
:1010f800c90a51eac3715fea500c72f1004250f11b
:10110800000051eb045130bd01002fd00020203cdd
:101118000029f9d0b1fa81fcdcf1200e11fa0cf1aa
:1011280030fa0ef510fa0cf02943a4eb0c04d9e7b9
:101138000020d90730bdaef1200ebef1200f0dd230
:10114800cef1200c03fa0cf533fa0ef32a4318bf3c
:1011580043f00103c01a61f10001b9e721f0004131
:10116800c00a40ea4150c90a01eb045130bd0020d1
:10117800002130bd004218bf41f00101bceb410f16
:0e1188007ff467afbceb430f3ff463af30bda5
:020000040000fa
:020000040c00ee
:10119600f0b581ea030e0ef0004e40f20007cff6de
:1011a600e07717ea41051ebf95ea070f17ea4304e1
:1011b60094ea070f00f0c5806d0da5eb545707f5af
:1011c60080674ff0004646eac12444ea5054c00204
:1011d60046eac32343ea5253d202801a9c4104d200
:1011e6000018644180185c41013f5b084fea3202f7
:1011f6000025002140f001004ff0070604e0801aa8
:101206009c4136d340416441801a9c4136d34041cb
:101216006441801a9c4136d340416441801a9c4106
:1012260036d340416441801a9c4136d340416441e3
:10123600013e17d0801a9c4136d340416441801a42
:101246009c4136d340416441801a9c4136d340418b
:101256006441090201eb156190ea052520f0ff00c3
:101266004540cce7801a9c4156d335e080185c4156
:10127600c8d20018644180185c41c8d20018644185
:1012860080185c41c8d20018644180185c41c8d2fd
:101296000018644180185c41c8d200186441013ec0
:1012a60017d080185c41c8d20018644180185c4190
:1012b600c8d20018644180185c41c8d20018644145
:1012c600090201eb156190ea052520f0ff00454073
:1012d600cce780185c411fd3420918bf44f00104d3
:1012e600490101ebd56100f01f0000eb451021f428
:1012f600801141ea0e01013041f10001244208bf8c
:1013060020f00100b7f5006f3eda013f49dd01eb41
:101316000751bde8f0407047490101ebd56100f087
:101326001f0000eb451021f4801141ea0e01b7f5cc
:10133600006f29da013f34dd01eb0751bde8f040cb
:101346007047004218bf41f00101124218bf43f036
:101356000103b7eb410f2cbfb7eb430f1ce0b7eb14
:10136600410f04bfb7eb430f16e017ea410f04bf66
:1013760017ea430f10e017ea410f12d017ea430f9e
:1013860002d0b7eb430f0cd04ef0fe4141f4700192
:101396000020bde8f04070474ff0fe4141f478016f
:0613a600f6e77146f4e7d2
:020000040000fa
:020000040c00ee
:1013ac002de9f04f87b0039003a801f005fa00284f
:1013bc0003da002007b0bde8f08f039b1b095d1e0c
:1013cc00202d0fd9023b5f4ab3f5007f35bf02ebee
:1013dc00d30302ebd31313f8045c13f8045c34bf8f
:1013ec00013511350123a5f12001c5f1200203fac5
:1013fc0001f903fa05f823fa02f2d8f1000849ead8
:10140c00020969eb4909cde90089dff84481dff86d
:10141c00349147460099d8e9002302ea010a019960
:10142c0003ea010b5aea0b0343d1039b05a81033c3
:10143c00059301f0affc18b9434b0c221a60b9e7c5
:10144c00d8f80852a84206d0059b00f11005103bb5
:10145c00059301238360059b0121b5f1080405eb7d
:10146c00030243f0010342f8041c42f8083cc7f89d
:10147c00082245f8043c9cd0204601f001fb88b1c1
:10148c0055f8083c55f8041c23f00103e31a5a687c
:10149c0022f001020a445a6055f8041c21f00101a3
:1014ac0062501c462046039901f032fb04f10800ff
:1014bc0080e75446254bbaf1000f34d1cbf1000034
:1014cc0000ea0b00434309ebd36393f83c602036ee
:1014dc00304601f0f1fb731c57f8334007ebc303a4
:1014ec00083b9c4296d0272e26dd0235ae4201dc0d
:1014fc003f2e21d16268039922f00102551a284629
:10150c0001f0b6f9864217d1e0686318a668d86076
:10151c009e6083609868c36041f0010060505d601c
:10152c00a5506060bee7caf100002040434309ebc0
:10153c00d36393f83c60cbe73146204600f0beff06
:10154c00b0e700bf1024000c9c06000029e66b07d6
:04155c00080400007f
:020000040000fa
:020000040c00ee
:10156000640600001c00000000000000a40600004b
:101570000100000000000000800600000c000000d8
:1015800000000000940600000400000000000000bd
:10159000140600005000000000000000a806000033
:1015a0006c00000001000000b4060000b00600005e
:1015b000b406000000000000250000000800000044
:1015c0000004000000000000000000000000000017
:1015d000000000000000000000000000000000000b
:1015e000000000003d1c000c000000000000000096
:1015f00000000000000000005523000c0000000067
:1016000000000000000000000000000000000000da
:1016100000000000000000000804000000000000be
:10162000740700002000000001000000010000001d
:1016300003000000000000000000000000000000a7
:1016400000000000000000008c0600008c06000076
:1016500008000000000000009806000004000000e0
:1016600000000000080400000c0200000000000060
:1016700014070000600000000100000001000000ed
:101680000300000000000000000000000000000057
:1016900000000000000000006d24000c00000000ad
:1016a0000000000000000000ad2e000c572d000cc3
:1016b000000000000000000000000000000000002a
:1016c000000000000000000000000000000000001a
:1016d0000000000000000000000000009c06000068
:1016e0000400000000000000a0060000040000004c
:1016f00000000000000000000000000044444444da
:020000040000fa
:020000040c00ee
:101700000a0d506f70756c6174696e672054524198
:101710004d3a2d000a0d5452414d20726567697390
:101720007465722025642076616c75653a2d2020e1
:10173000202030782530386c780000000a0d545293
:10174000414d207265676973746572202564207647
:10175000616c75653a2d20202030782530386c7802
:10176000000000000a0d2d2d2d2d2d2d2d2d2d2da0
:101770002d2d2d2d2d2d2d2d2d2d2d2d2d2d2d2d99
:101780002d2d2d2d2d2d2d2d2d2d2d2d2d2d2d2d89
:101790002d2d2d2d2d2d2d2d2d2d2d2d2d2d2d00a6
:1017a0000a0d202020202020202020202020202062
:1017b0002020202020205452414d2054616d70651e
:1017c000722044656d6f20202020202020202020c2
:1017d00020202020202020000a0d2d2d2d2d2d2d04
:1017e0002d2d2d2d2d2d2d2d2d2d2d2d2d2d2d2d29
:1017f0002d2d2d2d2d2d2d2d2d2d2d2d2d2d2d2d19
:101800002d2d2d2d2d2d2d2d2d2d2d2d2d2d2d2d08
:101810002d2d2d0a0d0000000a0d54616d706572aa
:101820002044657465637465642021212121212190
:0818300021212120000000bf6e
:020000040000fa
:020000040c00ee
:10183800f0b540f2ff7681ea030c16ea115e1ebf8e
:10184800b64516ea1355b54252d021ea465141f43d
:101858008011a1fb024723ea465343f48013ae44a8
:10186800a0fb03650cf0004c36197d41a1fb034732
:1018780047f10003a0fb0217f619654153f1000375
:10188800094218bf46f0010640f2fe74b3f5007f26
:1018980013d2aef5806ea64523d24cea0331280355
:1018a80041ea155140ea16503203450872f10042e8
:1018b80050f1000051eb0e51f0bdaef2ff3ea645cf
:1018c8000fd24ceac321e80241ea555140ea56508a
:1018d800f202450872f1004250f1000051eb0e513e
:1018e800f0bd1eea0e0f2dd50cf000410020f0bd12
:1018f80016ea115f04bf01f000410020004218bf42
:1019080041f0010116ea135f04bf03f0004300220f
:10191800124218bf43f0010306ea1354b44218bf39
:10192800b64503d00cf000410020f0bd21f0004185
:1019380023f00043b1eb065f0cd8b3eb065f09d880
:1019480041b13bb10cf0004141f0fe4141f470015e
:101958000020f0bd40f20001c7f6f8710020f0bd8c
:020000040000fa
:020000040c00ee
:101968002de9f04fd1e901590e688bb0002d0f46d3
:101978000393acbf26f002060125029016f010036f
:10198800d1f80c800493d2e900ab37d05aea0b03a4
:1019980034d0a9f1020316f008013c69059104f15d
:1019a800ff344ff0000118bf03f1ff3308f80410ab
:1019b80006f002015b1b069103994139012c1fdcdb
:1019c800049b002b4bd1059b1bb1013c202308f83d
:1019d80004303a694b46009608eb0401013a029834
:1019e800121b00f0befa029b5b68db0503d57b681f
:1019f8009842b8bf18460bb0bde8f08f4b46cae70f
:101a08005aea0b0007d1002d05dc58190028d7dd4c
:101a180006980028d4d00af00f00013c0928d4bf4a
:101a28003030573019290ed840f0200cacf1610c39
:101a3800bcf1190f07d80792cde9083101f013fa64
:101a4800079adde9083108f804004fea1a104fea4e
:101a58001b1c013d40ea0b70e3468246aee7d2e923
:101a680000231343afd008eb0403039a023c03f8a6
:0a1a7800012c302308f80430a5e724
:020000040000fa
:020000040c00ee
:021a8200fee77d
:020000040000fa
:020000040c00ee
:101a84002de9f84300286ad050f8043ca0f108047a
:101a940023f00106a259a719934200d0ffde7a6809
:101aa40023681340da070fd4204600f0edff002826
:101ab40057d1384601f05ef80028f0d07b6823f057
:101ac40001031e441f44eae746f001033046636005
:101ad4003b6000f0d1fe054601f0f2f823687a6815
:101ae4001340db07e0d5dff88ce0c5f1200ca5f14d
:101af400200201210023dee9008928fa05f009fa11
:101b04000cfc29fa02f240ea0c00104300ea01023c
:101b1400c5f1200013437346a5f1200212d121fa26
:101b240000f001fa02f2a94042ea00021ebfdef808
:101b340000000143cef8001022b1def804100a437d
:101b4400cef80420681c66603e6003ebc003a3f17a
:101b54000802a2605a68e2605c60e3689c60bde8c9
:101b6400f883236823f00103e41a636823f0010374
:081b74001e449ee70804000076
:020000040000fa
:020000040c00ee
:101b7c002de9f843002000f0bbfd0025284b1d701b
:101b8c00284c04f1640001f085f804f1a00001f088
:101b9c0081f804f1d80001f07df800f043fb2946f0
:101bac00214801f065f901f0d1f8dff874901f4e6f
:101bbc00a04604f13c071be004f5806356f8232093
:101bcc00214608f1140001f065f80134e5b2092d45
:101bdc00f2d904f5806356f823202146384601f0eb
:101bec0059f80135edb21e2defd9002389f80030dc
:101bfc0099f80030002bfbd0746914f00104fbd170
:101c0c0001f020f808f16405284601f043f808f5c6
:101c1c008c7001f03ff8284601f03cf8d6e700bf85
:101c2c00a40600000017000c4d2b000c00e0014432
:020000040000fa
:020000040c00ee
:041c3c0000207047cd
:020000040000fa
:020000040c00ee
:101c400053ec102bc3f30a5040f2fd712de9f04123
:101c5000461e8e423ed8a0f2ff36002e2edb332edb
:101c60002adc254f4ff0ff31c6f1200ca0f21f40b7
:101c7000f14027fa06fe07fa0cf2c74010ee104ab0
:101c800003ea0e08114323ea0e03394324ea010252
:101c9000214051ea08010dd0002b0bda4ff48014db
:101ca00004fa0cf124fa00f024fa06f60143521863
:101cb00046eb030343ec102bbde8f081002a73f1df
:101cc000000303db9fed080bbde8f0819fed080bdf
:101cd000bde8f0810028efd1024603f0004343ec59
:101ce000102be9e7aff300800000000000000000c7
:0c1cf000000000000000f0bfffff0f002c
:020000040000fa
:020000040c00ee
:101cfc00882910b536d012dc812943d003dc802929
:101d0c0040d0002010bd82290ed08429f9d1196849
:101d1c0002b30a1d1a60b1f90020d3171ee0a029e6
:101d2c002bd00bdc9029ecd11968073121f007017d
:101d3c0001f108021a60d1e900230fe0c02901d09b
:101d4c00f029ded11a68111d196013680360002395
:101d5c00436005e00a1d1a600a880023c0e90023cd
:101d6c000120cfe7196822b10a1d1a6091f90020f1
:101d7c00d3e70a1d1a600a78efe71a68111d12687a
:101d8c001960cae719681ab10a1d1a600a68c4e713
:0c1d9c000c1d1c600b68c0e90032e1e780
:020000040000fa
:020000040c00ee
:101da8002de9f041d2e900230c4686b007465feae8
:101db800d37820684968a5680590e66841d0524202
:101dc80063eb4303002908db20f002000590b8f11b
:101dd800000f02d1059948072ad5691e05a8029067
:101de8000a20cde90010204600f038f9b8f1000fbc
:101df80002d1059b59071fd5b8f1000f00f1ff303c
:101e080014bf2d232b23335422693118059b013a23
:101e180000932b46121a384600f0a3f87b68db05be
:101e280003d563689842b8bf184606b0bde8f0818c
:101e38000807d2d42946d1e71a07e5d50138202367
:081e4800e1e70029c0dac5e75b
:020000040000fa
:020000040c00ee
:101e50001f4b01221a611f4ad36943f48033d361b7
:101e6000d36813f4807ffbd01b4b0c229a64f022c2
:101e70005a640022da661a46936f13f0400ffbd1c2
:101e8000154a8823d364136c43f4206343f00203a0
:101e90001364136913f0807ffbd0104b104a1a6251
:101ea0001a46536813f0040ffbd10c4b0d4a5a62cb
:101eb0001a46536813f0080ffbd1084b4122c3f8b0
:101ec000e8201a46d2f8e83013f0400ffad07047f5
:101ed00000e000440080004400c0004400000144d1
:081ee0000601010006010200e9
:020000040000fa
:020000040c00ee
:101ee8002de9ff4183690446466917464ff0020809
:101ef8006d46f61a00930392cde9016116444246f5
:101f08002946206800f0d6fdb04209d1d4e9023252
:101f18001a44c4e90533a262384604b0bde8f0812a
:101f280000280dda62680023b8f1020f42f01002af
:101f3800a362c4e90533626011d06b68ff1aebe74e
:101f48006b68361a984282bf0835c01a08f1ff3804
:101f58002b6803442b606b68181a6860cfe71f462c
:021f6800dae7b6
:020000040000fa
:020000040c00ee
:101f6a002de9ff471d460c9b06468a4613f00109d8
:101f7a00144601d195420bd822465146304600f00c
:101f8a005afca54204d82546284604b0bde8f08785
:101f9a002f1b20216846102f3a46b84628bf102228
:101faa0000f039ffb8f10f0f11d83b096ff00f029b
:101fba006946304602fb037200f03dfcb9f1000f9e
:101fca00e2d122465146304600f035fcdce71022c9
:0e1fda0069463046a8f1100800f02dfce2e741
:020000040000fa
:020000040c00ee
:101fe800842910b523d00cdc812903d0822913d091
:101ff80080290bd119680c1d1c600b6803601a60de
:1020080013e0902921d003dc882917d0002010bdc7
:10201800a029efd0c029ece719680c1d1c600b68db
:10202800d11703601046c3e900010120efe71968e2
:102038000c1d1c600b6803601a80f6e719680c1dfc
:102048001c600b6803601a70efe719680c1d1c60b0
:0c205800d31709680160c1e90023e6e726
:020000040000fa
:020000040c00ee
:102064002de9f84f0c9f0446104619466668002572
:102074003a680123d4f80cb0002e246902f0020a55
:102084000b9ab8bf0126013c90464feae2790bf85f
:102094000450002c03dcd3b12046bde8f88f50ea8d
:1020a400010209d1721b002a06dc0a9a521b002a7b
:1020b400f1ddbaf1000feed042464b4600f014fdbc
:1020c400013c1346303201350bf80420e1e73b684c
:0820d40023f010033b60dfe77d
:020000040000fa
:020000040c00ee
:1020dc00f8b5846a05460f46164654b1ab6a6a6970
:1020ec009b1ab3420bd2324639462846fff7f6fe0e
:1020fc00f8bd00f037fe0028f0d02046f8e7002e9f
:10210c00f1d095f93430002b1bdbdbb23446621e68
:10211c00b95c994212d1224639462846fff7defeb9
:10212c00a042e5d32744341b22463946686900f0a7
:10213c0047fe6b6930461c446c61d9e71446002a93
:06214c00e5d13446f0e786
:020000040000fa
:020000040c00ee
:10215200f0b50c46496887b0064623680029a7688f
:1021620020460593a8bf23f00203e568a8bf0593a4
:1021720005ab02930823cde90073d2e90023fff7f0
:1021820070ff059bd90642bf00f1ff3030232b546c
:10219200059b1a0742bf00f1ff3020232b54291858
:1021a2002269059b013a00933b46121a3046fff71b
:1021b200dbfe7368db0503d563689842b8bf184637
:0421c20007b0f0bdb5
:020000040000fa
:020000040c00ee
:0221c600fee732
:020000040000fa
:020000040c00ee
:1021c80008b5124b9847124b9847eff3108172b637
:1021d800104ad2f8883043f47003c2f88830bff34d
:1021e8004f8fbff36f8f01b962b6fef77ff90a4bc5
:1021f80023f07f03074a9360084b9847084b98479a
:10220800084b9847fff7b6fcfee700bf2b2a000ce7
:102218002b2a000c00ed00e000000008b523000c9c
:082228002b2a000c2b2a000cec
:020000040000fa
:020000040c00ee
:102230002de9f041164800f033fd00240126dff8b7
:10224000508008f13c0708e002f5805212682146f0
:1022500008f1140000f024fd013406fa04f1c9432a
:10226000a30003f1884303f5f03203f5f833196056
:10227000e5b2092de8d902f58052126821463846a8
:1022800000f00efd0135edb21e2de5d9bde8f0815f
:042290000017000c27
:020000040000fa
:020000040c00ee
:10229400154b01221a801a46136913f0010ffbd162
:1022a400114b4ff4c0625a80104a1a664ff401422f
:1022b4001a801a46136913f4004ffbd10a4b00220b
:1022c4001a621a46136913f0200ffbd1064b002241
:1022d4005a621a46136913f0400ffbd1024b4ff4b4
:1022e40080425a81704700bf0080014400200040b2
:020000040000fa
:020000040c00ee
:1022f400144b0021144a70b5934206d3134a0025a7
:10230400d2e9003123b919b970bd03f8011bf3e711
:10231400946858180c3294b11446834208d111f0d1
:10232400030318bf012303eb910102eb8102e7e7ea
:1023340014f8016b03f8016befe703f8015b8342c8
:10234400fbd1dde700000000000000006015000c78
:020000040000fa
:020000040c00ee
:102354007fb5c368154600910446002b18bf013aa7
:102364000e466946019282680068cde90223022282
:1023740000f072fb002808dc00f0180383f0080268
:1023840063681343636005460fe0019a8242fad200
:10239400a368801ae2681844e36320642ab15a1cd3
:1023a4002e44e2631b7806f8013c284604b070bd55
:020000040000fa
:020000040c00ee
:1023b40038b50e4a00230e4c13600e4a0e4d1360be
:1023c4000e4a13600e4a13600e4a13600e4a53629b
:1023d40013610123936000f019fd00f0b4fbac42db
:1023e40000d338bd54f8043b9847f8e7980600003a
:1023f4000c00000c200600001000000c1c0600005d
:0c2404001406000018060000240600006a
:020000040000fa
:020000040c00ee
:10241000202122232424252526262727282828286a
:10242000292929292a2a2a2a2b2b2b2b2c2c2c2c04
:102430002c2c2c2c2d2d2d2d2d2d2d2d2e2e2e2ecc
:102440002e2e2e2e2f2f2f2f2f2f2f2f0001170242
:102450001d1813031e1b190b1408040d1f161c1244
:0c2460001a0a070c1511090610050f0ed2
:020000040000fa
:020000040c00ee
:10246c0038b50d46044608b9002038bd43689b06b4
:10247c0007d5d0e905239a4216d80023a362c4e9f4
:10248c000533d4e90f13994204d20122c91a2068ea
:10249c0000f00efd0023c4e90f33002de4d02068ba
:1024ac00bde8384000f0ffbc0022c36a11469847d3
:0c24bc006369002be1d14ff0ff30d6e740
:020000040000fa
:020000040c00ee
:1024c80070b5d0e90245a54217d10122a1f1200338
:1024d800c1f1200602fa03f322fa06f68a403343d2
:1024e800d643db431ab10b490a6832400a605a1cca
:1024f8001fbf084a51680b4053604368ac6043f003
:10250800010223f00103e5604260c25842f0010273
:08251800c25070bd0804000070
:020000040000fa
:020000040c00ee
:102520002de9ff41134d064602acd1f80080286822
:10253000af88002a18bf144602901a46a879adf851
:102540000c708df80e00d1e901571bb9204600f040
:102550007ffc0246002d02dbaa4228bf2a463b46ea
:102560002146cdf800803046fff7fffc04b0bde8ff
:08257000f08100bfa42e000c55
:020000040000fa
:020000040c00ee
:10257800f0b50c46496887b0054600292368a66867
:1025880020460593a8bf23f00203e768a8bf059378
:1025980005ab02930a23cde90063d2e90023fff7d4
:1025a8005dfd2269059b3918013a00933346121ada
:1025b8002846fff7d6fc6b68db0503d563689842ad
:0825c800b8bf184607b0f0bdd2
:020000040000fa
:020000040c00ee
:1025d00010b370b506460d4600f028fad5b10024b8
:1025e0000e4a137e13f0040ffbd0538b13f0070f2a
:1025f0000bd1536803f00703012b936a14bf3355c3
:1026000026f814300134a542ebd1a54214bf0020b6
:10261000012070bd2c46f8e70020704700200045df
:020000040000fa
:020000040c00ee
:10262000022a70b5044616461d461ad043689b061a
:1026300017d441b9002d08bf4ff4806505f108009b
:10264000fef7b4fe01466368012e43f02003636089
:1026500014bfff230a2384f83430034bc4e9021566
:0c266000e362002070bd00bfdd20000c14
:020000040000fa
:020000040c00ee
:10266c00c1f30a5340f21e42d21a0edd202a0ad8b8
:10267c00cb0243ea505040f00040d04090eae17069
:10268c00b0ebe1707047002070474b00004218bf60
:10269c0043f0010313f5001f88bf21f0004111f036
:0a26ac00004058bf6ff00040704777
:020000040000fa
:020000040c00ee
:0226b60070476b
:020000040000fa
:020000040c00ee
:1026b800d0b110b40446c9b1084421460c4a64425a
:1026c800137e13f0010ffbd0536803f00703012baf
:1026d80014bf0b7834f81130936201318142efd185
:1026e80001205df8044b7047002070470120f8e78f
:0426f8000020004579
:020000040000fa
:020000040c00ee
:1026fc0008b50e4b1b680021186800f07bfb0c4bd7
:10270c001b680021186800f075fb00f03bf9fff71f
:10271c0099fbfff7caff00f095fa00f063fb00f09d
:10272c0017f9fff7b1fd00f047f908bdac06000042
:04273c009007000002
:020000040000fa
:020000040c00ee
:1027400010b5027803460130202afad0a2f109011f
:102750000429f6d92b2a07d02d2a11d101210133c2
:10276000013b00200a2403e00021f8e76043801abf
:1027700013f8012f303a092af8d901b9404210bda7
:042780000021ede760
:020000040000fa
:020000040c00ee
:1027840010b5054c227832b9044b13b1044800e06b
:1027940000bf0123237010bd640600000000000088
:1027a4000000000008b5034b1bb10349034800e0d7
:1027b40000bf08bd00000000680600000000000023
:020000040000fa
:020000040c00ee
:1027c4000c4a036810b5546a591e0b4a121b8a42fc
:1027d4000ad22bb1094b0c224ff0ff301a6010bd06
:1027e400102202600020fae7173323f00f0303607e
:1027f400f8e700bf24060000efffff7f9c060000ff
:020000040000fa
:020000040c00ee
:102804004ff4001c1ceb410f98bf1ceb430f11d875
:1028140051ea030c50ea4c0c5cea020c0cd004d2d2
:1028240082428b41804101307047904299418041fe
:0c28340001307047002070470120704701
:020000040000fa
:020000040c00ee
:1028400038b543680446154613f4807f10d00369f9
:1028500040699a4228bf1d462a4600f0b7fa6269cd
:102860005319636123695b1b23610023535538bdf2
:0a287000db06fcd400f088faf9e75b
:020000040000fa
:020000040c00ee
:02287a00fee777
:020000040000fa
:020000040c00ee
:10287c0000090138202813d9b0f5007f05d2094b87
:10288c0003ebd00010f8040c7047b0f5e05f06d8ed
:10289c00044b03ebd01010f8040c103070473f20a1
:0828ac00704700bf1024000c6e
:020000040000fa
:020000040c00ee
:1028b40000230c4a30b512f8134024b902eb430349
:1028c4005b78184630bd01680d78a54209bf02eb5c
:1028d4004303013301315b7814bfdbb201600a2b7f
:0828e400e9d9eee73a2d000ce2
:020000040000fa
:020000040c00ee
:1028ec004ff4001c1ceb410f98bf1ceb430f11d88d
:1028fc0051ea030c50ea4c0c5cea020c0ad004d2ec
:10290c0082428b41804140427047904299418041c4
:08291c004042704700207047a3
:020000040000fa
:020000040c00ee
:102924004ff4001c1ceb410f98bf1ceb430f11d854
:1029340051ea030c50ea4c0c5cea020c0ad004d2b3
:102944009042994180414042704782428b4180418c
:0829540040427047002070476b
:020000040000fa
:020000040c00ee
:10295c000a4b0b4a1a604ff622029a814ff440320e
:10296c005a601a46d369002bfcd1044a136843f011
:10297c0002031360d369002bfcd170470020004583
:04298c0004011040f2
:020000040000fa
:020000040c00ee
:102990004ff08943012283f8582083f859202221df
:1029a00083f83c1083f8d620002283f8bb204ff434
:1029b0008011c3f88011c3f8901183f8d42183f8f3
:0429c000ba21704781
:020000040000fa
:020000040c00ee
:1029c4000a4ad36823f4e0631b041b0c43f0bf637f
:1029d40043f40033d360bff35f8f62b6044be0224d
:1029e40083f80c234ff480521a60704700ed00e026
:0429f40000e100e01e
:020000040000fa
:020000040c00ee
:1029f8004ff4001c1ceb410f98bf1ceb430f0cd885
:102a080050ea410c08bf52ea430c08d0904208bf74
:102a180099420cbf01200020704700207047012018
:022a28007047f5
:020000040000fa
:020000040c00ee
:022a2a007047f3
:020000040000fa
:020000040c00ee
:102a2c000a4b5b8b13f0070f0ed0084b80221a76e3
:102a3c0007225a831b7e13f0040f05d0034b9a6aae
:102a4c001a7e12f0040ffad1704700bf0020004527
:020000040000fa
:020000040c00ee
:102a5c002de9f843002580460e4617462c4601f119
:102a6c000409bc4202db2846bde8f88359f834203f
:102a7c00404656f83410013400f02ef90544f0e7c6
:020000040000fa
:020000040c00ee
:102a8c0070b505462c68e30701d500200fe0204601
:102a9c00fff7eefe064600f00ff92868a042f1d1d0
:102aac0020f001003146281afff708fd012070bd07
:020000040000fa
:020000040c00ee
:102abc002de9f843002580460e4617462c4601f1b9
:102acc000409bc4202db2846bde8f88359f83420df
:102adc00404656f83410013400f00df90544f0e787
:020000040000fa
:020000040c00ee
:102aec0053b94ab9002908bf00281cbf4ff0ff3169
:102afc004ff0ff3000f0dab9adf1080c6de904ceff
:102b0c00fef7c6f8ddf804e0dde9022304b07047f7
:020000040000fa
:020000040c00ee
:102b1c00426822f00102531a102b30b40dd944181c
:102b2c0041f0010543f0010345506360835045605b
:0e2b3c0004f1080030bcfef79fbf30bc7047ac
:020000040000fa
:020000040c00ee
:022b4a007047d2
:020000040000fa
:020000040c00ee
:102b4c0010f4804f0bd0064b01221a70054b064a2d
:102b5c009a664ff089434ff48012c3f89c2170475a
:0c2b6c00a406000000800144ff0000806f
:020000040000fa
:020000040c00ee
:102b780070b505466c68e30701d500200de02046d6
:102b8800fff778fe064600f099f86b68a342f1d18a
:0c2b980028463146fff794fc012070bd78
:020000040000fa
:020000040c00ee
:102ba40000b583b053ec112b51ec100b8ded002bc1
:102bb400fef740fe9ded002b53ec122bfef7caf9f5
:0c2bc40041ec100b03b05df804fb00bff7
:020000040000fa
:020000040c00ee
:102bd000074b0246196809b9064919601868064981
:102be00002448a4294bf1a604ff0ff30704700bf22
:0c2bf000a00600009807000098090000f3
:020000040000fa
:020000040c00ee
:102bfc00802910db812901dd83290cd1136807336f
:102c0c0023f0070303f108011160d3e90023c0e9a5
:0a2c1c0000230120704700207047dc
:020000040000fa
:020000040c00ee
:022c26007047f5
:020000040000fa
:020000040c00ee
:102c280008b5074b988980b2064a50604cf2ff31cc
:102c380099819b8913680bb19168984708bd00bfbb
:082c4800008001448006000039
:020000040000fa
:020000040c00ee
:102c5000084b01221a601a46536913f0010ffbd189
:102c6000044b12221a601a46536913f0020ffbd16b
:082c7000704700bf00e00144c1
:020000040000fa
:020000040c00ee
:102c780090f948305a1e1343426880f8483012f0e1
:102c8800040317bf42f01002c0e90f3342604ff04f
:082c9800ff3008bf1846704729
:020000040000fa
:020000040c00ee
:102ca0000fb4074b07b504aa1b6852f8041b186839
:102cb000019200f034f803b05df804eb04b0704703
:042cc0009007000079
:020000040000fa
:020000040c00ee
:102cc400064b013053f830203ab9c100a1f1080293
:102cd40019441a444a6043f830207047080400003d
:020000040000fa
:020000040c00ee
:102ce40038b550b952b10c46012529462046fff7a4
:0e2cf4006dfc0028f9d0012000e0002038bd62
:020000040000fa
:020000040c00ee
:102d020038b50d461446012801d0204638bd21466b
:0c2d12002846fff7d0fc0028f9d0f6e7b7
:020000040000fa
:020000040c00ee
:102d1e0013b50446019201aafdf73ffe636813f056
:0c2d2e00100f18bf4ff0ff3002b010bdb6
:020000040000fa
:020000040c00ee
:102d3a0068076c094c836a9074a07ac0008068881e
:0c2d4a0000846c820081286e696c2900f6
:020000040000fa
:020000040c00ee
:022d56007047c4
:020000040000fa
:020000040c00ee
:102d5800044a138843f002031380136913f0020f27
:082d6800fbd17047008001441b
:020000040000fa
:020000040c00ee
:102d700010b50446fff780ff28b9a368e268c4e9ec
:082d800005331344a36210bdea
:020000040000fa
:020000040c00ee
:102d880010b4c46a1cb123465df8044b18470068a8
:082d98005df8044bfff7b1bf29
:020000040000fa
:020000040c00ee
:102da0000068002808b501da002008bdfff710ff11
:062db000431cfad1f8e714
:020000040000fa
:020000040c00ee
:102db80008b500f06bf8024b1860586008bd00bffa
:042dc8008c06000075
:020000040000fa
:020000040c00ee
:102dcc00002310b59a4200d110bdcc5cc454013321
:022ddc00f8e716
:020000040000fa
:020000040c00ee
:102dde00034611f8012b184603f8012b002af8d1ef
:022dee0070472c
:020000040000fa
:020000040c00ee
:102df000024b04221a725a72704700bf00600044ee
:020000040000fa
:020000040c00ee
:102e000000294ff480630cbf02220022fff708bca8
:020000040000fa
:020000040c00ee
:102e100008b5fff7d1fffff706fffff704ff08bd76
:020000040000fa
:020000040c00ee
:102e200002440346934200d1704703f8011bf9e7bf
:020000040000fa
:020000040c00ee
:102e3000494e4600696e66004e414e006e616e005e
:102e4000494e4600696e66004e414e006e616e004e
:020000040000fa
:020000040c00ee
:102e500003461a46013311780029fad1101a704737
:020000040000fa
:020000040c00ee
:0e2e6000a0f14103192b98bf40f020007047ed
:020000040000fa
:020000040c00ee
:0e2e6e00a0f16103192b98bf00f05f007047c0
:020000040000fa
:020000040c00ee
:0c2e7c00014b1860996070478006000050
:020000040000fa
:020000040c00ee
:0c2e880010b50446fff7a7ff204610bd60
:020000040000fa
:020000040c00ee
:082e940000487047140700001c
:020000040000fa
:020000040c00ee
:082e9c0083f00043fef75ab871
:020000040000fa
:020000040c00ee
:072ea400286e756c6c29001b
:020000040000fa
:020000040c00ee
:062eac000068fff728bfdb
:020000040000fa
:020000040c00ee
:062eb2004ff0ff307047f5
:020000040000fa
:020000040c00ee
:042eb800704700bfa0
:020000040000fa
:020000040c00ee
:042ebc00002070473b
:00000001FF
