:020000040000fa
:020000040800f2
:10000000f00f00005111000c0b0a000cef0e000c59
:100010005f16000c5f16000c5f16000c5f16000cdc
:100020000000000000000000000000005f16000c4f
:100030005f16000c000000005f16000c5f16000c3d
:100040005f16000c5f16000c5f16000c5f16000cac
:100050005f16000c5f16000c5f16000c5f16000c9c
:100060005f16000c5f16000c5f16000c5f16000c8c
:100070005f16000c5f16000c5f16000c5f16000c7c
:100080005f16000c5f16000c5f16000c5f16000c6c
:100090005f16000c5f16000c5f16000c5f16000c5c
:1000a0005f16000c5f16000c5f16000c5f16000c4c
:1000b0005f16000c5f16000c5f16000c5f16000c3c
:1000c0005f16000c5f16000c5f16000c5f16000c2c
:1000d0005f16000c5f16000c5f16000c5f16000c1c
:1000e0005f16000c5f16000c5f16000c5f16000c0c
:1000f0005f16000c5f16000c5f16000c5f16000cfc
:100100005f16000c5f16000cd905000cd905000c19
:10011000d905000cd905000cd905000cd905000c37
:100120005f16000c5f16000c5f16000c5f16000ccb
:100130005f16000c5f16000c5f16000c5f16000cbb
:100140005f16000c5f16000c5f16000c5f16000cab
:100150005f16000c5f16000c5f16000c5f16000c9b
:100160005f16000c5f16000c5f16000c5f16000c8b
:100170005f16000c5f16000c5f16000c5f16000c7b
:100180005f16000c5f16000c5f16000c5f16000c6b
:100190005f16000c5f16000c5f16000c5f16000c5b
:1001a0005f16000c5f16000c5f16000c5f16000c4b
:1001b0005f16000c5f16000c5f16000c5f16000c3b
:1001c0005f16000c5f16000c5f16000c5f16000c2b
:1001d0005f16000c5f16000c5f16000c5f16000c1b
:1001e0005f16000c5f16000c5f16000c5f16000c0b
:1001f0005f16000c5f16000c5f16000c5f16000cfb
:100200005f16000c5f16000c5f16000c5f16000cea
:100210005f16000c5f16000c5f16000c5f16000cda
:100220005f16000c5f16000c5f16000c5f16000cca
:100230005f16000c5f16000c5f16000c5f16000cba
:100240005f16000c5f16000c5f16000c5f16000caa
:100250005f16000c5f16000c5f16000c5f16000c9a
:100260005f16000c5f16000c5f16000c5f16000c8a
:100270005f16000c5f16000c5f16000c5f16000c7a
:100280005f16000c5f16000c5f16000c5f16000c6a
:100290005f16000c5f16000c5f16000c5f16000c5a
:0c02a0005f16000c5f16000c5f16000ccf
:020000040000fa
:020000040a00f0
:040000000100fefffe
:020000040000fa
:020000040a00f0
:040004000100fefffa
:020000040000fa
:020000040a00f0
:040008000100fefff6
:020000040000fa
:020000040a00f0
:04000c000100fefff2
:020000040000fa
:020000040a00f0
:040010000100feffee
:020000040000fa
:020000040a00f0
:040014000100feffea
:020000040000fa
:020000040a00f0
:040018000100feffe6
:020000040000fa
:020000040a00f0
:04001c000100feffe2
:020000040000fa
:020000040a00f0
:04002000ffffffffe0
:020000040000fa
:020000040a00f0
:04002400ffffffffdc
:020000040000fa
:020000040a00f0
:04002800ffffffffd8
:020000040000fa
:020000040a00f0
:04002c00ffffffffd4
:020000040000fa
:020000040a00f0
:04003000ffffffffd0
:020000040000fa
:020000040a00f0
:04003400ffffffffcc
:020000040000fa
:020000040a00f0
:04003800ffffffffc8
:020000040000fa
:020000040a00f0
:04003c00ffffffffc4
:020000040000fa
:020000040a00f0
:0400400000000000bc
:020000040000fa
:020000040a00f0
:04004400ffffffffbc
:020000040000fa
:020000040a00f0
:0400480007000000ad
:020000040000fa
:020000040a00f0
:04004c00ff050000ac
:020000040000fa
:020000040a00f0
:040054000f0f00008a
:020000040000fa
:020000040a00f0
:040058007000000034
:020000040000fa
:020000040a00f0
:04005c00020000009e
:020000040000fa
:020000040a00f0
:04006000000000009c
:020000040000fa
:020000040a00f0
:040064000202000094
:020000040000fa
:020000040a00f0
:040068000000000094
:020000040000fa
:020000040a00f0
:04006c000000000090
:020000040000fa
:020000040a00f0
:04007000000000008c
:020000040000fa
:020000040a00f0
:040074000000000088
:020000040000fa
:020000040a00f0
:040078000000000084
:020000040000fa
:020000040a00f0
:04007c000000000080
:020000040000fa
:020000040a00f0
:04008000ffffffff80
:020000040000fa
:020000040a00f0
:0400a000ffffffff60
:020000040000fa
:020000040a00f0
:04200000000000c01c
:020000040000fa
:020000040a00f0
:042004000100feffda
:020000040000fa
:020000040a00f0
:04200800ffffffffd8
:020000040000fa
:020000040a00f0
:04202000ffffffffc0
:020000040000fa
:020000040a00f0
:04202400ffffffffbc
:020000040000fa
:020000040a00f0
:04202800ffffffffb8
:020000040000fa
:020000040a00f0
:04202c00ffffffffb4
:020000040000fa
:020000040a00f0
:04203000ffffffffb0
:020000040000fa
:020000040a00f0
:04203400ffffffffac
:020000040000fa
:020000040a00f0
:04203800ffffffffa8
:020000040000fa
:020000040a00f0
:04203c00ffffffffa4
:020000040000fa
:020000040a00f0
:04204000ffffffffa0
:020000040000fa
:020000040a00f0
:04204400ffffffff9c
:020000040000fa
:020000040a00f0
:04204800ffffffff98
:020000040000fa
:020000040a00f0
:04204c00ffffffff94
:020000040000fa
:020000040a00f0
:04205000ffffffff90
:020000040000fa
:020000040a00f0
:04205400ffffffff8c
:020000040000fa
:020000040a00f0
:04205800ffffffff88
:020000040000fa
:020000040a00f0
:04205c00ffffffff84
:020000040000fa
:020000040a00f0
:04206000ffffffff80
:020000040000fa
:020000040a00f0
:04206400ffffffff7c
:020000040000fa
:020000040a00f0
:04206800ffffffff78
:020000040000fa
:020000040a00f0
:04206c00ffffffff74
:020000040000fa
:020000040a00f0
:04207000ffffffff70
:020000040000fa
:020000040a00f0
:04207400ffffffff6c
:020000040000fa
:020000040a00f0
:04207800ffffffff68
:020000040000fa
:020000040a00f0
:04207c00ffffffff64
:020000040000fa
:020000040a00f0
:04208000ffffffff60
:020000040000fa
:020000040a00f0
:04208400ffffffff5c
:020000040000fa
:020000040a00f0
:04208800ffffffff58
:020000040000fa
:020000040a00f0
:04208c00ffffffff54
:020000040000fa
:020000040a00f0
:04209000ffffffff50
:020000040000fa
:020000040a00f0
:04209400ffffffff4c
:020000040000fa
:020000040a00f0
:04209800ffffffff48
:020000040000fa
:020000040a00f0
:04209c00ffffffff44
:020000040000fa
:020000040a00f0
:0420a000ffffffff40
:020000040000fa
:020000040a00f0
:0420a400ffffffff3c
:020000040000fa
:020000040a00f0
:0420a800ffffffff38
:020000040000fa
:020000040a00f0
:0420ac00ffffffff34
:020000040000fa
:020000040a00f0
:0420b000ffffffff30
:020000040000fa
:020000040a00f0
:0420b400ffffffff2c
:020000040000fa
:020000040a00f0
:0420b800ffffffff28
:020000040000fa
:020000040a00f0
:0420bc00ffffffff24
:020000040000fa
:020000040a00f0
:0420c000ffffffff20
:020000040000fa
:020000040a00f0
:0420c400ffffffff1c
:020000040000fa
:020000040a00f0
:0420c800ffffffff18
:020000040000fa
:020000040a00f0
:0420cc00ffffffff14
:020000040000fa
:020000040a00f0
:0420d000ffffffff10
:020000040000fa
:020000040a00f0
:0420d400ffffffff0c
:020000040000fa
:020000040a00f0
:0420d800ffffffff08
:020000040000fa
:020000040a00f0
:0420dc00ffffffff04
:020000040000fa
:020000040a00f0
:0420e00006070000ef
:020000040000fa
:020000040a00f0
:0420e40004cf0f0016
:020000040000fa
:020000040a00f0
:0420e80036f70707b9
:020000040000fa
:020000040a00f0
:0420ec00863a000030
:020000040000fa
:020000040a00f0
:0420f000ff030000ea
:020000040000fa
:020000040a00f0
:0420f4003f000000a9
:020000040000fa
:020000040a00f0
:0420f800bf00000025
:020000040000fa
:020000040a00f0
:0420fc00ffffffffe4
:020000040000fa
:020000040a00f0
:04210000ffffffffdf
:020000040000fa
:020000040a00f0
:04211000ffffffffcf
:020000040000fa
:020000040a00f0
:04211400ffffffffcb
:020000040000fa
:020000040a00f0
:04211800ffffffffc7
:020000040000fa
:020000040a00f0
:04211c00ffffffffc3
:020000040000fa
:020000040a00f0
:04212000ffffffffbf
:020000040000fa
:020000040a00f0
:04400000db000000e1
:020000040000fa
:020000040a00f0
:048000000000ffff7e
:020000040000fa
:020000040a00f0
:048004000000ffff7a
:020000040000fa
:020000040a00f0
:048008000000ffff76
:020000040000fa
:020000040a00f0
:04800c000000ffff72
:020000040000fa
:020000040a00f0
:048010000000ffff6e
:020000040000fa
:020000040a00f0
:048014000000ffff6a
:020000040000fa
:020000040a00f0
:048018000000ffff66
:020000040000fa
:020000040a00f0
:04801c000000ffff62
:020000040000fa
:020000040a00f0
:04802000ffffffff60
:020000040000fa
:020000040a00f0
:04802400ffffffff5c
:020000040000fa
:020000040a00f0
:04802800ffffffff58
:020000040000fa
:020000040a00f0
:04802c00ffffffff54
:020000040000fa
:020000040a00f0
:04803000ffffffff50
:020000040000fa
:020000040a00f0
:04803400ffffffff4c
:020000040000fa
:020000040a00f0
:04803800ffffffff48
:020000040000fa
:020000040a00f0
:04803c00ffffffff44
:020000040000fa
:020000040a00f0
:0480400044000000f8
:020000040000fa
:020000040a00f0
:04804400ffffffff3c
:020000040000fa
:020000040a00f0
:04804800070000002d
:020000040000fa
:020000040a00f0
:04804c00ff0500002c
:020000040000fa
:020000040a00f0
:048054000f0f00000a
:020000040000fa
:020000040a00f0
:0480580070000000b4
:020000040000fa
:020000040a00f0
:04805c00020000001e
:020000040000fa
:020000040a00f0
:04806000000000001c
:020000040000fa
:020000040a00f0
:048064000202000014
:020000040000fa
:020000040a00f0
:048068000000000014
:020000040000fa
:020000040a00f0
:04806c000000000010
:020000040000fa
:020000040a00f0
:04807000000000000c
:020000040000fa
:020000040a00f0
:048074000000000008
:020000040000fa
:020000040a00f0
:048078000000000004
:020000040000fa
:020000040a00f0
:04807c000000000000
:020000040000fa
:020000040a00f0
:04808000ffffffff00
:020000040000fa
:020000040a00f0
:0480a000ffffffffe0
:020000040000fa
:020000040a00f0
:04a00000000000c09c
:020000040000fa
:020000040a00f0
:04a004000000ffff5a
:020000040000fa
:020000040a00f0
:04a00800ffffffff58
:020000040000fa
:020000040a00f0
:04a02000ffffffff40
:020000040000fa
:020000040a00f0
:04a02400ffffffff3c
:020000040000fa
:020000040a00f0
:04a02800ffffffff38
:020000040000fa
:020000040a00f0
:04a02c00ffffffff34
:020000040000fa
:020000040a00f0
:04a03000ffffffff30
:020000040000fa
:020000040a00f0
:04a03400ffffffff2c
:020000040000fa
:020000040a00f0
:04a03800ffffffff28
:020000040000fa
:020000040a00f0
:04a03c00ffffffff24
:020000040000fa
:020000040a00f0
:04a04000ffffffff20
:020000040000fa
:020000040a00f0
:04a04400ffffffff1c
:020000040000fa
:020000040a00f0
:04a04800ffffffff18
:020000040000fa
:020000040a00f0
:04a04c00ffffffff14
:020000040000fa
:020000040a00f0
:04a05000ffffffff10
:020000040000fa
:020000040a00f0
:04a05400ffffffff0c
:020000040000fa
:020000040a00f0
:04a05800ffffffff08
:020000040000fa
:020000040a00f0
:04a05c00ffffffff04
:020000040000fa
:020000040a00f0
:04a06000ffffffff00
:020000040000fa
:020000040a00f0
:04a06400fffffffffc
:020000040000fa
:020000040a00f0
:04a06800fffffffff8
:020000040000fa
:020000040a00f0
:04a06c00fffffffff4
:020000040000fa
:020000040a00f0
:04a07000fffffffff0
:020000040000fa
:020000040a00f0
:04a07400ffffffffec
:020000040000fa
:020000040a00f0
:04a07800ffffffffe8
:020000040000fa
:020000040a00f0
:04a07c00ffffffffe4
:020000040000fa
:020000040a00f0
:04a08000ffffffffe0
:020000040000fa
:020000040a00f0
:04a08400ffffffffdc
:020000040000fa
:020000040a00f0
:04a08800ffffffffd8
:020000040000fa
:020000040a00f0
:04a08c00ffffffffd4
:020000040000fa
:020000040a00f0
:04a09000ffffffffd0
:020000040000fa
:020000040a00f0
:04a09400ffffffffcc
:020000040000fa
:020000040a00f0
:04a09800ffffffffc8
:020000040000fa
:020000040a00f0
:04a09c00ffffffffc4
:020000040000fa
:020000040a00f0
:04a0a000ffffffffc0
:020000040000fa
:020000040a00f0
:04a0a400ffffffffbc
:020000040000fa
:020000040a00f0
:04a0a800ffffffffb8
:020000040000fa
:020000040a00f0
:04a0ac00ffffffffb4
:020000040000fa
:020000040a00f0
:04a0b000ffffffffb0
:020000040000fa
:020000040a00f0
:04a0b400ffffffffac
:020000040000fa
:020000040a00f0
:04a0b800ffffffffa8
:020000040000fa
:020000040a00f0
:04a0bc00ffffffffa4
:020000040000fa
:020000040a00f0
:04a0c000ffffffffa0
:020000040000fa
:020000040a00f0
:04a0c400ffffffff9c
:020000040000fa
:020000040a00f0
:04a0c800ffffffff98
:020000040000fa
:020000040a00f0
:04a0cc00ffffffff94
:020000040000fa
:020000040a00f0
:04a0d000ffffffff90
:020000040000fa
:020000040a00f0
:04a0d400ffffffff8c
:020000040000fa
:020000040a00f0
:04a0d800ffffffff88
:020000040000fa
:020000040a00f0
:04a0dc00ffffffff84
:020000040000fa
:020000040a00f0
:04a0e000060700006f
:020000040000fa
:020000040a00f0
:04a0e40004cf0f0096
:020000040000fa
:020000040a00f0
:04a0e80036f7070739
:020000040000fa
:020000040a00f0
:04a0ec00863a0000b0
:020000040000fa
:020000040a00f0
:04a0f000ff0300006a
:020000040000fa
:020000040a00f0
:04a0f4003f00000029
:020000040000fa
:020000040a00f0
:04a0f800bf000000a5
:020000040000fa
:020000040a00f0
:04a0fc00ffffffff64
:020000040000fa
:020000040a00f0
:04a10000ffffffff5f
:020000040000fa
:020000040a00f0
:04a11000ffffffff4f
:020000040000fa
:020000040a00f0
:04a11400ffffffff4b
:020000040000fa
:020000040a00f0
:04a11800ffffffff47
:020000040000fa
:020000040a00f0
:04a11c00ffffffff43
:020000040000fa
:020000040a00f0
:04a12000ffffffff3f
:020000040000fa
:020000040c00ee
:10000000f8b500bff8bc08bc9e4670474514000c0c
:10001000f8b500bff8bc08bc9e4670472114000c20
:020000040000fa
:020000040c00ee
:08002000fc02000001000000d9
:020000040000fa
:020000040c00ee
:100028002de9f04f0027adb006461546b8464ff00b
:10003800ff39dff8dca2039103990b78002b00f05d
:10004800f9800cab0024cdf824800a938023cde9f5
:1000580007890b930b5d0bb1252b26d134b12246b2
:10006800304601f075fa039b23440393039b1a78e7
:10007800252a40f0d78003f1010bcdf80cb0039886
:1000880003782b2b1ad025d8202b1bd0232b1dd03f
:100098002a2b27d001f09ef90990039b1a78303a51
:1000a800092a2ed801330393f7e70134d2e7079bd7
:1000b80043f00103013007930390e0e7079b43f007
:1000c8000403f7e7079b43f00803f3e7079b43f0b4
:1000d8001003efe72d2bead0302bd9d1079b43f043
:1000e8000203e7e72b6801301a1d1b680390002bf9
:1000f8002a60099305da079a5b4282f001020993a4
:100108000792079bda0744bf23f002030793039b78
:100118001a782e2a0dd1581ccdf8208003905a78d1
:100128002a2a25d1023303932b681a1d1b682a60db
:10013800089303a801f0aef9039b0190187801f029
:10014800b2fa6928019979d032dc632800f0c680b8
:1001580019dc252800f0d080612853d02523cdf85c
:100168000cb0cdf81c808df81030cde90898c0e0af
:1001780001f030f90890039b1a78303a092ad8d848
:1001880001330393f7e7642858d06728e6dc2a464a
:1001980004a801f0b3f9002800f09c80039b07a98c
:1001a80030465a1c039204aa1b7801f0c5fa38e0bd
:1001b800702873d015dc6e2800f087806f28cdd1a9
:1001c8002b46002204a800f009fd002800f08280d8
:1001d800039b04aa07a930460133039300f07aff72
:1001e8001fe075283ad0782848d07328b6d18029de
:1001f80070d1039b2a6801330393131d2b600023de
:1002080012685be02a4604a801f078f9002861d05a
:10021800039b07a930465a1c039204aa1b7801f0d5
:100228008bfa04443c44a7426edd384b4f224ff012
:10023800ff371a6038462db0bde8f08f2b460122f3
:1002480004a800f0cbfc002844d0039b04aa07a90b
:1002580030460133039300f017fde2e72b460022f6
:1002680004a800f0bbfc002834d0039b04aa07a90b
:1002780030460133039301f059f8d2e72b460022a8
:1002880004a800f0abfc28b3039b5a1c03921b780c
:1002980004aa07a9304600f027fbc2e72b46002234
:1002a800f02104a800f09afca0b1039b013303934a
:1002b800dde90423134306d10023524607a930463b
:1002c80001f008f8ade77823e2e72b463a1904a8cd
:1002d80000f086fe039b01330393a3e78029f9d13d
:1002e800039b013303932b681a1d1b682a608df842
:1002f8001030012304aae1e78029ebd1039b8df894
:10030800100001330393f4e7274695e6f80100004f
:04031800b415000c0c
:020000040000fa
:020000040c00ee
:10031c002de9f04f099f154604468e461e46002bcc
:10032c0040f0cc808a42b2fa82fc4cd9bcf1000f6e
:10033c000bd0ccf1200801fa0cfe02fa0cf500faf5
:10034c000cf420fa08f848ea0e0e4fea15491ffa89
:10035c0085f8210cbefbf9fa09fb1ae30afb08fb32
:10036c0041ea03439b452ad9eb180af1ff3004d22a
:10037c009b4502d9aaf102002b44a3eb0b03a4b2b8
:10038c00b3fbf9f209fb123302fb08f844ea03440d
:10039c00a04516d92c1902f1ff3303d2a04501d97f
:1003ac00931e2c44a4eb080443ea004027b124fa22
:1003bc000cf400233c607b603146bde8f08f504666
:1003cc00dbe71346eee702b9ffdebcf1000f2ed1de
:1003dc008b1a01264fea154eaab2210cb3fbfef87c
:1003ec000efb183308fb02f941ea0343994561d926
:1003fc00eb1808f1ff3004d2994502d9a8f102009c
:10040c002b44a3eb0903a4b2b3fbfef10efb113397
:10041c004a4344ea0344a2424ed92c1901f1ff335a
:10042c0003d2a24201d98b1e2c44a41abce702fab7
:10043c000cf5ccf1200e01fa0cf300fa0cf421fab5
:10044c000ef94fea154820fa0efeb9fbf8f14eea08
:10045c00030308fb11921ffa85fe180c01fb0ef624
:10046c0040ea0242964221d9aa1801f1ff3003d288
:10047c00964201d9881e2a44921b9bb2b2fbf8f912
:10048c0008fb192209fb0efe43ea02439e450fd9d5
:10049c00eb1809f1ff3604d29e4502d9a9f10206e8
:1004ac002b44a3eb0e0346ea004693e70846e3e72a
:1004bc004e46f6e74046a4e70b46b6e78b4206d914
:1004cc00002f7ed00026c7e90001304674e7b3fa4e
:1004dc0083fcbcf1000f0fd18b4201d3824209d8af
:1004ec00841a61eb030e0120002f6dd0c7e9004e7a
:1004fc00002661e76046f7e7ccf1200e03fa0cf317
:10050c0000fa0cf622fa0ef521fa0ef402fa0cf2ad
:10051c001d4301fa0cf320fa0ef14fea154a0b4376
:10052c001ffa85f8b4fbfaf90afb19401c0c09fbfd
:10053c0008f144ea0044a1423fd92c1909f1ff30db
:10054c0004d2a14202d9a9f102002c44641a9bb234
:10055c00b4fbfaf90afb194409fb08f843ea044115
:10056c0088452cd9691809f1ff3304d2884502d982
:10057c00a9f10203294443ea0040a1eb0801a0fbc6
:10058c0002894945c2464c4602d306d1464504d29f
:10059c000138b8eb020a69eb0504afb1b6eb0a03fc
:1005ac0061eb040606fa0efe23fa0cf326fa0cf69f
:1005bc004eea0303c7e900369ae74846c6e74b46be
:0c05cc00d9e73e463846f7e63e46f5e625
:020000040000fa
:020000040c00ee
:1005d800704b9b7d002b00f0dc80f0b583b06d4a3a
:1005e800137edbb2927d12f0800f11d1694a137e1f
:1005f800dbb2927d12f0010f00f0bc8013f0010f06
:1006080000f0b880644c634d644e2069217d34e06d
:1006180013f0800fead05f4b5b8b13f00703e5d034
:100628005d4ad3875b4b80221a7607225a831b7e4a
:1006380013f0040f05d0574b9a6a1a7e12f0040f74
:10064800fad1554b1b6a002bd0d0534a516a02206d
:100658009847cbe7f25c8df806200133984298bfa3
:100668000023e3606b6803f00703012b14bf9df8b8
:100678000630bdf80630ab62b9b92b7e13f0010f16
:1006880078d0a268e3689a4271d06a6802f00702db
:10069800012adfd116f813208df8062006eb430255
:1006a80052788df807200133d8e700f0c1ff23689e
:1006b800002baad0227f32b1a2699042a5d36168eb
:1006c80003209847a1e7a26990429ed16168032060
:1006d80098479ae7226a002a37d0616a38469047d5
:1006e800a36a0133226b934228bf00232de0a16a3d
:1006f8002b4a02f8115002eb4102c5f30725557049
:100708002ee000f07dff236a002b2ed094f83c20c9
:1007180032b1a26b904228d3616a0020984724e046
:10072800a26b904221d1616a002098471de0337e78
:1007380013f0040f2bd0b56aa36a0133226b9342de
:1007480028bf0023e26a9a42c4d0e26a9a42eed0f5
:10075800726802f00702012ac9d0a26a10498d54b2
:10076800a36294f83430002bcbd10127dfe7094b83
:1007780001221a75074a137edbb2927d12f0040f2c
:1007880005d013f0040f02d0024e034cede703b07e
:10079800f0bd704700208144500100008000000037
:0407a800000000004d
:020000040000fa
:020000040c00ee
:1007ac0070b5002000f0e5fe0021444800f0a6ffe3
:1007bc000021434800f090ff00f082ff414d424c75
:1007cc0002462946204600f000ff0146204600f074
:1007dc0097f900f087ff024605f11801204600f05a
:1007ec00f4fe0146204600f08bf9292105f130007a
:1007fc0000f086f900f094ff0028fbd1314d0a215e
:10080c0005f15c0000f07cf900f010ff2e4c024664
:10081c0005f16801204600f0d8fe0146204600f0a4
:10082c006ff900f05fff00f063ff0021012000f082
:10083c0019ff264b1a78002afcd00020234b187085
:10084c00014600f00fff4221214800f059f900f059
:10085c00d5fe0928fbd91f4c0a21204600f080fb4d
:10086c000a21204600f04cf927211b4800f048f9da
:10087c00052000f02bff0021012000f0cbfe4ff0f3
:10088c0089434ff48012c3f89c21144c114e144d23
:10089c000fe02168304600f033f90321284600f0c0
:1008ac002ff9002323604ff089434ff48012c3f8d3
:1008bc009c212368092bfcd9ebe700bf1517000c12
:1008cc003115000c0c0a000c90010000c201000054
:1008dc009c0a000ce0010000e00a000cec01000096
:0408ec00080b000ce9
:020000040000fa
:020000040c00ee
:1008f0002de9f04fd1e901590e688bb0002d0f465c
:100900000393acbf26f002060125029016f01003f7
:10091000d1f80c800493d2e900ab37d05aea0b032c
:1009200034d0a9f1020316f008013c69059104f1e5
:10093000ff344ff0000118bf03f1ff3308f8041033
:1009400006f002015b1b069103994139012c1fdc63
:10095000049b002b4bd1059b1bb1013c202308f8c5
:1009600004303a694b46009608eb0401013a0298bc
:10097000121b00f07dfa029b5b68db0503d57b68e8
:100980009842b8bf18460bb0bde8f08f4b46cae797
:100990005aea0b0007d1002d05dc58190028d7ddd5
:1009a00006980028d4d00af00f00013c0928d4bfd3
:1009b0003030573019290ed840f0200cacf1610cc2
:1009c000bcf1190f07d80792cde9083100f076fe87
:1009d000079adde9083108f804004fea1a104fead7
:1009e0001b1c013d40ea0b70e3468246aee7d2e9ac
:1009f00000231343afd008eb0403039a023c03f82f
:0a0a0000012c302308f80430a5e7ac
:020000040000fa
:020000040c00ee
:020a0a00fee705
:020000040000fa
:020000040c00ee
:100a0c005258204275666665722053697a65203d9e
:100a1c002025640d0a000000545820427566666556
:100a2c00722053697a65203d2025640d0a00000070
:100a3c00416464696e672031302063686172616360
:100a4c007465727320746f2074686520545820622a
:100a5c007566666572202d2000000000303132333f
:100a6c0034353637383900000d0a46726565205327
:100a7c007061636520696e205472616e736d697468
:100a8c0020427566666572203d2025640d0a0000c3
:100a9c00456e7465722031302063686172616374d5
:100aac006572732e2054686520726563656976657e
:100abc00642063686172616374657273206172652e
:100acc00206563686f6564206261636b2e200d0a7c
:100adc003e0000000d0a204e6f77207475726e690f
:100aec006e67206f6e205258206e6f746966696352
:100afc006174696f6e73200d0a3e00000d0a3e0092
:020000040000fa
:020000040c00ee
:100b0c002de9f04700295ed00f46304b1e690024ba
:100b1c002f4d1a4600f1010edff8b8c0a04615e0c3
:100b2c0010f804a0d5f8049009f00709b9f1010fe9
:100b3c0011bf0cf801a00cf811a00ceb410181f8cd
:100b4c0001809360631c01349f423ad96b6803f0b7
:100b5c000703012b11d09168d2f80c904b1cb342b7
:100b6c0028bf00239945dbd100f03cfd10b1184b98
:100b7c0001229a752046bde8f0879168d2f80c9056
:100b8c004b1cb34228bf00239945edd01ef814a08e
:100b9c0010f8149049ea0a29d5f804a00af0070abb
:100bac00baf1010f04d00cf801909360631ccae7f2
:100bbc000cf811900ceb41014fea192981f80190c6
:100bcc00f3e71c46d0e70c46cee700bf500100000f
:080bdc000020814480000000ac
:020000040000fa
:020000040c00ee
:100be400882910b536d012dc812943d003dc802952
:100bf40040d0002010bd82290ed08429f9d1196873
:100c040002b30a1d1a60b1f90020d3171ee0a0290f
:100c14002bd00bdc9029ecd11968073121f00701a6
:100c240001f108021a60d1e900230fe0c02901d0c4
:100c3400f029ded11a68111d1960136803600023be
:100c4400436005e00a1d1a600a880023c0e90023f6
:100c54000120cfe7196822b10a1d1a6091f900201a
:100c6400d3e70a1d1a600a78efe71a68111d1268a3
:100c74001960cae719681ab10a1d1a600a68c4e73c
:0c0c84000c1d1c600b68c0e90032e1e7a9
:020000040000fa
:020000040c00ee
:100c90002de9f041d2e900230c4686b007465fea11
:100ca000d37820684968a5680590e66841d052422b
:100cb00063eb4303002908db20f002000590b8f144
:100cc000000f02d1059948072ad5691e05a8029090
:100cd0000a20cde90010204600f0c4f9b8f1000f59
:100ce00002d1059b59071fd5b8f1000f00f1ff3065
:100cf00014bf2d232b23335422693118059b013a4d
:100d000000932b46121a384600f0b2f87b68db05d8
:100d100003d563689842b8bf184606b0bde8f081b5
:100d20000807d2d42946d1e71a07e5d50138202390
:080d3000e1e70029c0dac5e784
:020000040000fa
:020000040c00ee
:100d3800c40100001c0000000000000000000000ca
:100d4800800000000000000080000000800000001b
:100d580000000000500100004000000000000000fa
:100d6800ec0100000400000000000000e0010000a9
:100d78000a0000000000000090010000320000009e
:100d880000000000c2010000010000000000000097
:100d9800f001000004000000000000000001000055
:100da8005000000000000000f401000004000000f2
:100db80000000000f801000004000000000000002e
:100dc80000000000000000004444444444444444fb
:020000040000fa
:020000040c00ee
:100dd8001f4b01221a611f4ad36943f48033d36140
:100de800d36813f4807ffbd01b4b0c229a64f0224b
:100df8005a640022da661a46936f13f0400ffbd14b
:100e0800154a8823d364136c43f4206343f0020328
:100e18001364136913f0807ffbd0104b104a1a62d9
:100e28001a46536813f0040ffbd10c4b0d4a5a6253
:100e38001a46536813f0080ffbd1084b4122c3f838
:100e4800d0201a46d2f8d03013f0400ffad07047ad
:100e580000e000440080004400c000440000014459
:080e6800060101000601020071
:020000040000fa
:020000040c00ee
:100e70002de9ff471d460c9b06468a4613f00109e3
:100e8000144601d195420bd822465146304600f017
:100e900063fba54204d82546284604b0bde8f08788
:100ea0002f1b20216846102f3a46b84628bf102233
:100eb00000f0e6fbb8f10f0f11d83b096ff00f02fd
:100ec0006946304602fb037200f046fbb9f1000fa1
:100ed000e2d122465146304600f03efbdce71022cc
:0e0ee00069463046a8f1100800f036fbe2e744
:020000040000fa
:020000040c00ee
:020eee00fee71d
:020000040000fa
:020000040c00ee
:100ef0001b4b1c4a1a604ff622029a814ff4403273
:100f00005a601a46d369002bfcd1154a136843f086
:100f100002031360d369002bfcd1134b00221a6229
:100f20009a62da6283f8342083f83c209a63da8785
:100f30001a609a60da601a751a779a61084b5b68d2
:100f400003f00703012b084b14bf802240221a63d1
:100f50001a61034b80229a7504229a75704700bf6c
:0c0f6000002081440401104050010000fa
:020000040000fa
:020000040c00ee
:100f6c00f0b51b4ad36a956a61b30e46ab422cd0de
:100f7c00d2f830c00122174fa0f1020e164c0138e6
:100f8c000be0e15c815401339c4598bf0023b242d5
:100f9c0013d2511cab4211d00a46796801f00701fb
:100fac000129eed114f813100ef8121004eb4301c2
:100fbc00497800f812100133e6e71d46044bdd6258
:100fcc001046f0bd1d460a46f8e70022f6e700bfc2
:0c0fdc00500100000020814400000000d3
:020000040000fa
:020000040c00ee
:100fe800842910b523d00cdc812903d0822913d0a1
:100ff80080290bd119680c1d1c600b6803601a60ee
:1010080013e0902921d003dc882917d0002010bdd7
:10101800a029efd0c029ece719680c1d1c600b68eb
:10102800d11703601046c3e900010120efe71968f2
:101038000c1d1c600b6803601a80f6e719680c1d0c
:101048001c600b6803601a70efe719680c1d1c60c0
:0c105800d31709680160c1e90023e6e736
:020000040000fa
:020000040c00ee
:101064002de9f84f0c9f0446104619466668002582
:101074003a680123d4f80cb0002e246902f0020a65
:101084000b9ab8bf0126013c90464feae2790bf86f
:101094000450002c03dcd3b12046bde8f88f50ea9d
:1010a400010209d1721b002a06dc0a9a521b002a8b
:1010b400f1ddbaf1000feed042464b4600f008fadb
:1010c400013c1346303201350bf80420e1e73b685c
:0810d40023f010033b60dfe78d
:020000040000fa
:020000040c00ee
:1010dc00f0b50c46496887b0064623680029a76816
:1010ec0020460593a8bf23f00203e568a8bf05932b
:1010fc0005ab02930823cde90073d2e90023fff777
:10110c00abff059bd90642bf00f1ff3030232b54b7
:10111c00059b1a0742bf00f1ff3020232b542918de
:10112c002269059b013a00933b46121a3046fff7a1
:10113c0099fe7368db0503d563689842b8bf1846ff
:04114c0007b0f0bd3b
:020000040000fa
:020000040c00ee
:1011500008b5124b9847124b9847eff3108172b6bf
:10116000104ad2f8883043f47003c2f88830bff3d5
:101170004f8fbff36f8f01b962b600f0dffa0a4bf1
:1011800023f07f03074a9360084b9847084b984722
:10119000084b9847fff70afbfee700bf2f15000c2e
:1011a0002f15000c00ed00e0000000088112000c7b
:0811b0002f15000c2f15000c97
:020000040000fa
:020000040c00ee
:1011b800174ad36823f4e0631b041b0c43f0bf6396
:1011c80043f40033d360bff35f8f62b6114be02264
:1011d80083f832234ff48021596083f833234ff486
:1011e8000021596083f834234ff48011596083f843
:1011f80035234ff40011596083f836234ff48001ea
:10120800596083f837234ff400025a60704700bfd3
:0812180000ed00e000e100e040
:020000040000fa
:020000040c00ee
:10122000144b0021144a70b5934206d3134a00258b
:10123000d2e9003123b919b970bd03f8011bf3e7f6
:10124000946858180c3294b11446834208d111f0b6
:10125000030318bf012303eb910102eb8102e7e7cf
:1012600014f8016b03f8016befe703f8015b8342ad
:10127000fbd1dde70000000000000000380d000c8d
:020000040000fa
:020000040c00ee
:1012800038b50e4a00230e4c13600e4a0e4d136003
:101290000e4a13600e4a13600e4a13600e4a5362e0
:1012a00013610123936000f04ffa00f04dfaac4255
:1012b00000d338bd54f8043b9847f8e7f401000028
:1012c0000c00000c0c0100001000000c08010000d4
:0c12d000000100000401000010010000fb
:020000040000fa
:020000040c00ee
:1012dc002de9ff41134d064602acd1f80080286879
:1012ec00af88002a18bf144602901a46a879adf8a8
:1012fc000c708df80e00d1e901571bb9204600f097
:10130c00c1f90246002d02dbaa4228bf2a463b4601
:10131c002146cdf800803046fff7a4fd04b0bde8af
:08132c00f08100bf3417000c32
:020000040000fa
:020000040c00ee
:10133400f0b50c46496887b0054600292368a668bd
:1013440020460593a8bf23f00203e768a8bf0593ce
:1013540005ab02930a23cde90063d2e90023fff72a
:101364007ffe2269059b3918013a00933346121a0d
:101374002846fff77bfd6b68db0503d5636898425d
:08138400b8bf184607b0f0bd28
:020000040000fa
:020000040c00ee
:10138c0030b5154689b04ff0ff32019202f20312cc
:10139c00029200b96846cde9030151b14c1e0029f7
:1013ac00059408da094b4f224ff0ff301a6009b050
:1013bc0030bd0c46f3e70022294602701a46cde9ef
:1013cc00060001a800f0f3f8f1e700bff8010000f7
:020000040000fa
:020000040c00ee
:1013dc0010b5027803460130202afad0a2f1090197
:1013ec000429f6d92b2a07d02d2a11d1012101333a
:1013fc00013b00200a2403e00021f8e76043801a37
:10140c0013f8012f303a092af8d901b9404210bd1e
:04141c000021ede7d7
:020000040000fa
:020000040c00ee
:1014200010b5054c227832b9044b13b1044800e0e2
:1014300000bf0123237010bdc401000000000000a4
:101440000000000008b5034b1bb10349034800e04e
:1014500000bf08bd00000000c8010000000000003f
:020000040000fa
:020000040c00ee
:101460004ff089434ff0c062c3f890204ff48012d0
:10147000c3f880210432c3f89021012283f8cd21e2
:1014800083f8ce21002283f8d421202183f8b611dd
:0c149000022183f8b71183f8ba217047dd
:020000040000fa
:020000040c00ee
:10149c0000230c4a30b512f8134024b902eb430375
:1014ac005b78184630bd01680d78a54209bf02eb88
:1014bc004303013301315b7814bfdbb201600a2bab
:0814cc00e9d9eee79e15000cc2
:020000040000fa
:020000040c00ee
:1014d40053b94ab9002908bf00281cbf4ff0ff3197
:1014e4004ff0ff3000f02cb9adf1080c6de904cedb
:1014f400fef712ffddf804e0dde9022304b07047d3
:020000040000fa
:020000040c00ee
:10150400802910db812901dd83290cd1136807337d
:1015140023f0070303f108011160d3e90023c0e9b4
:0a15240000230120704700207047eb
:020000040000fa
:020000040c00ee
:02152e00704704
:020000040000fa
:020000040c00ee
:1015300000b1704710b500f067f8054c236801460c
:1015400004481844fff712fd23681844206010bdba
:08155000ec010000e0010000c5
:020000040000fa
:020000040c00ee
:1015580038b5046905464069944228bf14462246b6
:1015680000f070f86a6913196b612b691b1b2b61fa
:061578000023135538bded
:020000040000fa
:020000040c00ee
:10157e0008b5fff76efffff728fcfff7b2fc00f08f
:10158e009df800f086f800f064f8fff70efe08bd37
:020000040000fa
:020000040c00ee
:10159e0068076c094c836a9074a07ac000806888d2
:0c15ae0000846c820081286e696c2900aa
:020000040000fa
:020000040c00ee
:1015ba0013b50446019201aafef731fd636813f0e0
:0c15ca00100f18bf4ff0ff3002b010bd32
:020000040000fa
:020000040c00ee
:1015d6000eb403b503aa52f8041b019200f09df85d
:0a15e60002b05df804eb03b070479b
:020000040000fa
:020000040c00ee
:1015f000044a9368d06883423ebf024a12699b182e
:08160000181a704750010000a8
:020000040000fa
:020000040c00ee
:10160800044bd86a9b6a984282bf024a126b9b18a5
:08161800181a70475001000090
:020000040000fa
:020000040c00ee
:10162000044b93f8342083f8340083f83c101046c0
:08163000704700bf50010000eb
:020000040000fa
:020000040c00ee
:1016380010b5034b1c69fff7d7ff013c201a10bdfa
:04164800500100004d
:020000040000fa
:020000040c00ee
:10164c00002310b59a4200d110bdcc5cc4540133b8
:02165c00f8e7ad
:020000040000fa
:020000040c00ee
:02165e00fee7a5
:020000040000fa
:020000040c00ee
:10166000024b04221a725a72704700bf0060004495
:020000040000fa
:020000040c00ee
:10167000024b1a7d1875197710467047500100000b
:020000040000fa
:020000040c00ee
:1016800002440346934200d1704703f8011bf9e777
:020000040000fa
:020000040c00ee
:1016900003461a46013311780029fad1101a70470f
:020000040000fa
:020000040c00ee
:0e16a0004ff089434ff48012c3f89821704731
:020000040000fa
:020000040c00ee
:0e16ae00a0f14103192b98bf40f020007047b7
:020000040000fa
:020000040c00ee
:0e16bc00a0f16103192b98bf00f05f0070478a
:020000040000fa
:020000040c00ee
:0216ca00704767
:020000040000fa
:020000040c00ee
:0c16cc00014b186b013870475001000002
:020000040000fa
:020000040c00ee
:0c16d80008b1014a906370475001000007
:020000040000fa
:020000040c00ee
:0c16e400014b1862596270475001000071
:020000040000fa
:020000040c00ee
:0c16f000014b18690138704750010000e0
:020000040000fa
:020000040c00ee
:0c16fc0008b1014a9061704750010000e5
:020000040000fa
:020000040c00ee
:0c170800014b1860596070475001000050
:020000040000fa
:020000040c00ee
:0c171400014b01221a707047c201000056
:020000040000fa
:020000040c00ee
:0c17200013460a466ff00041fff730be90
:020000040000fa
:020000040c00ee
:08172c0008b5fff75fff08bddf
:020000040000fa
:020000040c00ee
:07173400286e756c6c2900a2
:020000040000fa
:020000040c00ee
:04173c00fff770bd86
:020000040000fa
:020000040c00ee
:0417400000207047ce
:020000040000fa
:020000040c00ee
:04174400704700bf2b
:020000040000fa
:020000040c00ee
:021748007047e8
:00000001FF
