:020000040000fa
:020000040800f2
:10000000f0ff07209504000cd107000cd307000c6b
:10001000d907000cd907000cd907000cd907000c30
:10002000000000000000000000000000d907000ce4
:10003000d907000c00000000d907000cd907000cfc
:10004000d907000cd907000cd907000cd907000c00
:10005000d907000cd907000cd907000cd907000cf0
:10006000d907000cd907000cd907000cd907000ce0
:10007000d907000cd907000cd907000cd907000cd0
:10008000d907000cd907000cd907000cd907000cc0
:10009000d907000cd907000cd907000cd907000cb0
:1000a000d907000cd907000cd907000cd907000ca0
:1000b000d907000cd907000cd907000cd907000c90
:1000c000d907000cd907000cd907000cd907000c80
:1000d000d907000cd907000cd907000cd907000c70
:1000e000d907000cd907000cd907000cd907000c60
:1000f000d907000cd907000cd907000cd907000c50
:10010000d907000cd907000cd907000cd907000c3f
:10011000d907000cd907000cd907000cd907000c2f
:10012000d907000cd907000cd907000cd907000c1f
:10013000d907000cd907000cd907000cd907000c0f
:10014000d907000cd907000cd907000cd907000cff
:10015000d907000cd907000cd907000cd907000cef
:10016000d907000cd907000cd907000cd907000cdf
:10017000d907000cd907000cd907000cd907000ccf
:10018000d907000cd907000cd907000cd907000cbf
:10019000d907000cd907000cd907000cd907000caf
:1001a000d907000cd907000cd907000cd907000c9f
:1001b000d907000cd907000cd907000cd907000c8f
:1001c000d907000cd907000cd907000cd907000c7f
:1001d000d907000cd907000c9101000c9101000c0b
:1001e0009101000c9101000c9101000c9101000c97
:1001f000d907000cd907000cd907000cd907000c4f
:10020000d907000cd907000cd907000cd907000c3e
:10021000d907000cd907000cd907000cd907000c2e
:10022000d907000cd907000cd907000cd907000c1e
:10023000d907000cd907000cd907000cd907000c0e
:10024000d907000cd907000cd907000cd907000cfe
:10025000d907000cd907000cd907000cd907000cee
:10026000d907000cd907000cd907000cd907000cde
:10027000d907000cd907000cd907000cd907000cce
:10028000d907000cd907000cd907000cd907000cbe
:10029000d907000cd907000cd907000cd907000cae
:0c02a000d907000cd907000cd907000c8e
:020000040000fa
:020000040a00f0
:040000000100fefffe
:020000040000fa
:020000040a00f0
:040004000100fefffa
:020000040000fa
:020000040a00f0
:040008000100fefff6
:020000040000fa
:020000040a00f0
:04000c000100fefff2
:020000040000fa
:020000040a00f0
:040010000100feffee
:020000040000fa
:020000040a00f0
:040014000100feffea
:020000040000fa
:020000040a00f0
:040018000100feffe6
:020000040000fa
:020000040a00f0
:04001c000100feffe2
:020000040000fa
:020000040a00f0
:04002000ffffffffe0
:020000040000fa
:020000040a00f0
:04002400ffffffffdc
:020000040000fa
:020000040a00f0
:04002800ffffffffd8
:020000040000fa
:020000040a00f0
:04002c00ffffffffd4
:020000040000fa
:020000040a00f0
:04003000ffffffffd0
:020000040000fa
:020000040a00f0
:04003400ffffffffcc
:020000040000fa
:020000040a00f0
:04003800ffffffffc8
:020000040000fa
:020000040a00f0
:04003c00ffffffffc4
:020000040000fa
:020000040a00f0
:0400400000000000bc
:020000040000fa
:020000040a00f0
:04004400ffffffffbc
:020000040000fa
:020000040a00f0
:0400480007000000ad
:020000040000fa
:020000040a00f0
:04004c00ff050000ac
:020000040000fa
:020000040a00f0
:040054000f0f00008a
:020000040000fa
:020000040a00f0
:040058007000000034
:020000040000fa
:020000040a00f0
:04005c00020000009e
:020000040000fa
:020000040a00f0
:04006000000000009c
:020000040000fa
:020000040a00f0
:040064000202000094
:020000040000fa
:020000040a00f0
:040068000000000094
:020000040000fa
:020000040a00f0
:04006c000000000090
:020000040000fa
:020000040a00f0
:04007000000000008c
:020000040000fa
:020000040a00f0
:040074000000000088
:020000040000fa
:020000040a00f0
:040078000000000084
:020000040000fa
:020000040a00f0
:04007c000000000080
:020000040000fa
:020000040a00f0
:04008000ffffffff80
:020000040000fa
:020000040a00f0
:0400a000ffffffff60
:020000040000fa
:020000040a00f0
:04200000000000c01c
:020000040000fa
:020000040a00f0
:042004000100feffda
:020000040000fa
:020000040a00f0
:04200800ffffffffd8
:020000040000fa
:020000040a00f0
:04202000ffffffffc0
:020000040000fa
:020000040a00f0
:04202400ffffffffbc
:020000040000fa
:020000040a00f0
:04202800ffffffffb8
:020000040000fa
:020000040a00f0
:04202c00ffffffffb4
:020000040000fa
:020000040a00f0
:04203000ffffffffb0
:020000040000fa
:020000040a00f0
:04203400ffffffffac
:020000040000fa
:020000040a00f0
:04203800ffffffffa8
:020000040000fa
:020000040a00f0
:04203c00ffffffffa4
:020000040000fa
:020000040a00f0
:04204000ffffffffa0
:020000040000fa
:020000040a00f0
:04204400ffffffff9c
:020000040000fa
:020000040a00f0
:04204800ffffffff98
:020000040000fa
:020000040a00f0
:04204c00ffffffff94
:020000040000fa
:020000040a00f0
:04205000ffffffff90
:020000040000fa
:020000040a00f0
:04205400ffffffff8c
:020000040000fa
:020000040a00f0
:04205800ffffffff88
:020000040000fa
:020000040a00f0
:04205c00ffffffff84
:020000040000fa
:020000040a00f0
:04206000ffffffff80
:020000040000fa
:020000040a00f0
:04206400ffffffff7c
:020000040000fa
:020000040a00f0
:04206800ffffffff78
:020000040000fa
:020000040a00f0
:04206c00ffffffff74
:020000040000fa
:020000040a00f0
:04207000ffffffff70
:020000040000fa
:020000040a00f0
:04207400ffffffff6c
:020000040000fa
:020000040a00f0
:04207800ffffffff68
:020000040000fa
:020000040a00f0
:04207c00ffffffff64
:020000040000fa
:020000040a00f0
:04208000ffffffff60
:020000040000fa
:020000040a00f0
:04208400ffffffff5c
:020000040000fa
:020000040a00f0
:04208800ffffffff58
:020000040000fa
:020000040a00f0
:04208c00ffffffff54
:020000040000fa
:020000040a00f0
:04209000ffffffff50
:020000040000fa
:020000040a00f0
:04209400ffffffff4c
:020000040000fa
:020000040a00f0
:04209800ffffffff48
:020000040000fa
:020000040a00f0
:04209c00ffffffff44
:020000040000fa
:020000040a00f0
:0420a000ffffffff40
:020000040000fa
:020000040a00f0
:0420a400ffffffff3c
:020000040000fa
:020000040a00f0
:0420a800ffffffff38
:020000040000fa
:020000040a00f0
:0420ac00ffffffff34
:020000040000fa
:020000040a00f0
:0420b000ffffffff30
:020000040000fa
:020000040a00f0
:0420b400ffffffff2c
:020000040000fa
:020000040a00f0
:0420b800ffffffff28
:020000040000fa
:020000040a00f0
:0420bc00ffffffff24
:020000040000fa
:020000040a00f0
:0420c000ffffffff20
:020000040000fa
:020000040a00f0
:0420c400ffffffff1c
:020000040000fa
:020000040a00f0
:0420c800ffffffff18
:020000040000fa
:020000040a00f0
:0420cc00ffffffff14
:020000040000fa
:020000040a00f0
:0420d000ffffffff10
:020000040000fa
:020000040a00f0
:0420d400ffffffff0c
:020000040000fa
:020000040a00f0
:0420d800ffffffff08
:020000040000fa
:020000040a00f0
:0420dc00ffffffff04
:020000040000fa
:020000040a00f0
:0420e00006070000ef
:020000040000fa
:020000040a00f0
:0420e40004cf0f0016
:020000040000fa
:020000040a00f0
:0420e80036f70707b9
:020000040000fa
:020000040a00f0
:0420ec00863a000030
:020000040000fa
:020000040a00f0
:0420f000ff030000ea
:020000040000fa
:020000040a00f0
:0420f4003f000000a9
:020000040000fa
:020000040a00f0
:0420f800bf00000025
:020000040000fa
:020000040a00f0
:0420fc00ffffffffe4
:020000040000fa
:020000040a00f0
:04210000ffffffffdf
:020000040000fa
:020000040a00f0
:04211000ffffffffcf
:020000040000fa
:020000040a00f0
:04211400ffffffffcb
:020000040000fa
:020000040a00f0
:04211800ffffffffc7
:020000040000fa
:020000040a00f0
:04211c00ffffffffc3
:020000040000fa
:020000040a00f0
:04212000ffffffffbf
:020000040000fa
:020000040a00f0
:04400000db000000e1
:020000040000fa
:020000040a00f0
:048000000000ffff7e
:020000040000fa
:020000040a00f0
:048004000000ffff7a
:020000040000fa
:020000040a00f0
:048008000000ffff76
:020000040000fa
:020000040a00f0
:04800c000000ffff72
:020000040000fa
:020000040a00f0
:048010000000ffff6e
:020000040000fa
:020000040a00f0
:048014000000ffff6a
:020000040000fa
:020000040a00f0
:048018000000ffff66
:020000040000fa
:020000040a00f0
:04801c000000ffff62
:020000040000fa
:020000040a00f0
:04802000ffffffff60
:020000040000fa
:020000040a00f0
:04802400ffffffff5c
:020000040000fa
:020000040a00f0
:04802800ffffffff58
:020000040000fa
:020000040a00f0
:04802c00ffffffff54
:020000040000fa
:020000040a00f0
:04803000ffffffff50
:020000040000fa
:020000040a00f0
:04803400ffffffff4c
:020000040000fa
:020000040a00f0
:04803800ffffffff48
:020000040000fa
:020000040a00f0
:04803c00ffffffff44
:020000040000fa
:020000040a00f0
:0480400044000000f8
:020000040000fa
:020000040a00f0
:04804400ffffffff3c
:020000040000fa
:020000040a00f0
:04804800070000002d
:020000040000fa
:020000040a00f0
:04804c00ff0500002c
:020000040000fa
:020000040a00f0
:048054000f0f00000a
:020000040000fa
:020000040a00f0
:0480580070000000b4
:020000040000fa
:020000040a00f0
:04805c00020000001e
:020000040000fa
:020000040a00f0
:04806000000000001c
:020000040000fa
:020000040a00f0
:048064000202000014
:020000040000fa
:020000040a00f0
:048068000000000014
:020000040000fa
:020000040a00f0
:04806c000000000010
:020000040000fa
:020000040a00f0
:04807000000000000c
:020000040000fa
:020000040a00f0
:048074000000000008
:020000040000fa
:020000040a00f0
:048078000000000004
:020000040000fa
:020000040a00f0
:04807c000000000000
:020000040000fa
:020000040a00f0
:04808000ffffffff00
:020000040000fa
:020000040a00f0
:0480a000ffffffffe0
:020000040000fa
:020000040a00f0
:04a00000000000c09c
:020000040000fa
:020000040a00f0
:04a004000000ffff5a
:020000040000fa
:020000040a00f0
:04a00800ffffffff58
:020000040000fa
:020000040a00f0
:04a02000ffffffff40
:020000040000fa
:020000040a00f0
:04a02400ffffffff3c
:020000040000fa
:020000040a00f0
:04a02800ffffffff38
:020000040000fa
:020000040a00f0
:04a02c00ffffffff34
:020000040000fa
:020000040a00f0
:04a03000ffffffff30
:020000040000fa
:020000040a00f0
:04a03400ffffffff2c
:020000040000fa
:020000040a00f0
:04a03800ffffffff28
:020000040000fa
:020000040a00f0
:04a03c00ffffffff24
:020000040000fa
:020000040a00f0
:04a04000ffffffff20
:020000040000fa
:020000040a00f0
:04a04400ffffffff1c
:020000040000fa
:020000040a00f0
:04a04800ffffffff18
:020000040000fa
:020000040a00f0
:04a04c00ffffffff14
:020000040000fa
:020000040a00f0
:04a05000ffffffff10
:020000040000fa
:020000040a00f0
:04a05400ffffffff0c
:020000040000fa
:020000040a00f0
:04a05800ffffffff08
:020000040000fa
:020000040a00f0
:04a05c00ffffffff04
:020000040000fa
:020000040a00f0
:04a06000ffffffff00
:020000040000fa
:020000040a00f0
:04a06400fffffffffc
:020000040000fa
:020000040a00f0
:04a06800fffffffff8
:020000040000fa
:020000040a00f0
:04a06c00fffffffff4
:020000040000fa
:020000040a00f0
:04a07000fffffffff0
:020000040000fa
:020000040a00f0
:04a07400ffffffffec
:020000040000fa
:020000040a00f0
:04a07800ffffffffe8
:020000040000fa
:020000040a00f0
:04a07c00ffffffffe4
:020000040000fa
:020000040a00f0
:04a08000ffffffffe0
:020000040000fa
:020000040a00f0
:04a08400ffffffffdc
:020000040000fa
:020000040a00f0
:04a08800ffffffffd8
:020000040000fa
:020000040a00f0
:04a08c00ffffffffd4
:020000040000fa
:020000040a00f0
:04a09000ffffffffd0
:020000040000fa
:020000040a00f0
:04a09400ffffffffcc
:020000040000fa
:020000040a00f0
:04a09800ffffffffc8
:020000040000fa
:020000040a00f0
:04a09c00ffffffffc4
:020000040000fa
:020000040a00f0
:04a0a000ffffffffc0
:020000040000fa
:020000040a00f0
:04a0a400ffffffffbc
:020000040000fa
:020000040a00f0
:04a0a800ffffffffb8
:020000040000fa
:020000040a00f0
:04a0ac00ffffffffb4
:020000040000fa
:020000040a00f0
:04a0b000ffffffffb0
:020000040000fa
:020000040a00f0
:04a0b400ffffffffac
:020000040000fa
:020000040a00f0
:04a0b800ffffffffa8
:020000040000fa
:020000040a00f0
:04a0bc00ffffffffa4
:020000040000fa
:020000040a00f0
:04a0c000ffffffffa0
:020000040000fa
:020000040a00f0
:04a0c400ffffffff9c
:020000040000fa
:020000040a00f0
:04a0c800ffffffff98
:020000040000fa
:020000040a00f0
:04a0cc00ffffffff94
:020000040000fa
:020000040a00f0
:04a0d000ffffffff90
:020000040000fa
:020000040a00f0
:04a0d400ffffffff8c
:020000040000fa
:020000040a00f0
:04a0d800ffffffff88
:020000040000fa
:020000040a00f0
:04a0dc00ffffffff84
:020000040000fa
:020000040a00f0
:04a0e000060700006f
:020000040000fa
:020000040a00f0
:04a0e40004cf0f0096
:020000040000fa
:020000040a00f0
:04a0e80036f7070739
:020000040000fa
:020000040a00f0
:04a0ec00863a0000b0
:020000040000fa
:020000040a00f0
:04a0f000ff0300006a
:020000040000fa
:020000040a00f0
:04a0f4003f00000029
:020000040000fa
:020000040a00f0
:04a0f800bf000000a5
:020000040000fa
:020000040a00f0
:04a0fc00ffffffff64
:020000040000fa
:020000040a00f0
:04a10000ffffffff5f
:020000040000fa
:020000040a00f0
:04a11000ffffffff4f
:020000040000fa
:020000040a00f0
:04a11400ffffffff4b
:020000040000fa
:020000040a00f0
:04a11800ffffffff47
:020000040000fa
:020000040a00f0
:04a11c00ffffffff43
:020000040000fa
:020000040a00f0
:04a12000ffffffff3f
:020000040000fa
:020000040c00ee
:10000000f8b500bff8bc08bc9e4670479506000cca
:10001000f8b500bff8bc08bc9e4670477106000cde
:020000040000fa
:020000040c00ee
:10002000800000201c000000000000009c00002058
:100030000e00000000000000aa00002001000000e7
:1000400000000000ab0000200100000000000000e4
:10005000ac0000200a00000000000000b6000020f4
:1000600001000000000000006801002021000000e5
:10007000010000002a2a2a2a2055534152542065a3
:1000800072726f72206f63637572726564202a2ac0
:100090002a2a0d0a00000000c0000020a70000006e
:1000a000010000002a2a2a2a2020555341525420b8
:1000b0006563686f2064656d6f3a204e6f6e2d62c8
:1000c0006c6f636b696e67205472616e73666572e4
:1000d00020776974682074686520696e746572722f
:1000e00075707420202a2a2a2a0d0a2a2a2a2a20f0
:1000f0005479706520313020636861726163746582
:1001000072732e2054686520726563656976656434
:100110002063686172616374657273206172652027
:100120006563686f6564206261636b2c20616e6437
:1001300020746865204c454420697320746f67679c
:100140006c6564202a2a2a2a0d0a0000500000202b
:100150003000000000000000b80000200400000093
:10016000000000000000002050000000000000001f
:10017000bc0000200400000000000000000000009f
:10018000000000004444444444444444444444443f
:020000040000fa
:020000040c00ee
:1001900038b54f4b9b7dd3b14d4a137edbb2927d78
:1001a00012f0800f14d14a4a137edbb2927d12f016
:1001b000010f02d013f0010f50d1454a137edbb27c
:1001c000927d12f0040f02d013f0040f18d138bd45
:1001d00013f0800fe7d03e4b5b8b13f00703e2d0a8
:1001e0003c4ce38500f084fa394b84221a750023d5
:1001f00084f82c30636a002bd5d0a06a9847d2e7e8
:10020000344b93f82c30002be1d0324b1a6adb6967
:100210009a42dcd22e4b9a6a5b6803f00703012beb
:100220002c4b196a9b6914bf5a5423f81120294b8f
:100230001a6a01321a621a6adb699a42c7d1254bdf
:10024000002283f82c20da61214a842111755b6a2f
:10025000002bbcd01f4a906a9847b8e71d4b1b7d06
:10026000002baad01b4b9a685c68194b1b7e13f0bd
:10027000010f18d0a24216d2164b1d6814494a68c5
:1002800002f00702012a9a6814bfaa5c35f812200e
:100290008a629a6801329a6098680a7e12f0010fa9
:1002a00001d08442ebd80b4b9a685b689a4284d3a6
:1002b000084b00221a755a60054a01211175db6846
:1002c000002b3ff47aaf034a1069984775e700bfe7
:0802d000002000455000002051
:020000040000fa
:020000040c00ee
:1002d80080b5002000f046fa0021214800f066fab7
:1002e8000021204800f068faa7211f4800f096f87e
:1002f8001e4c1f4d1f4e03e02b785bb9337843bb70
:100308002378002bf8d00023237021211a4800f00d
:1003180085f8f5e700232b70184b4ff00a0c83f88b
:1003280000c00d275f70164a03cac3f80200c3f85d
:10033800061012885a8183f80cc05f730e21184684
:1003480000f06cf84ff089434ff48012c3f89c21f9
:10035800d6e7002333700a21094800f0a5f9cfe752
:10036800a907000c4d07000cc0000020aa000020bf
:10037800ab000020b6000020680100209c0000208f
:04038800ac000020a5
:020000040000fa
:020000040c00ee
:10038c001f4b01221a611f4ad36943f48033d36196
:10039c00d36813f4807ffbd01b4b0c229a64f022a1
:1003ac005a640022da661a46936f13f0400ffbd1a1
:1003bc00154a8823d364136c43f4206343f002037f
:1003cc001364136913f0807ffbd0104b104a1a6230
:1003dc001a46536813f0040ffbd10c4b0d4a5a62aa
:1003ec001a46536813f0080ffbd1084b4122c3f88f
:1003fc00e8201a46d2f8e83013f0400ffad07047d4
:10040c0000e000440080004400c0004400000144af
:08041c000601010006010200c7
:020000040000fa
:020000040c00ee
:1004240068b310b40446184b1b7d53bb164b1860bd
:10043400596001221a75154b1b7e13f0010f1ad057
:10044400d9b100231148426802f00702012a14bfff
:10045400e25c34f8132082620133027e12f0010f51
:1004640001d09942efd8084a93600120074b987550
:100474005df8044b70470023f5e70b46f3e70020d3
:1004840070470020f4e700bf500000200020004522
:020000040000fa
:020000040c00ee
:1004940008b5124b9847124b9847eff3108172b688
:1004a400104ad2f8883043f47003c2f88830bff39e
:1004b4004f8fbff36f8f01b962b600f085f90a4b15
:1004c40023f07f03074a9360084b9847084b9847eb
:1004d400084b9847fff7fefefee700bfd707000c66
:1004e400d707000c00ed00e000000008c105000c77
:0804f400d707000cd707000c2c
:020000040000fa
:020000040c00ee
:1004fc00164ad36823f4e0631b041b0c43f0bf6360
:10050c0043f40033d360bff35f8f62b6104be0222d
:10051c0083f866234021d96083f867238021d96052
:10052c0083f868234ff48071d96083f869234ff402
:10053c000071d96083f86a234ff48061d96083f825
:10054c006b234ff40062da60704700bf00ed00e0ef
:04055c0000e100e0da
:020000040000fa
:020000040c00ee
:10056000144b0021144a70b5934206d3134a002558
:10057000d2e9003123b919b970bd03f8011bf3e7c3
:10058000946858180c3294b11446834208d111f083
:10059000030318bf012303eb910102eb8102e7e79c
:1005a00014f8016b03f8016befe703f8015b83427a
:1005b000fbd1dde700000020000000202000000c3f
:020000040000fa
:020000040c00ee
:1005c00038b50e4a00230e4c13600e4a0e4d1360d0
:1005d0000e4a13600e4a13600e4a13600e4a5362ad
:1005e00013610123936000f0f8f800f0f6f8ac42d4
:1005f00000d338bd54f8043b9847f8e7bc0000200e
:100600000c00000c0c0000201000000c0800002062
:0c0610000000002004000020100000206a
:020000040000fa
:020000040c00ee
:10061c00114b124a1a604ff622029a814ff4403263
:10062c005a601a46d369002bfcd10b4a136843f06d
:10063c0002031360d369002bfcd1094b00229a6191
:10064c00da611a6283f82c205a621a605a609a6036
:10065c001a75da60da8570470020004504011040f5
:04066c00500000201a
:020000040000fa
:020000040c00ee
:1006700010b5054c227832b9044b13b1044800e0a0
:1006800000bf0123237010bd800000200000000087
:100690000000000008b5034b1bb10349034800e00c
:1006a00000bf08bd00000000840000200000000022
:020000040000fa
:020000040c00ee
:1006b000b8b138b505460c4a92f82c200ab1002092
:1006c00038bd0c4600f014f8074b9d61dc61002238
:1006d0001a62012083f82c00da85044b84229a7573
:1006e000eee70020704700bf5000002000200045ca
:020000040000fa
:020000040c00ee
:1006f0000a4b5b8b13f0070f0ed0084b80221a7643
:1007000007225a831b7e13f0040f05d0034b9a6a0d
:100710001a7e12f0040ffad1704700bf0020004586
:020000040000fa
:020000040c00ee
:100720004ff08943012283f8582083f85920222270
:1007300083f83c204ff48012c3f88021c3f8902145
:0c074000002283f8d42183f8ba2170470e
:020000040000fa
:020000040c00ee
:10074c0008b500f01bf818b1034b01221a7008bd54
:10075c00024b01221a70fae7aa000020ab0000201d
:020000040000fa
:020000040c00ee
:10076c0008b5fff7d7fffff70bfe00f02df800f0f0
:0c077c000df8fff74dfffff7bbfe08bdb6
:020000040000fa
:020000040c00ee
:10078800024bd88d0022da85704700bf5000002048
:020000040000fa
:020000040c00ee
:10079800024b04221a725a72704700bf006000446c
:020000040000fa
:020000040c00ee
:0c07a800014b01221a707047b6000020bf
:020000040000fa
:020000040c00ee
:0c07b400014bd860196170475000002014
:020000040000fa
:020000040c00ee
:0c07c000014b5862996270475000002005
:020000040000fa
:020000040c00ee
:0407cc00fff7c8bead
:020000040000fa
:020000040c00ee
:0207d000fee742
:020000040000fa
:020000040c00ee
:0207d200fee740
:020000040000fa
:020000040c00ee
:0207d40070476c
:020000040000fa
:020000040c00ee
:0207d60070476a
:020000040000fa
:020000040c00ee
:0207d800fee73a
:020000040000fa
:020000040c00ee
:0207da00704766
:00000001FF
