:020000040000fa
:020000040800f2
:10000000f00f00004104000ccd07000ccf07000cde
:10001000d107000cd107000cd107000cd107000c50
:10002000000000000000000000000000d107000cec
:10003000d107000c00000000d107000cd107000c14
:10004000d107000cd107000cd107000cd107000c20
:10005000d107000cd107000cd107000cd107000c10
:10006000d107000cd107000cd107000cd107000c00
:10007000d107000cd107000cd107000cd107000cf0
:10008000d107000cd107000cd107000cd107000ce0
:10009000d107000cd107000cd107000cd107000cd0
:1000a000d107000cd107000cd107000cd107000cc0
:1000b000d107000cd107000cd107000cd107000cb0
:1000c000d107000cd107000cd107000cd107000ca0
:1000d000d107000cd107000cd107000cd107000c90
:1000e000d107000cd107000cd107000cd107000c80
:1000f000d107000cd107000cd107000cd107000c70
:10010000d107000cd107000cd107000cd107000c5f
:10011000d107000cd107000cd107000cd107000c4f
:10012000d107000cd107000cd107000cd107000c3f
:10013000d107000cd107000cd107000cd107000c2f
:10014000d107000cd107000cd107000cd107000c1f
:10015000d107000cd107000cd107000cd107000c0f
:10016000d107000cd107000cd107000cd107000cff
:10017000d107000cd107000cd107000cd107000cef
:10018000d107000cd107000cd107000cd107000cdf
:10019000d107000cd107000cd107000cd107000ccf
:1001a000d107000cd107000cd107000cd107000cbf
:1001b000d107000cd107000cd107000cd107000caf
:1001c0002100000c2100000c2100000c2100000c7b
:1001d0002100000c2100000cd107000cd107000cfd
:1001e000d107000cd107000cd107000cd107000c7f
:1001f000d107000cd107000cd107000cd107000c6f
:10020000d107000cd107000cd107000cd107000c5e
:10021000d107000cd107000cd107000cd107000c4e
:10022000d107000cd107000cd107000cd107000c3e
:10023000d107000cd107000cd107000cd107000c2e
:10024000d107000cd107000cd107000cd107000c1e
:10025000d107000cd107000cd107000cd107000c0e
:10026000d107000cd107000cd107000cd107000cfe
:10027000d107000cd107000cd107000cd107000cee
:10028000d107000cd107000cd107000cd107000cde
:10029000d107000cd107000cd107000cd107000cce
:0c02a000d107000cd107000cd107000ca6
:020000040000fa
:020000040a00f0
:040000000100fefffe
:020000040000fa
:020000040a00f0
:040004000100fefffa
:020000040000fa
:020000040a00f0
:040008000100fefff6
:020000040000fa
:020000040a00f0
:04000c000100fefff2
:020000040000fa
:020000040a00f0
:040010000100feffee
:020000040000fa
:020000040a00f0
:040014000100feffea
:020000040000fa
:020000040a00f0
:040018000100feffe6
:020000040000fa
:020000040a00f0
:04001c000100feffe2
:020000040000fa
:020000040a00f0
:04002000ffffffffe0
:020000040000fa
:020000040a00f0
:04002400ffffffffdc
:020000040000fa
:020000040a00f0
:04002800ffffffffd8
:020000040000fa
:020000040a00f0
:04002c00ffffffffd4
:020000040000fa
:020000040a00f0
:04003000ffffffffd0
:020000040000fa
:020000040a00f0
:04003400ffffffffcc
:020000040000fa
:020000040a00f0
:04003800ffffffffc8
:020000040000fa
:020000040a00f0
:04003c00ffffffffc4
:020000040000fa
:020000040a00f0
:0400400000000000bc
:020000040000fa
:020000040a00f0
:04004400ffffffffbc
:020000040000fa
:020000040a00f0
:0400480007000000ad
:020000040000fa
:020000040a00f0
:04004c00ff050000ac
:020000040000fa
:020000040a00f0
:040054000f0f00008a
:020000040000fa
:020000040a00f0
:040058007000000034
:020000040000fa
:020000040a00f0
:04005c00020000009e
:020000040000fa
:020000040a00f0
:04006000000000009c
:020000040000fa
:020000040a00f0
:040064000202000094
:020000040000fa
:020000040a00f0
:040068000000000094
:020000040000fa
:020000040a00f0
:04006c000000000090
:020000040000fa
:020000040a00f0
:04007000000000008c
:020000040000fa
:020000040a00f0
:040074000000000088
:020000040000fa
:020000040a00f0
:040078000000000084
:020000040000fa
:020000040a00f0
:04007c000000000080
:020000040000fa
:020000040a00f0
:04008000ffffffff80
:020000040000fa
:020000040a00f0
:0400a000ffffffff60
:020000040000fa
:020000040a00f0
:04200000000000c01c
:020000040000fa
:020000040a00f0
:042004000100feffda
:020000040000fa
:020000040a00f0
:04200800ffffffffd8
:020000040000fa
:020000040a00f0
:04202000ffffffffc0
:020000040000fa
:020000040a00f0
:04202400ffffffffbc
:020000040000fa
:020000040a00f0
:04202800ffffffffb8
:020000040000fa
:020000040a00f0
:04202c00ffffffffb4
:020000040000fa
:020000040a00f0
:04203000ffffffffb0
:020000040000fa
:020000040a00f0
:04203400ffffffffac
:020000040000fa
:020000040a00f0
:04203800ffffffffa8
:020000040000fa
:020000040a00f0
:04203c00ffffffffa4
:020000040000fa
:020000040a00f0
:04204000ffffffffa0
:020000040000fa
:020000040a00f0
:04204400ffffffff9c
:020000040000fa
:020000040a00f0
:04204800ffffffff98
:020000040000fa
:020000040a00f0
:04204c00ffffffff94
:020000040000fa
:020000040a00f0
:04205000ffffffff90
:020000040000fa
:020000040a00f0
:04205400ffffffff8c
:020000040000fa
:020000040a00f0
:04205800ffffffff88
:020000040000fa
:020000040a00f0
:04205c00ffffffff84
:020000040000fa
:020000040a00f0
:04206000ffffffff80
:020000040000fa
:020000040a00f0
:04206400ffffffff7c
:020000040000fa
:020000040a00f0
:04206800ffffffff78
:020000040000fa
:020000040a00f0
:04206c00ffffffff74
:020000040000fa
:020000040a00f0
:04207000ffffffff70
:020000040000fa
:020000040a00f0
:04207400ffffffff6c
:020000040000fa
:020000040a00f0
:04207800ffffffff68
:020000040000fa
:020000040a00f0
:04207c00ffffffff64
:020000040000fa
:020000040a00f0
:04208000ffffffff60
:020000040000fa
:020000040a00f0
:04208400ffffffff5c
:020000040000fa
:020000040a00f0
:04208800ffffffff58
:020000040000fa
:020000040a00f0
:04208c00ffffffff54
:020000040000fa
:020000040a00f0
:04209000ffffffff50
:020000040000fa
:020000040a00f0
:04209400ffffffff4c
:020000040000fa
:020000040a00f0
:04209800ffffffff48
:020000040000fa
:020000040a00f0
:04209c00ffffffff44
:020000040000fa
:020000040a00f0
:0420a000ffffffff40
:020000040000fa
:020000040a00f0
:0420a400ffffffff3c
:020000040000fa
:020000040a00f0
:0420a800ffffffff38
:020000040000fa
:020000040a00f0
:0420ac00ffffffff34
:020000040000fa
:020000040a00f0
:0420b000ffffffff30
:020000040000fa
:020000040a00f0
:0420b400ffffffff2c
:020000040000fa
:020000040a00f0
:0420b800ffffffff28
:020000040000fa
:020000040a00f0
:0420bc00ffffffff24
:020000040000fa
:020000040a00f0
:0420c000ffffffff20
:020000040000fa
:020000040a00f0
:0420c400ffffffff1c
:020000040000fa
:020000040a00f0
:0420c800ffffffff18
:020000040000fa
:020000040a00f0
:0420cc00ffffffff14
:020000040000fa
:020000040a00f0
:0420d000ffffffff10
:020000040000fa
:020000040a00f0
:0420d400ffffffff0c
:020000040000fa
:020000040a00f0
:0420d800ffffffff08
:020000040000fa
:020000040a00f0
:0420dc00ffffffff04
:020000040000fa
:020000040a00f0
:0420e00006070000ef
:020000040000fa
:020000040a00f0
:0420e40004cf0f0016
:020000040000fa
:020000040a00f0
:0420e80036f70707b9
:020000040000fa
:020000040a00f0
:0420ec00863a000030
:020000040000fa
:020000040a00f0
:0420f000ff030000ea
:020000040000fa
:020000040a00f0
:0420f4003f000000a9
:020000040000fa
:020000040a00f0
:0420f800bf00000025
:020000040000fa
:020000040a00f0
:0420fc00ffffffffe4
:020000040000fa
:020000040a00f0
:04210000ffffffffdf
:020000040000fa
:020000040a00f0
:04211000ffffffffcf
:020000040000fa
:020000040a00f0
:04211400ffffffffcb
:020000040000fa
:020000040a00f0
:04211800ffffffffc7
:020000040000fa
:020000040a00f0
:04211c00ffffffffc3
:020000040000fa
:020000040a00f0
:04212000ffffffffbf
:020000040000fa
:020000040a00f0
:04400000db000000e1
:020000040000fa
:020000040a00f0
:048000000000ffff7e
:020000040000fa
:020000040a00f0
:048004000000ffff7a
:020000040000fa
:020000040a00f0
:048008000000ffff76
:020000040000fa
:020000040a00f0
:04800c000000ffff72
:020000040000fa
:020000040a00f0
:048010000000ffff6e
:020000040000fa
:020000040a00f0
:048014000000ffff6a
:020000040000fa
:020000040a00f0
:048018000000ffff66
:020000040000fa
:020000040a00f0
:04801c000000ffff62
:020000040000fa
:020000040a00f0
:04802000ffffffff60
:020000040000fa
:020000040a00f0
:04802400ffffffff5c
:020000040000fa
:020000040a00f0
:04802800ffffffff58
:020000040000fa
:020000040a00f0
:04802c00ffffffff54
:020000040000fa
:020000040a00f0
:04803000ffffffff50
:020000040000fa
:020000040a00f0
:04803400ffffffff4c
:020000040000fa
:020000040a00f0
:04803800ffffffff48
:020000040000fa
:020000040a00f0
:04803c00ffffffff44
:020000040000fa
:020000040a00f0
:0480400044000000f8
:020000040000fa
:020000040a00f0
:04804400ffffffff3c
:020000040000fa
:020000040a00f0
:04804800070000002d
:020000040000fa
:020000040a00f0
:04804c00ff0500002c
:020000040000fa
:020000040a00f0
:048054000f0f00000a
:020000040000fa
:020000040a00f0
:0480580070000000b4
:020000040000fa
:020000040a00f0
:04805c00020000001e
:020000040000fa
:020000040a00f0
:04806000000000001c
:020000040000fa
:020000040a00f0
:048064000202000014
:020000040000fa
:020000040a00f0
:048068000000000014
:020000040000fa
:020000040a00f0
:04806c000000000010
:020000040000fa
:020000040a00f0
:04807000000000000c
:020000040000fa
:020000040a00f0
:048074000000000008
:020000040000fa
:020000040a00f0
:048078000000000004
:020000040000fa
:020000040a00f0
:04807c000000000000
:020000040000fa
:020000040a00f0
:04808000ffffffff00
:020000040000fa
:020000040a00f0
:0480a000ffffffffe0
:020000040000fa
:020000040a00f0
:04a00000000000c09c
:020000040000fa
:020000040a00f0
:04a004000000ffff5a
:020000040000fa
:020000040a00f0
:04a00800ffffffff58
:020000040000fa
:020000040a00f0
:04a02000ffffffff40
:020000040000fa
:020000040a00f0
:04a02400ffffffff3c
:020000040000fa
:020000040a00f0
:04a02800ffffffff38
:020000040000fa
:020000040a00f0
:04a02c00ffffffff34
:020000040000fa
:020000040a00f0
:04a03000ffffffff30
:020000040000fa
:020000040a00f0
:04a03400ffffffff2c
:020000040000fa
:020000040a00f0
:04a03800ffffffff28
:020000040000fa
:020000040a00f0
:04a03c00ffffffff24
:020000040000fa
:020000040a00f0
:04a04000ffffffff20
:020000040000fa
:020000040a00f0
:04a04400ffffffff1c
:020000040000fa
:020000040a00f0
:04a04800ffffffff18
:020000040000fa
:020000040a00f0
:04a04c00ffffffff14
:020000040000fa
:020000040a00f0
:04a05000ffffffff10
:020000040000fa
:020000040a00f0
:04a05400ffffffff0c
:020000040000fa
:020000040a00f0
:04a05800ffffffff08
:020000040000fa
:020000040a00f0
:04a05c00ffffffff04
:020000040000fa
:020000040a00f0
:04a06000ffffffff00
:020000040000fa
:020000040a00f0
:04a06400fffffffffc
:020000040000fa
:020000040a00f0
:04a06800fffffffff8
:020000040000fa
:020000040a00f0
:04a06c00fffffffff4
:020000040000fa
:020000040a00f0
:04a07000fffffffff0
:020000040000fa
:020000040a00f0
:04a07400ffffffffec
:020000040000fa
:020000040a00f0
:04a07800ffffffffe8
:020000040000fa
:020000040a00f0
:04a07c00ffffffffe4
:020000040000fa
:020000040a00f0
:04a08000ffffffffe0
:020000040000fa
:020000040a00f0
:04a08400ffffffffdc
:020000040000fa
:020000040a00f0
:04a08800ffffffffd8
:020000040000fa
:020000040a00f0
:04a08c00ffffffffd4
:020000040000fa
:020000040a00f0
:04a09000ffffffffd0
:020000040000fa
:020000040a00f0
:04a09400ffffffffcc
:020000040000fa
:020000040a00f0
:04a09800ffffffffc8
:020000040000fa
:020000040a00f0
:04a09c00ffffffffc4
:020000040000fa
:020000040a00f0
:04a0a000ffffffffc0
:020000040000fa
:020000040a00f0
:04a0a400ffffffffbc
:020000040000fa
:020000040a00f0
:04a0a800ffffffffb8
:020000040000fa
:020000040a00f0
:04a0ac00ffffffffb4
:020000040000fa
:020000040a00f0
:04a0b000ffffffffb0
:020000040000fa
:020000040a00f0
:04a0b400ffffffffac
:020000040000fa
:020000040a00f0
:04a0b800ffffffffa8
:020000040000fa
:020000040a00f0
:04a0bc00ffffffffa4
:020000040000fa
:020000040a00f0
:04a0c000ffffffffa0
:020000040000fa
:020000040a00f0
:04a0c400ffffffff9c
:020000040000fa
:020000040a00f0
:04a0c800ffffffff98
:020000040000fa
:020000040a00f0
:04a0cc00ffffffff94
:020000040000fa
:020000040a00f0
:04a0d000ffffffff90
:020000040000fa
:020000040a00f0
:04a0d400ffffffff8c
:020000040000fa
:020000040a00f0
:04a0d800ffffffff88
:020000040000fa
:020000040a00f0
:04a0dc00ffffffff84
:020000040000fa
:020000040a00f0
:04a0e000060700006f
:020000040000fa
:020000040a00f0
:04a0e40004cf0f0096
:020000040000fa
:020000040a00f0
:04a0e80036f7070739
:020000040000fa
:020000040a00f0
:04a0ec00863a0000b0
:020000040000fa
:020000040a00f0
:04a0f000ff0300006a
:020000040000fa
:020000040a00f0
:04a0f4003f00000029
:020000040000fa
:020000040a00f0
:04a0f800bf000000a5
:020000040000fa
:020000040a00f0
:04a0fc00ffffffff64
:020000040000fa
:020000040a00f0
:04a10000ffffffff5f
:020000040000fa
:020000040a00f0
:04a11000ffffffff4f
:020000040000fa
:020000040a00f0
:04a11400ffffffff4b
:020000040000fa
:020000040a00f0
:04a11800ffffffff47
:020000040000fa
:020000040a00f0
:04a11c00ffffffff43
:020000040000fa
:020000040a00f0
:04a12000ffffffff3f
:020000040000fa
:020000040c00ee
:10000000f8b500bff8bc08bc9e4670479506000cca
:10001000f8b500bff8bc08bc9e4670477106000cde
:020000040000fa
:020000040c00ee
:1000200008b54ff08a439b7ddbb14ff08a435b8b71
:1000300013f0020f16d06a4bff2283f82020022211
:1000400083f82120664b93f820305bb2b3f1ff3f79
:1000500000f09380624b93f820305bb2062b00f0e7
:10006000a68008bd4ff08a435b8b13f0010f07d0c9
:100070005b4bff2283f82020022283f82120e1e756
:100080004ff08a435b8b13f0040f07d0544bff22d1
:1000900083f82020012283f82120d3e7504b93f8e6
:1000a00020305bb2032b45d0042b10d0022bc9d1da
:1000b0004b4b1b692bb10021494b988800f0b2fad9
:1000c000c0e70121464b988800f0acfabae7444af1
:1000d0009369126993420cd0414a9168c85c4ff011
:1000e0008a418862013393610a46d369002bfcd1af
:1000f000a8e73b4b5b697bb1394b9b885b0043f0c6
:1001000001034ff08a425362d369002bfcd1344b78
:10011000032283f8202095e74ff08a42536843f486
:1001200040335360d369002bfcd12d4b062283f85a
:10013000202087e72a4a5369013bd2699a420ed0b0
:100140004ff08a42d369002bfcd14ff08a43986a62
:10015000234ad369d168c8540133d36172e74ff0a1
:100160008a42536843f4e0235360d369002bfcd1e7
:100170001b4b062283f82020e2e7194b002283f86c
:1001800020204ff08a42536843f440335360d369d0
:10019000002bfcd14ff08a439b221a76104b5b6aee
:1001a000002b3ff45eaf0e4a906a984759e70c4b1c
:1001b000002283f8202083f821204ff08a439b22dd
:1001c0001a761a46538b03f03003102bfad1044be6
:1001d0005b6a002b3ff445af014a906a984740e7bd
:0401e00050000000cb
:020000040000fa
:020000040c00ee
:1001e40070b584b002238df80f3000248df80e40d2
:1001f400204600f0a8fa20464b4c4c4dae1c79e04a
:100204000df10f014a4800f0d1fa00238df80f30a8
:1002140001220df10e01562000f048fa9df80f302e
:10022400dbb2012b06d09df80f30dbb2022be7d0f6
:1002340001205fe000238df80f3006222946562066
:1002440000f034fa9df80f30dbb2012b06d09df894
:100254000f30dbb2022b46d002204be000238df896
:100264000f3001220df10e01562000f01ffa9df807
:100274000f30dbb2012b11d09df80f30dbb2022b13
:1002840001d0032036e000238df80f3001220df158
:100294000e01562000f00afa03202be000238df80b
:1002a4000f3004230093234602222946562000f0ef
:1002b40017fa9df80f30dbb2012b06d09df80f30f2
:1002c400dbb2022b0fd0052014e004222146304675
:1002d40000f055fa38b94ff089434ff48012c3f84f
:1002e4009421082006e04ff089434ff48012c3f8ac
:1002f400982109200928fdd801a353f820f000bf54
:100304000502000c2102000c4902000c7302000ccf
:10031400a102000cb702000ccf02000cf902000c81
:10032400db02000ceb02000c98000000a4000000ab
:040334006707000c4b
:020000040000fa
:020000040c00ee
:100338001f4b01221a611f4ad36943f48033d361ea
:10034800d36813f4807ffbd01b4b0c229a64f022f5
:100358005a640022da661a46936f13f0400ffbd1f5
:10036800154a8823d364136c43f4206343f00203d3
:100378001364136913f0807ffbd0104b104a1a6284
:100388001a46536813f0040ffbd10c4b0d4a5a62fe
:100398001a46536813f0080ffbd1084b4122c3f8e3
:1003a800e4201a46d2f8e43013f0400ffad0704730
:1003b80000e000440080004400c000440000014404
:0803c80006010100060102001c
:020000040000fa
:020000040c00ee
:1003d0007c0000001c000000000000005000000035
:1003e0002c00000000000000980000000400000045
:1003f00000000000a4000000060000000100000052
:1004000000004d43485000009c0000000400000024
:10041000000000000000000050000000000000008c
:10042000a000000004000000000000000000000028
:10043000000000004444444444444444444444448c
:020000040000fa
:020000040c00ee
:1004400008b5124b9847124b9847eff3108172b6dc
:10045000104ad2f8883043f47003c2f88830bff3f2
:100460004f8fbff36f8f01b962b600f0adf90a4b41
:1004700023f07f03074a9360084b9847084b98473f
:10048000084b9847fff7aefefee700bfd307000c0e
:10049000d307000c00ed00e000000008c905000cc7
:0804a000d307000cd307000c88
:020000040000fa
:020000040c00ee
:1004a8004ff08a4301221a601a46d369002bfcd107
:1004b8004ff08a434ff480725a601a46d369002b72
:1004c800fcd14ff08a434322da600c4a1a601a467c
:1004d800d369002bfcd14ff08a4310225a831a4665
:1004e800d369002bfcd1064b002283f8212083f826
:1004f80020204ff08a439b229a75704716041000fb
:04050800500000009f
:020000040000fa
:020000040c00ee
:10050c00144b0021144a70b5934206d3134a0025ac
:10051c00d2e9003123b919b970bd03f8011bf3e717
:10052c00946858180c3294b11446834208d111f0d7
:10053c00030318bf012303eb910102eb8102e7e7f0
:10054c0014f8016b03f8016befe703f8015b8342ce
:10055c00fbd1dde70000000000000000d003000c20
:020000040000fa
:020000040c00ee
:10056c00144ad36823f4e0631b041b0c43f0bf63f1
:10057c0043f40033d360bff35f8f62b60e4be022bf
:10058c0083f860230121d96083f861230221d960ab
:10059c0083f862230421d96083f863230821d9608e
:1005ac0083f864231021d96083f865232022da6054
:0c05bc00704700bf00ed00e000e100e02f
:020000040000fa
:020000040c00ee
:1005c80038b50e4a00230e4c13600e4a0e4d1360c8
:1005d8000e4a13600e4a13600e4a13600e4a5362a5
:1005e80013610123936000f0f1f800f0eff8ac42da
:1005f80000d338bd54f8043b9847f8e7a000000042
:100608000c00000c0c0000001000000c080000009a
:0c061800000000000400000010000000c2
:020000040000fa
:020000040c00ee
:10062400114b00229a61da614ff08a439b221a76b9
:100634005a6822f480225a601a46d369002bfcd1ee
:1006440069b1094b032283f8202041ea40014ff0ad
:100654008a4359621a46d369002bfcd17047024b76
:0c066400042283f82020f0e75000000082
:020000040000fa
:020000040c00ee
:1006700010b5054c227832b9044b13b1044800e0a0
:1006800000bf0123237010bd7c00000000000000ab
:100690000000000008b5034b1bb10349034800e00c
:1006a00000bf08bd00000000800000000000000046
:020000040000fa
:020000040c00ee
:1006b0000b4b93f820305bb20bb10020704710b5a4
:1006c0000c46074b98800021d96059619c601a61e3
:1006d0009970197083f82110fff7a4ff012010bd55
:0406e00050000000c6
:020000040000fa
:020000040c00ee
:1006e40010b50b4c94f8204064b20cb1002010bd3e
:1006f400074ca080e360029b6361a160226100213a
:10070400a170217084f82110fff78aff0120eee721
:040714005000000091
:020000040000fa
:020000040c00ee
:100718004ff08943012283f8c92083f8ca20202298
:1007280083f8b420022283f8b5204ff48012c3f86e
:100738008021c3f89021002283f8d42183f8ba21bc
:020748007047f8
:020000040000fa
:020000040c00ee
:10074a0008b5fff7e4fffff7f2fd00f023f800f029
:0c075a0022f8fff7a4fefff704ff08bd23
:020000040000fa
:020000040c00ee
:1007660010b5044600f027f818b90cb10123237020
:0c07760010bd002cfcd002232370f9e71a
:020000040000fa
:020000040c00ee
:1007820030b501390024a24206d0035d01340d5d6b
:0c079200ab42f8d0581b00e0002030bd46
:020000040000fa
:020000040c00ee
:02079e007047a2
:020000040000fa
:020000040c00ee
:1007a000024b04221a725a72704700bf0060004464
:020000040000fa
:020000040c00ee
:0c07b000014b5862996270475000000035
:020000040000fa
:020000040c00ee
:0c07bc00014b93f8210070475000000032
:020000040000fa
:020000040c00ee
:0407c800fff7a0bed9
:020000040000fa
:020000040c00ee
:0207cc00fee746
:020000040000fa
:020000040c00ee
:0207ce00fee744
:020000040000fa
:020000040c00ee
:0207d000fee742
:020000040000fa
:020000040c00ee
:0207d20070476e
:020000040000fa
:020000040c00ee
:0207d40070476c
:00000001FF
