:020000040000fa
:020000040800f2
:10000000f0ff0720b902000cc305000cc505000c69
:10001000c905000cc905000cc905000cc905000c78
:10002000000000000000000000000000c905000cf6
:10003000c905000c00000000c905000cc905000c32
:10004000c905000cc905000cc905000cc905000c48
:10005000c905000cc905000cc905000cc905000c38
:10006000c905000cc905000cc905000cc905000c28
:10007000c905000cc905000cc905000cc905000c18
:020000040000fa
:020000040a00f0
:040000000100fefffe
:020000040000fa
:020000040a00f0
:040004000100fefffa
:020000040000fa
:020000040a00f0
:040008000100fefff6
:020000040000fa
:020000040a00f0
:04000c000100fefff2
:020000040000fa
:020000040a00f0
:040010000100feffee
:020000040000fa
:020000040a00f0
:040014000100feffea
:020000040000fa
:020000040a00f0
:040018000100feffe6
:020000040000fa
:020000040a00f0
:04001c000100feffe2
:020000040000fa
:020000040a00f0
:04002000ffffffffe0
:020000040000fa
:020000040a00f0
:04002400ffffffffdc
:020000040000fa
:020000040a00f0
:04002800ffffffffd8
:020000040000fa
:020000040a00f0
:04002c00ffffffffd4
:020000040000fa
:020000040a00f0
:04003000ffffffffd0
:020000040000fa
:020000040a00f0
:04003400ffffffffcc
:020000040000fa
:020000040a00f0
:04003800ffffffffc8
:020000040000fa
:020000040a00f0
:04003c00ffffffffc4
:020000040000fa
:020000040a00f0
:0400400000000000bc
:020000040000fa
:020000040a00f0
:04004400ffffffffbc
:020000040000fa
:020000040a00f0
:0400480007000000ad
:020000040000fa
:020000040a00f0
:04004c00ff050000ac
:020000040000fa
:020000040a00f0
:040054000f0f00008a
:020000040000fa
:020000040a00f0
:040058007000000034
:020000040000fa
:020000040a00f0
:04005c00020000009e
:020000040000fa
:020000040a00f0
:04006000000000009c
:020000040000fa
:020000040a00f0
:040064000202000094
:020000040000fa
:020000040a00f0
:040068000000000094
:020000040000fa
:020000040a00f0
:04006c000000000090
:020000040000fa
:020000040a00f0
:04007000000000008c
:020000040000fa
:020000040a00f0
:040074000000000088
:020000040000fa
:020000040a00f0
:040078000000000084
:020000040000fa
:020000040a00f0
:04007c000000000080
:020000040000fa
:020000040a00f0
:04008000ffffffff80
:020000040000fa
:020000040a00f0
:0400a000ffffffff60
:020000040000fa
:020000040a00f0
:04200000000000c01c
:020000040000fa
:020000040a00f0
:042004000100feffda
:020000040000fa
:020000040a00f0
:04200800ffffffffd8
:020000040000fa
:020000040a00f0
:04202000ffffffffc0
:020000040000fa
:020000040a00f0
:04202400ffffffffbc
:020000040000fa
:020000040a00f0
:04202800ffffffffb8
:020000040000fa
:020000040a00f0
:04202c00ffffffffb4
:020000040000fa
:020000040a00f0
:04203000ffffffffb0
:020000040000fa
:020000040a00f0
:04203400ffffffffac
:020000040000fa
:020000040a00f0
:04203800ffffffffa8
:020000040000fa
:020000040a00f0
:04203c00ffffffffa4
:020000040000fa
:020000040a00f0
:04204000ffffffffa0
:020000040000fa
:020000040a00f0
:04204400ffffffff9c
:020000040000fa
:020000040a00f0
:04204800ffffffff98
:020000040000fa
:020000040a00f0
:04204c00ffffffff94
:020000040000fa
:020000040a00f0
:04205000ffffffff90
:020000040000fa
:020000040a00f0
:04205400ffffffff8c
:020000040000fa
:020000040a00f0
:04205800ffffffff88
:020000040000fa
:020000040a00f0
:04205c00ffffffff84
:020000040000fa
:020000040a00f0
:04206000ffffffff80
:020000040000fa
:020000040a00f0
:04206400ffffffff7c
:020000040000fa
:020000040a00f0
:04206800ffffffff78
:020000040000fa
:020000040a00f0
:04206c00ffffffff74
:020000040000fa
:020000040a00f0
:04207000ffffffff70
:020000040000fa
:020000040a00f0
:04207400ffffffff6c
:020000040000fa
:020000040a00f0
:04207800ffffffff68
:020000040000fa
:020000040a00f0
:04207c00ffffffff64
:020000040000fa
:020000040a00f0
:04208000ffffffff60
:020000040000fa
:020000040a00f0
:04208400ffffffff5c
:020000040000fa
:020000040a00f0
:04208800ffffffff58
:020000040000fa
:020000040a00f0
:04208c00ffffffff54
:020000040000fa
:020000040a00f0
:04209000ffffffff50
:020000040000fa
:020000040a00f0
:04209400ffffffff4c
:020000040000fa
:020000040a00f0
:04209800ffffffff48
:020000040000fa
:020000040a00f0
:04209c00ffffffff44
:020000040000fa
:020000040a00f0
:0420a000ffffffff40
:020000040000fa
:020000040a00f0
:0420a400ffffffff3c
:020000040000fa
:020000040a00f0
:0420a800ffffffff38
:020000040000fa
:020000040a00f0
:0420ac00ffffffff34
:020000040000fa
:020000040a00f0
:0420b000ffffffff30
:020000040000fa
:020000040a00f0
:0420b400ffffffff2c
:020000040000fa
:020000040a00f0
:0420b800ffffffff28
:020000040000fa
:020000040a00f0
:0420bc00ffffffff24
:020000040000fa
:020000040a00f0
:0420c000ffffffff20
:020000040000fa
:020000040a00f0
:0420c400ffffffff1c
:020000040000fa
:020000040a00f0
:0420c800ffffffff18
:020000040000fa
:020000040a00f0
:0420cc00ffffffff14
:020000040000fa
:020000040a00f0
:0420d000ffffffff10
:020000040000fa
:020000040a00f0
:0420d400ffffffff0c
:020000040000fa
:020000040a00f0
:0420d800ffffffff08
:020000040000fa
:020000040a00f0
:0420dc00ffffffff04
:020000040000fa
:020000040a00f0
:0420e00006070000ef
:020000040000fa
:020000040a00f0
:0420e40004cf0f0016
:020000040000fa
:020000040a00f0
:0420e80036f70707b9
:020000040000fa
:020000040a00f0
:0420ec00863a000030
:020000040000fa
:020000040a00f0
:0420f000ff030000ea
:020000040000fa
:020000040a00f0
:0420f4003f000000a9
:020000040000fa
:020000040a00f0
:0420f800bf00000025
:020000040000fa
:020000040a00f0
:0420fc00ffffffffe4
:020000040000fa
:020000040a00f0
:04210000ffffffffdf
:020000040000fa
:020000040a00f0
:04211000ffffffffcf
:020000040000fa
:020000040a00f0
:04211400ffffffffcb
:020000040000fa
:020000040a00f0
:04211800ffffffffc7
:020000040000fa
:020000040a00f0
:04211c00ffffffffc3
:020000040000fa
:020000040a00f0
:04212000ffffffffbf
:020000040000fa
:020000040a00f0
:04400000db000000e1
:020000040000fa
:020000040a00f0
:048000000000ffff7e
:020000040000fa
:020000040a00f0
:048004000000ffff7a
:020000040000fa
:020000040a00f0
:048008000000ffff76
:020000040000fa
:020000040a00f0
:04800c000000ffff72
:020000040000fa
:020000040a00f0
:048010000000ffff6e
:020000040000fa
:020000040a00f0
:048014000000ffff6a
:020000040000fa
:020000040a00f0
:048018000000ffff66
:020000040000fa
:020000040a00f0
:04801c000000ffff62
:020000040000fa
:020000040a00f0
:04802000ffffffff60
:020000040000fa
:020000040a00f0
:04802400ffffffff5c
:020000040000fa
:020000040a00f0
:04802800ffffffff58
:020000040000fa
:020000040a00f0
:04802c00ffffffff54
:020000040000fa
:020000040a00f0
:04803000ffffffff50
:020000040000fa
:020000040a00f0
:04803400ffffffff4c
:020000040000fa
:020000040a00f0
:04803800ffffffff48
:020000040000fa
:020000040a00f0
:04803c00ffffffff44
:020000040000fa
:020000040a00f0
:0480400044000000f8
:020000040000fa
:020000040a00f0
:04804400ffffffff3c
:020000040000fa
:020000040a00f0
:04804800070000002d
:020000040000fa
:020000040a00f0
:04804c00ff0500002c
:020000040000fa
:020000040a00f0
:048054000f0f00000a
:020000040000fa
:020000040a00f0
:0480580070000000b4
:020000040000fa
:020000040a00f0
:04805c00020000001e
:020000040000fa
:020000040a00f0
:04806000000000001c
:020000040000fa
:020000040a00f0
:048064000202000014
:020000040000fa
:020000040a00f0
:048068000000000014
:020000040000fa
:020000040a00f0
:04806c000000000010
:020000040000fa
:020000040a00f0
:04807000000000000c
:020000040000fa
:020000040a00f0
:048074000000000008
:020000040000fa
:020000040a00f0
:048078000000000004
:020000040000fa
:020000040a00f0
:04807c000000000000
:020000040000fa
:020000040a00f0
:04808000ffffffff00
:020000040000fa
:020000040a00f0
:0480a000ffffffffe0
:020000040000fa
:020000040a00f0
:04a00000000000c09c
:020000040000fa
:020000040a00f0
:04a004000000ffff5a
:020000040000fa
:020000040a00f0
:04a00800ffffffff58
:020000040000fa
:020000040a00f0
:04a02000ffffffff40
:020000040000fa
:020000040a00f0
:04a02400ffffffff3c
:020000040000fa
:020000040a00f0
:04a02800ffffffff38
:020000040000fa
:020000040a00f0
:04a02c00ffffffff34
:020000040000fa
:020000040a00f0
:04a03000ffffffff30
:020000040000fa
:020000040a00f0
:04a03400ffffffff2c
:020000040000fa
:020000040a00f0
:04a03800ffffffff28
:020000040000fa
:020000040a00f0
:04a03c00ffffffff24
:020000040000fa
:020000040a00f0
:04a04000ffffffff20
:020000040000fa
:020000040a00f0
:04a04400ffffffff1c
:020000040000fa
:020000040a00f0
:04a04800ffffffff18
:020000040000fa
:020000040a00f0
:04a04c00ffffffff14
:020000040000fa
:020000040a00f0
:04a05000ffffffff10
:020000040000fa
:020000040a00f0
:04a05400ffffffff0c
:020000040000fa
:020000040a00f0
:04a05800ffffffff08
:020000040000fa
:020000040a00f0
:04a05c00ffffffff04
:020000040000fa
:020000040a00f0
:04a06000ffffffff00
:020000040000fa
:020000040a00f0
:04a06400fffffffffc
:020000040000fa
:020000040a00f0
:04a06800fffffffff8
:020000040000fa
:020000040a00f0
:04a06c00fffffffff4
:020000040000fa
:020000040a00f0
:04a07000fffffffff0
:020000040000fa
:020000040a00f0
:04a07400ffffffffec
:020000040000fa
:020000040a00f0
:04a07800ffffffffe8
:020000040000fa
:020000040a00f0
:04a07c00ffffffffe4
:020000040000fa
:020000040a00f0
:04a08000ffffffffe0
:020000040000fa
:020000040a00f0
:04a08400ffffffffdc
:020000040000fa
:020000040a00f0
:04a08800ffffffffd8
:020000040000fa
:020000040a00f0
:04a08c00ffffffffd4
:020000040000fa
:020000040a00f0
:04a09000ffffffffd0
:020000040000fa
:020000040a00f0
:04a09400ffffffffcc
:020000040000fa
:020000040a00f0
:04a09800ffffffffc8
:020000040000fa
:020000040a00f0
:04a09c00ffffffffc4
:020000040000fa
:020000040a00f0
:04a0a000ffffffffc0
:020000040000fa
:020000040a00f0
:04a0a400ffffffffbc
:020000040000fa
:020000040a00f0
:04a0a800ffffffffb8
:020000040000fa
:020000040a00f0
:04a0ac00ffffffffb4
:020000040000fa
:020000040a00f0
:04a0b000ffffffffb0
:020000040000fa
:020000040a00f0
:04a0b400ffffffffac
:020000040000fa
:020000040a00f0
:04a0b800ffffffffa8
:020000040000fa
:020000040a00f0
:04a0bc00ffffffffa4
:020000040000fa
:020000040a00f0
:04a0c000ffffffffa0
:020000040000fa
:020000040a00f0
:04a0c400ffffffff9c
:020000040000fa
:020000040a00f0
:04a0c800ffffffff98
:020000040000fa
:020000040a00f0
:04a0cc00ffffffff94
:020000040000fa
:020000040a00f0
:04a0d000ffffffff90
:020000040000fa
:020000040a00f0
:04a0d400ffffffff8c
:020000040000fa
:020000040a00f0
:04a0d800ffffffff88
:020000040000fa
:020000040a00f0
:04a0dc00ffffffff84
:020000040000fa
:020000040a00f0
:04a0e000060700006f
:020000040000fa
:020000040a00f0
:04a0e40004cf0f0096
:020000040000fa
:020000040a00f0
:04a0e80036f7070739
:020000040000fa
:020000040a00f0
:04a0ec00863a0000b0
:020000040000fa
:020000040a00f0
:04a0f000ff0300006a
:020000040000fa
:020000040a00f0
:04a0f4003f00000029
:020000040000fa
:020000040a00f0
:04a0f800bf000000a5
:020000040000fa
:020000040a00f0
:04a0fc00ffffffff64
:020000040000fa
:020000040a00f0
:04a10000ffffffff5f
:020000040000fa
:020000040a00f0
:04a11000ffffffff4f
:020000040000fa
:020000040a00f0
:04a11400ffffffff4b
:020000040000fa
:020000040a00f0
:04a11800ffffffff47
:020000040000fa
:020000040a00f0
:04a11c00ffffffff43
:020000040000fa
:020000040a00f0
:04a12000ffffffff3f
:020000040000fa
:020000040c00ee
:10000000f8b500bff8bc08bc9e4670479504000ccc
:10001000f8b500bff8bc08bc9e4670477104000ce0
:020000040000fa
:020000040c00ee
:10002000500100201c0000000000000074010020ae
:10003000010000000000000000000020000100009e
:10004000000000004802002027000000010000001e
:100050000d0a2a2a2a2a20555341525420657272c9
:100060006f7220686173206f6363757272656420bc
:100070002a2a2a2a0d0a000078010020ce0000005a
:10008000010000002a2a2a2a205553415254204cac
:10009000696e65204563686f2044656d6f3a204244
:1000a0006c6f636b696e67205472616e7366657204
:1000b00020776974686f75742074686520696e7440
:1000c000657272757074202a2a2a2a0d0a2a2a2a31
:1000d0002a20547970652061206c696e65206f66f6
:1000e000206368617261637465727320616e64205d
:1000f00070726573732074686520456e7465722034
:100100006b65792e202a2a2a2a200d0a2a2a2a2ad1
:1001100020456e7465726564206c696e6520776930
:100120006c6c206265206563686f65642062616342
:100130006b2c20616e6420746865204c45442069f6
:100140007320746f67676c65642e202a2a2a2a0d33
:100150000a000000700200200300000001000000ff
:100160000d0a00006c0100200400000000000000e7
:10017000000100205000000000000000700100207d
:10018000040000000000000000000000000000006b
:020000040000fa
:020000040c00ee
:100190001f4b01221a611f4ad36943f48033d36194
:1001a000d36813f4807ffbd01b4b0c229a64f0229f
:1001b0005a640022da661a46936f13f0400ffbd19f
:1001c000154a8823d364136c43f4206343f002037d
:1001d0001364136913f0807ffbd0104b104a1a622e
:1001e0001a46536813f0040ffbd10c4b0d4a5a62a8
:1001f0001a46536813f0080ffbd1084b4122c3f88d
:10020000e8201a46d2f8e83013f0400ffad07047d1
:1002100000e000440080004400c0004400000144ad
:080220000601010006010200c5
:020000040000fa
:020000040c00ee
:100228002de9f041002000f0a7f9ce211b4800f08d
:10023800f9f80024dff87480194e1a4f12e00321f0
:10024800384600f0eff82146174800f0ebf8032194
:10025800384600f0e7f84ff089434ff48012c3f8ae
:100268009c212c4600f09ef90028fbd000f076f97e
:10027800054668b90121304600f0acf833780a2bfe
:10028800ddd00d2bdbd0621c07490b5594b2e9e792
:100298002721404600f0c6f8e4e700bf78010020b7
:1002a8007401002070020020000000204802002095
:020000040000fa
:020000040c00ee
:1002b80008b5124b9847124b9847eff3108172b666
:1002c800104ad2f8883043f47003c2f88830bff37c
:1002d8004f8fbff36f8f01b962b600f06bf90a4b0d
:1002e80023f07f03074a9360084b9847084b9847c9
:1002f800084b9847fff794fffee700bfc705000cbf
:10030800c705000c00ed00e0000000088103000ca8
:08031800c705000cc705000c2d
:020000040000fa
:020000040c00ee
:10032000144b0021144a70b5934206d3134a00259a
:10033000d2e9003123b919b970bd03f8011bf3e705
:10034000946858180c3294b11446834208d111f0c5
:10035000030318bf012303eb910102eb8102e7e7de
:1003600014f8016b03f8016befe703f8015b8342bc
:10037000fbd1dde700000020000000202000000c81
:020000040000fa
:020000040c00ee
:1003800038b50e4a00230e4c13600e4a0e4d136012
:100390000e4a13600e4a13600e4a13600e4a5362ef
:1003a00013610123936000f010f900f00ef9ac42e4
:1003b00000d338bd54f8043b9847f8e7700100209b
:1003c0000c00000c0c0100201000000c08010020a3
:0c03d000000100200401002010010020aa
:020000040000fa
:020000040c00ee
:1003dc0010b370b506460d4600f07ef8d5b100247a
:1003ec000e4a137e13f0040ffbd0538b13f0070f40
:1003fc000bd1536803f00703012b936a14bf3355d9
:10040c0026f814300134a542ebd1a54214bf0020cc
:10041c00012070bd2c46f8e70020704700200045f5
:020000040000fa
:020000040c00ee
:10042c00d0b110b40446c9b1084421460c4a644208
:10043c00137e13f0010ffbd0536803f00703012b5d
:10044c0014bf0b7834f81130936201318142efd133
:10045c0001205df8044b7047002070470120f8e73d
:04046c000020004527
:020000040000fa
:020000040c00ee
:1004700010b5054c227832b9044b13b1044800e0a2
:1004800000bf0123237010bd5001002000000000b8
:100490000000000008b5034b1bb10349034800e00e
:1004a00000bf08bd00000000540100200000000053
:020000040000fa
:020000040c00ee
:1004b0000a4b0b4a1a604ff622029a814ff44032df
:1004c0005a601a46d369002bfcd1044a136843f0e2
:1004d00002031360d369002bfcd170470020004554
:0404e00004011040c3
:020000040000fa
:020000040c00ee
:1004e4000a4b5b8b13f0070f0ed0084b80221a7651
:1004f40007225a831b7e13f0040f05d0034b9a6a1c
:100504001a7e12f0040ffad1704700bf0020004594
:020000040000fa
:020000040c00ee
:100514004ff08943012283f8582083f8592022227e
:1005240083f83c204ff48012c3f88021c3f8902153
:0c053400002283f8d42183f8ba2170471c
:020000040000fa
:020000040c00ee
:10054000074ad36823f4e0631b041b0c43f0bf632a
:1005500043f40033d360bff35f8f62b6704700bfd0
:0405600000ed00e0ca
:020000040000fa
:020000040c00ee
:1005640010b5054b588b10f0070401d1204610bd7f
:0c057400fff7b6fffae700bf00200045cb
:020000040000fa
:020000040c00ee
:1005800008b5fff7c7fffff703fe00f019f800f00a
:0c05900005f8fff78dfffff7d3ff08bd53
:020000040000fa
:020000040c00ee
:10059c00024b04221a725a72704700bf006000446a
:020000040000fa
:020000040c00ee
:1005ac00024b187ec0f38000704700bf002000454e
:020000040000fa
:020000040c00ee
:0405bc00fff7b0bed7
:020000040000fa
:020000040c00ee
:0205c000704782
:020000040000fa
:020000040c00ee
:0205c200fee752
:020000040000fa
:020000040c00ee
:0205c400fee750
:020000040000fa
:020000040c00ee
:0205c60070477c
:020000040000fa
:020000040c00ee
:0205c800fee74c
:020000040000fa
:020000040c00ee
:0205ca00704778
:00000001FF
