:020000040000fa
:020000040800f2
:10000000f0ff0720c901000cab04000cad04000c8c
:10001000af04000caf04000caf04000caf04000ce4
:10002000000000000000000000000000af04000c11
:10003000af04000c00000000af04000caf04000c83
:10004000af04000caf04000cb503000caf04000caf
:10005000af04000caf04000caf04000caf04000ca4
:10006000af04000caf04000caf04000caf04000c94
:10007000af04000caf04000caf04000caf04000c84
:10008000af04000caf04000caf04000caf04000c74
:020000040000fa
:020000040a00f0
:040000000100fefffe
:020000040000fa
:020000040a00f0
:040004000100fefffa
:020000040000fa
:020000040a00f0
:040008000100fefff6
:020000040000fa
:020000040a00f0
:04000c000100fefff2
:020000040000fa
:020000040a00f0
:040010000100feffee
:020000040000fa
:020000040a00f0
:040014000100feffea
:020000040000fa
:020000040a00f0
:040018000100feffe6
:020000040000fa
:020000040a00f0
:04001c000100feffe2
:020000040000fa
:020000040a00f0
:04002000ffffffffe0
:020000040000fa
:020000040a00f0
:04002400ffffffffdc
:020000040000fa
:020000040a00f0
:04002800ffffffffd8
:020000040000fa
:020000040a00f0
:04002c00ffffffffd4
:020000040000fa
:020000040a00f0
:04003000ffffffffd0
:020000040000fa
:020000040a00f0
:04003400ffffffffcc
:020000040000fa
:020000040a00f0
:04003800ffffffffc8
:020000040000fa
:020000040a00f0
:04003c00ffffffffc4
:020000040000fa
:020000040a00f0
:0400400000000000bc
:020000040000fa
:020000040a00f0
:04004400ffffffffbc
:020000040000fa
:020000040a00f0
:0400480007000000ad
:020000040000fa
:020000040a00f0
:04004c00ff050000ac
:020000040000fa
:020000040a00f0
:040054000f0f00008a
:020000040000fa
:020000040a00f0
:040058007000000034
:020000040000fa
:020000040a00f0
:04005c00020000009e
:020000040000fa
:020000040a00f0
:04006000000000009c
:020000040000fa
:020000040a00f0
:040064000202000094
:020000040000fa
:020000040a00f0
:040068000000000094
:020000040000fa
:020000040a00f0
:04006c000000000090
:020000040000fa
:020000040a00f0
:04007000000000008c
:020000040000fa
:020000040a00f0
:040074000000000088
:020000040000fa
:020000040a00f0
:040078000000000084
:020000040000fa
:020000040a00f0
:04007c000000000080
:020000040000fa
:020000040a00f0
:04008000ffffffff80
:020000040000fa
:020000040a00f0
:0400a000ffffffff60
:020000040000fa
:020000040a00f0
:04200000000000c01c
:020000040000fa
:020000040a00f0
:042004000100feffda
:020000040000fa
:020000040a00f0
:04200800ffffffffd8
:020000040000fa
:020000040a00f0
:04202000ffffffffc0
:020000040000fa
:020000040a00f0
:04202400ffffffffbc
:020000040000fa
:020000040a00f0
:04202800ffffffffb8
:020000040000fa
:020000040a00f0
:04202c00ffffffffb4
:020000040000fa
:020000040a00f0
:04203000ffffffffb0
:020000040000fa
:020000040a00f0
:04203400ffffffffac
:020000040000fa
:020000040a00f0
:04203800ffffffffa8
:020000040000fa
:020000040a00f0
:04203c00ffffffffa4
:020000040000fa
:020000040a00f0
:04204000ffffffffa0
:020000040000fa
:020000040a00f0
:04204400ffffffff9c
:020000040000fa
:020000040a00f0
:04204800ffffffff98
:020000040000fa
:020000040a00f0
:04204c00ffffffff94
:020000040000fa
:020000040a00f0
:04205000ffffffff90
:020000040000fa
:020000040a00f0
:04205400ffffffff8c
:020000040000fa
:020000040a00f0
:04205800ffffffff88
:020000040000fa
:020000040a00f0
:04205c00ffffffff84
:020000040000fa
:020000040a00f0
:04206000ffffffff80
:020000040000fa
:020000040a00f0
:04206400ffffffff7c
:020000040000fa
:020000040a00f0
:04206800ffffffff78
:020000040000fa
:020000040a00f0
:04206c00ffffffff74
:020000040000fa
:020000040a00f0
:04207000ffffffff70
:020000040000fa
:020000040a00f0
:04207400ffffffff6c
:020000040000fa
:020000040a00f0
:04207800ffffffff68
:020000040000fa
:020000040a00f0
:04207c00ffffffff64
:020000040000fa
:020000040a00f0
:04208000ffffffff60
:020000040000fa
:020000040a00f0
:04208400ffffffff5c
:020000040000fa
:020000040a00f0
:04208800ffffffff58
:020000040000fa
:020000040a00f0
:04208c00ffffffff54
:020000040000fa
:020000040a00f0
:04209000ffffffff50
:020000040000fa
:020000040a00f0
:04209400ffffffff4c
:020000040000fa
:020000040a00f0
:04209800ffffffff48
:020000040000fa
:020000040a00f0
:04209c00ffffffff44
:020000040000fa
:020000040a00f0
:0420a000ffffffff40
:020000040000fa
:020000040a00f0
:0420a400ffffffff3c
:020000040000fa
:020000040a00f0
:0420a800ffffffff38
:020000040000fa
:020000040a00f0
:0420ac00ffffffff34
:020000040000fa
:020000040a00f0
:0420b000ffffffff30
:020000040000fa
:020000040a00f0
:0420b400ffffffff2c
:020000040000fa
:020000040a00f0
:0420b800ffffffff28
:020000040000fa
:020000040a00f0
:0420bc00ffffffff24
:020000040000fa
:020000040a00f0
:0420c000ffffffff20
:020000040000fa
:020000040a00f0
:0420c400ffffffff1c
:020000040000fa
:020000040a00f0
:0420c800ffffffff18
:020000040000fa
:020000040a00f0
:0420cc00ffffffff14
:020000040000fa
:020000040a00f0
:0420d000ffffffff10
:020000040000fa
:020000040a00f0
:0420d400ffffffff0c
:020000040000fa
:020000040a00f0
:0420d800ffffffff08
:020000040000fa
:020000040a00f0
:0420dc00ffffffff04
:020000040000fa
:020000040a00f0
:0420e00006070000ef
:020000040000fa
:020000040a00f0
:0420e40004cf0f0016
:020000040000fa
:020000040a00f0
:0420e80036f70707b9
:020000040000fa
:020000040a00f0
:0420ec00863a000030
:020000040000fa
:020000040a00f0
:0420f000ff030000ea
:020000040000fa
:020000040a00f0
:0420f4003f000000a9
:020000040000fa
:020000040a00f0
:0420f800bf00000025
:020000040000fa
:020000040a00f0
:0420fc00ffffffffe4
:020000040000fa
:020000040a00f0
:04210000ffffffffdf
:020000040000fa
:020000040a00f0
:04211000ffffffffcf
:020000040000fa
:020000040a00f0
:04211400ffffffffcb
:020000040000fa
:020000040a00f0
:04211800ffffffffc7
:020000040000fa
:020000040a00f0
:04211c00ffffffffc3
:020000040000fa
:020000040a00f0
:04212000ffffffffbf
:020000040000fa
:020000040a00f0
:04400000db000000e1
:020000040000fa
:020000040a00f0
:048000000000ffff7e
:020000040000fa
:020000040a00f0
:048004000000ffff7a
:020000040000fa
:020000040a00f0
:048008000000ffff76
:020000040000fa
:020000040a00f0
:04800c000000ffff72
:020000040000fa
:020000040a00f0
:048010000000ffff6e
:020000040000fa
:020000040a00f0
:048014000000ffff6a
:020000040000fa
:020000040a00f0
:048018000000ffff66
:020000040000fa
:020000040a00f0
:04801c000000ffff62
:020000040000fa
:020000040a00f0
:04802000ffffffff60
:020000040000fa
:020000040a00f0
:04802400ffffffff5c
:020000040000fa
:020000040a00f0
:04802800ffffffff58
:020000040000fa
:020000040a00f0
:04802c00ffffffff54
:020000040000fa
:020000040a00f0
:04803000ffffffff50
:020000040000fa
:020000040a00f0
:04803400ffffffff4c
:020000040000fa
:020000040a00f0
:04803800ffffffff48
:020000040000fa
:020000040a00f0
:04803c00ffffffff44
:020000040000fa
:020000040a00f0
:0480400044000000f8
:020000040000fa
:020000040a00f0
:04804400ffffffff3c
:020000040000fa
:020000040a00f0
:04804800070000002d
:020000040000fa
:020000040a00f0
:04804c00ff0500002c
:020000040000fa
:020000040a00f0
:048054000f0f00000a
:020000040000fa
:020000040a00f0
:0480580070000000b4
:020000040000fa
:020000040a00f0
:04805c00020000001e
:020000040000fa
:020000040a00f0
:04806000000000001c
:020000040000fa
:020000040a00f0
:048064000202000014
:020000040000fa
:020000040a00f0
:048068000000000014
:020000040000fa
:020000040a00f0
:04806c000000000010
:020000040000fa
:020000040a00f0
:04807000000000000c
:020000040000fa
:020000040a00f0
:048074000000000008
:020000040000fa
:020000040a00f0
:048078000000000004
:020000040000fa
:020000040a00f0
:04807c000000000000
:020000040000fa
:020000040a00f0
:04808000ffffffff00
:020000040000fa
:020000040a00f0
:0480a000ffffffffe0
:020000040000fa
:020000040a00f0
:04a00000000000c09c
:020000040000fa
:020000040a00f0
:04a004000000ffff5a
:020000040000fa
:020000040a00f0
:04a00800ffffffff58
:020000040000fa
:020000040a00f0
:04a02000ffffffff40
:020000040000fa
:020000040a00f0
:04a02400ffffffff3c
:020000040000fa
:020000040a00f0
:04a02800ffffffff38
:020000040000fa
:020000040a00f0
:04a02c00ffffffff34
:020000040000fa
:020000040a00f0
:04a03000ffffffff30
:020000040000fa
:020000040a00f0
:04a03400ffffffff2c
:020000040000fa
:020000040a00f0
:04a03800ffffffff28
:020000040000fa
:020000040a00f0
:04a03c00ffffffff24
:020000040000fa
:020000040a00f0
:04a04000ffffffff20
:020000040000fa
:020000040a00f0
:04a04400ffffffff1c
:020000040000fa
:020000040a00f0
:04a04800ffffffff18
:020000040000fa
:020000040a00f0
:04a04c00ffffffff14
:020000040000fa
:020000040a00f0
:04a05000ffffffff10
:020000040000fa
:020000040a00f0
:04a05400ffffffff0c
:020000040000fa
:020000040a00f0
:04a05800ffffffff08
:020000040000fa
:020000040a00f0
:04a05c00ffffffff04
:020000040000fa
:020000040a00f0
:04a06000ffffffff00
:020000040000fa
:020000040a00f0
:04a06400fffffffffc
:020000040000fa
:020000040a00f0
:04a06800fffffffff8
:020000040000fa
:020000040a00f0
:04a06c00fffffffff4
:020000040000fa
:020000040a00f0
:04a07000fffffffff0
:020000040000fa
:020000040a00f0
:04a07400ffffffffec
:020000040000fa
:020000040a00f0
:04a07800ffffffffe8
:020000040000fa
:020000040a00f0
:04a07c00ffffffffe4
:020000040000fa
:020000040a00f0
:04a08000ffffffffe0
:020000040000fa
:020000040a00f0
:04a08400ffffffffdc
:020000040000fa
:020000040a00f0
:04a08800ffffffffd8
:020000040000fa
:020000040a00f0
:04a08c00ffffffffd4
:020000040000fa
:020000040a00f0
:04a09000ffffffffd0
:020000040000fa
:020000040a00f0
:04a09400ffffffffcc
:020000040000fa
:020000040a00f0
:04a09800ffffffffc8
:020000040000fa
:020000040a00f0
:04a09c00ffffffffc4
:020000040000fa
:020000040a00f0
:04a0a000ffffffffc0
:020000040000fa
:020000040a00f0
:04a0a400ffffffffbc
:020000040000fa
:020000040a00f0
:04a0a800ffffffffb8
:020000040000fa
:020000040a00f0
:04a0ac00ffffffffb4
:020000040000fa
:020000040a00f0
:04a0b000ffffffffb0
:020000040000fa
:020000040a00f0
:04a0b400ffffffffac
:020000040000fa
:020000040a00f0
:04a0b800ffffffffa8
:020000040000fa
:020000040a00f0
:04a0bc00ffffffffa4
:020000040000fa
:020000040a00f0
:04a0c000ffffffffa0
:020000040000fa
:020000040a00f0
:04a0c400ffffffff9c
:020000040000fa
:020000040a00f0
:04a0c800ffffffff98
:020000040000fa
:020000040a00f0
:04a0cc00ffffffff94
:020000040000fa
:020000040a00f0
:04a0d000ffffffff90
:020000040000fa
:020000040a00f0
:04a0d400ffffffff8c
:020000040000fa
:020000040a00f0
:04a0d800ffffffff88
:020000040000fa
:020000040a00f0
:04a0dc00ffffffff84
:020000040000fa
:020000040a00f0
:04a0e000060700006f
:020000040000fa
:020000040a00f0
:04a0e40004cf0f0096
:020000040000fa
:020000040a00f0
:04a0e80036f7070739
:020000040000fa
:020000040a00f0
:04a0ec00863a0000b0
:020000040000fa
:020000040a00f0
:04a0f000ff0300006a
:020000040000fa
:020000040a00f0
:04a0f4003f00000029
:020000040000fa
:020000040a00f0
:04a0f800bf000000a5
:020000040000fa
:020000040a00f0
:04a0fc00ffffffff64
:020000040000fa
:020000040a00f0
:04a10000ffffffff5f
:020000040000fa
:020000040a00f0
:04a11000ffffffff4f
:020000040000fa
:020000040a00f0
:04a11400ffffffff4b
:020000040000fa
:020000040a00f0
:04a11800ffffffff47
:020000040000fa
:020000040a00f0
:04a11c00ffffffff43
:020000040000fa
:020000040a00f0
:04a12000ffffffff3f
:020000040000fa
:020000040c00ee
:10000000f8b500bff8bc08bc9e4670471103000c51
:10001000f8b500bff8bc08bc9e467047ed02000c66
:020000040000fa
:020000040c00ee
:10002000f8b5002000f0eaf91f4a002342f8043f27
:100030000133b3f5806ff9d100211c4800f008fab4
:100040004ff0416000f0c8f9194b1a78002afcd033
:10005000174b00221a704ff04164164f1d46164e82
:100060002146381900f092f92b78002bfcd00023a0
:100070002b7004f58064b442f2d1104c4ff0416211
:100080004ff48051204600f0fff94ff48052214692
:100090000b4800f0cff928b94ff089434ff4801294
:1000a000c3f89421fee700bffc0f00209904000c68
:1000b0007c2000200010f0130010100c0000002025
:0400c000001000200c
:020000040000fa
:020000040c00ee
:1000c4001a4b01221a611a4ad36943f48033d3616b
:1000d4001346da6812f4807ffbd0164b0c229a6424
:1000e400f0225a640022da669a6f12f0400ffbd1b4
:1000f400104a8823d364136c43f4206343f002034f
:10010400136413461a6912f0807ffbd00a4b0b4a22
:100114001a625a6812f0040ffbd1074b084a5a625c
:100124005a6812f0080ffbd1704700bf00e000448a
:100134000080004400c000440000014406010100a6
:0401440006010200ae
:020000040000fa
:020000040c00ee
:10014800502000201c0000000000000000000020db
:100158000010000000000000001000200010000047
:10016800000000007c2000200100000000000000ca
:100178006c20002004000000000000007020002017
:1001880004000000000000007420002004000000ab
:1001980000000000002000205000000000000000c7
:1001a800782000200400000000000000000000008b
:1001b8000000000044444444444444444444444407
:020000040000fa
:020000040c00ee
:1001c80008b5124b9847124b9847eff3108172b657
:1001d800104ad2f8883043f47003c2f88830bff36d
:1001e8004f8fbff36f8f01b962b600f057f90a4b12
:1001f80023f07f03074a9360084b9847084b9847ba
:10020800084b9847fff708fffee700bfa904000c5a
:10021800a904000c00ed00e0000000089102000ca9
:08022800a904000ca904000c5c
:020000040000fa
:020000040c00ee
:10023000144b0021144a70b5934206d3134a00258b
:10024000d2e9003123b919b970bd03f8011bf3e7f6
:10025000946858180c3294b11446834208d111f0b6
:10026000030318bf012303eb910102eb8102e7e7cf
:1002700014f8016b03f8016befe703f8015b8342ad
:10028000fbd1dde700000020000000204801000c49
:020000040000fa
:020000040c00ee
:1002900038b50e4a00230e4c13600e4a0e4d136003
:1002a0000e4a13600e4a13600e4a13600e4a5362e0
:1002b00013610123936000f0fbf800f0f9f8ac4201
:1002c00000d338bd54f8043b9847f8e77820002065
:1002d0000c00000c0c2000201000000c0820002056
:0c02e0000020002004200020102000203e
:020000040000fa
:020000040c00ee
:1002ec0010b5054c227832b9044b13b1044800e028
:1002fc0000bf0123237010bd50200020000000001f
:10030c000000000008b5034b1bb10349034800e093
:10031c0000bf08bd000000005420002000000000b9
:020000040000fa
:020000040c00ee
:10032c000a4ad36823f4e0631b041b0c43f0bf633d
:10033c0043f40033d360bff35f8f62b6044be0220b
:10034c0083f8022304221a60704700bf00ed00e01e
:04035c0000e100e0dc
:020000040000fa
:020000040c00ee
:10036000094a936913f0010ffbd1074b1a6a1a620d
:1003700001221a6102f1114202f5430202f53052e4
:0c038000da6180221a60704700400044df
:020000040000fa
:020000040c00ee
:10038c00074a936913f0010ffbd1054b58621962b0
:10039c0001201861034ada6183221a60704700bf9a
:0803ac0000400044012cc39144
:020000040000fa
:020000040c00ee
:1003b40008b5054b01225a61044b1b6813b1044a6a
:1003c4001068984708bd00bf004000446c2000201e
:0403d4007020002075
:020000040000fa
:020000040c00ee
:1003d800064a936913f0010ffbd1044b1862012000
:1003e8001861034ada6184221a60704700400044a9
:0403f800012cc39180
:020000040000fa
:020000040c00ee
:1003fc0008b500f00bf8fff75ffefff7abff00f05e
:0c040c0034f800f033f8fff78bff08bd58
:020000040000fa
:020000040c00ee
:100418004ff089434ff48012c3f88021c3f890212c
:0c042800002283f8d42183f8ba21704729
:020000040000fa
:020000040c00ee
:1004340030b501390024a24206d0035d01340d5dbc
:0c044400ab42f8d0581b00e0002030bd97
:020000040000fa
:020000040c00ee
:10045000024b1860024b1960704700bf6c200020ef
:0404600070200020e8
:020000040000fa
:020000040c00ee
:10046400002310b59a4200d110bdcc5cc4540133b2
:02047400f8e7a7
:020000040000fa
:020000040c00ee
:020476007047cd
:020000040000fa
:020000040c00ee
:10047800024b04221a725a72704700bf006000448f
:020000040000fa
:020000040c00ee
:1004880008b513460a461946fff7e8ff012008bddc
:020000040000fa
:020000040c00ee
:0c049800014b01221a7070477c200020ec
:020000040000fa
:020000040c00ee
:0404a400fff7c4bedc
:020000040000fa
:020000040c00ee
:0204a80070479b
:020000040000fa
:020000040c00ee
:0204aa00fee76b
:020000040000fa
:020000040c00ee
:0204ac00fee769
:020000040000fa
:020000040c00ee
:0204ae00fee767
:020000040000fa
:020000040c00ee
:0204b000704793
:00000001FF
