:020000040000fa
:020000040800f2
:10000000f0ff0720cd05000c350a000c370a000c64
:100010003b0a000c3b0a000c3b0a000c3b0a000c9c
:100020000000000000000000000000003b0a000c7f
:100030003b0a000c000000003b0a000c3b0a000ccd
:100040003b0a000c3b0a000c3b0a000c3b0a000c6c
:100050003b0a000c3b0a000c3b0a000c3b0a000c5c
:100060003b0a000c3b0a000c3b0a000c3b0a000c4c
:100070003b0a000c3b0a000c3b0a000c3b0a000c3c
:100280003b0a000c3b0a000c4505000c3b0a000c25
:100290003b0a000c3b0a000c3b0a000c3b0a000c1a
:0c02a0003b0a000c3b0a000c3b0a000c5f
:020000040000fa
:020000040a00f0
:040000000100fefffe
:020000040000fa
:020000040a00f0
:040004000100fefffa
:020000040000fa
:020000040a00f0
:040008000100fefff6
:020000040000fa
:020000040a00f0
:04000c000100fefff2
:020000040000fa
:020000040a00f0
:040010000100feffee
:020000040000fa
:020000040a00f0
:040014000100feffea
:020000040000fa
:020000040a00f0
:040018000100feffe6
:020000040000fa
:020000040a00f0
:04001c000100feffe2
:020000040000fa
:020000040a00f0
:04002000ffffffffe0
:020000040000fa
:020000040a00f0
:04002400ffffffffdc
:020000040000fa
:020000040a00f0
:04002800ffffffffd8
:020000040000fa
:020000040a00f0
:04002c00ffffffffd4
:020000040000fa
:020000040a00f0
:04003000ffffffffd0
:020000040000fa
:020000040a00f0
:04003400ffffffffcc
:020000040000fa
:020000040a00f0
:04003800ffffffffc8
:020000040000fa
:020000040a00f0
:04003c00ffffffffc4
:020000040000fa
:020000040a00f0
:0400400000000000bc
:020000040000fa
:020000040a00f0
:04004400ffffffffbc
:020000040000fa
:020000040a00f0
:0400480007000000ad
:020000040000fa
:020000040a00f0
:04004c00ff050000ac
:020000040000fa
:020000040a00f0
:040054000f0f00008a
:020000040000fa
:020000040a00f0
:040058007000000034
:020000040000fa
:020000040a00f0
:04005c00020000009e
:020000040000fa
:020000040a00f0
:04006000000000009c
:020000040000fa
:020000040a00f0
:040064000202000094
:020000040000fa
:020000040a00f0
:040068000000000094
:020000040000fa
:020000040a00f0
:04006c000000000090
:020000040000fa
:020000040a00f0
:04007000000000008c
:020000040000fa
:020000040a00f0
:040074000000000088
:020000040000fa
:020000040a00f0
:040078000000000084
:020000040000fa
:020000040a00f0
:04007c000000000080
:020000040000fa
:020000040a00f0
:04008000ffffffff80
:020000040000fa
:020000040a00f0
:0400a000ffffffff60
:020000040000fa
:020000040a00f0
:04200000000000c01c
:020000040000fa
:020000040a00f0
:042004000100feffda
:020000040000fa
:020000040a00f0
:04200800ffffffffd8
:020000040000fa
:020000040a00f0
:04202000ffffffffc0
:020000040000fa
:020000040a00f0
:04202400ffffffffbc
:020000040000fa
:020000040a00f0
:04202800ffffffffb8
:020000040000fa
:020000040a00f0
:04202c00ffffffffb4
:020000040000fa
:020000040a00f0
:04203000ffffffffb0
:020000040000fa
:020000040a00f0
:04203400ffffffffac
:020000040000fa
:020000040a00f0
:04203800ffffffffa8
:020000040000fa
:020000040a00f0
:04203c00ffffffffa4
:020000040000fa
:020000040a00f0
:04204000ffffffffa0
:020000040000fa
:020000040a00f0
:04204400ffffffff9c
:020000040000fa
:020000040a00f0
:04204800ffffffff98
:020000040000fa
:020000040a00f0
:04204c00ffffffff94
:020000040000fa
:020000040a00f0
:04205000ffffffff90
:020000040000fa
:020000040a00f0
:04205400ffffffff8c
:020000040000fa
:020000040a00f0
:04205800ffffffff88
:020000040000fa
:020000040a00f0
:04205c00ffffffff84
:020000040000fa
:020000040a00f0
:04206000ffffffff80
:020000040000fa
:020000040a00f0
:04206400ffffffff7c
:020000040000fa
:020000040a00f0
:04206800ffffffff78
:020000040000fa
:020000040a00f0
:04206c00ffffffff74
:020000040000fa
:020000040a00f0
:04207000ffffffff70
:020000040000fa
:020000040a00f0
:04207400ffffffff6c
:020000040000fa
:020000040a00f0
:04207800ffffffff68
:020000040000fa
:020000040a00f0
:04207c00ffffffff64
:020000040000fa
:020000040a00f0
:04208000ffffffff60
:020000040000fa
:020000040a00f0
:04208400ffffffff5c
:020000040000fa
:020000040a00f0
:04208800ffffffff58
:020000040000fa
:020000040a00f0
:04208c00ffffffff54
:020000040000fa
:020000040a00f0
:04209000ffffffff50
:020000040000fa
:020000040a00f0
:04209400ffffffff4c
:020000040000fa
:020000040a00f0
:04209800ffffffff48
:020000040000fa
:020000040a00f0
:04209c00ffffffff44
:020000040000fa
:020000040a00f0
:0420a000ffffffff40
:020000040000fa
:020000040a00f0
:0420a400ffffffff3c
:020000040000fa
:020000040a00f0
:0420a800ffffffff38
:020000040000fa
:020000040a00f0
:0420ac00ffffffff34
:020000040000fa
:020000040a00f0
:0420b000ffffffff30
:020000040000fa
:020000040a00f0
:0420b400ffffffff2c
:020000040000fa
:020000040a00f0
:0420b800ffffffff28
:020000040000fa
:020000040a00f0
:0420bc00ffffffff24
:020000040000fa
:020000040a00f0
:0420c000ffffffff20
:020000040000fa
:020000040a00f0
:0420c400ffffffff1c
:020000040000fa
:020000040a00f0
:0420c800ffffffff18
:020000040000fa
:020000040a00f0
:0420cc00ffffffff14
:020000040000fa
:020000040a00f0
:0420d000ffffffff10
:020000040000fa
:020000040a00f0
:0420d400ffffffff0c
:020000040000fa
:020000040a00f0
:0420d800ffffffff08
:020000040000fa
:020000040a00f0
:0420dc00ffffffff04
:020000040000fa
:020000040a00f0
:0420e00006070000ef
:020000040000fa
:020000040a00f0
:0420e40004cf0f0016
:020000040000fa
:020000040a00f0
:0420e80036f70707b9
:020000040000fa
:020000040a00f0
:0420ec00863a000030
:020000040000fa
:020000040a00f0
:0420f000ff030000ea
:020000040000fa
:020000040a00f0
:0420f4003f000000a9
:020000040000fa
:020000040a00f0
:0420f800bf00000025
:020000040000fa
:020000040a00f0
:0420fc00ffffffffe4
:020000040000fa
:020000040a00f0
:04210000ffffffffdf
:020000040000fa
:020000040a00f0
:04211000ffffffffcf
:020000040000fa
:020000040a00f0
:04211400ffffffffcb
:020000040000fa
:020000040a00f0
:04211800ffffffffc7
:020000040000fa
:020000040a00f0
:04211c00ffffffffc3
:020000040000fa
:020000040a00f0
:04212000ffffffffbf
:020000040000fa
:020000040a00f0
:04400000db000000e1
:020000040000fa
:020000040a00f0
:048000000000ffff7e
:020000040000fa
:020000040a00f0
:048004000000ffff7a
:020000040000fa
:020000040a00f0
:048008000000ffff76
:020000040000fa
:020000040a00f0
:04800c000000ffff72
:020000040000fa
:020000040a00f0
:048010000000ffff6e
:020000040000fa
:020000040a00f0
:048014000000ffff6a
:020000040000fa
:020000040a00f0
:048018000000ffff66
:020000040000fa
:020000040a00f0
:04801c000000ffff62
:020000040000fa
:020000040a00f0
:04802000ffffffff60
:020000040000fa
:020000040a00f0
:04802400ffffffff5c
:020000040000fa
:020000040a00f0
:04802800ffffffff58
:020000040000fa
:020000040a00f0
:04802c00ffffffff54
:020000040000fa
:020000040a00f0
:04803000ffffffff50
:020000040000fa
:020000040a00f0
:04803400ffffffff4c
:020000040000fa
:020000040a00f0
:04803800ffffffff48
:020000040000fa
:020000040a00f0
:04803c00ffffffff44
:020000040000fa
:020000040a00f0
:0480400044000000f8
:020000040000fa
:020000040a00f0
:04804400ffffffff3c
:020000040000fa
:020000040a00f0
:04804800070000002d
:020000040000fa
:020000040a00f0
:04804c00ff0500002c
:020000040000fa
:020000040a00f0
:048054000f0f00000a
:020000040000fa
:020000040a00f0
:0480580070000000b4
:020000040000fa
:020000040a00f0
:04805c00020000001e
:020000040000fa
:020000040a00f0
:04806000000000001c
:020000040000fa
:020000040a00f0
:048064000202000014
:020000040000fa
:020000040a00f0
:048068000000000014
:020000040000fa
:020000040a00f0
:04806c000000000010
:020000040000fa
:020000040a00f0
:04807000000000000c
:020000040000fa
:020000040a00f0
:048074000000000008
:020000040000fa
:020000040a00f0
:048078000000000004
:020000040000fa
:020000040a00f0
:04807c000000000000
:020000040000fa
:020000040a00f0
:04808000ffffffff00
:020000040000fa
:020000040a00f0
:0480a000ffffffffe0
:020000040000fa
:020000040a00f0
:04a00000000000c09c
:020000040000fa
:020000040a00f0
:04a004000000ffff5a
:020000040000fa
:020000040a00f0
:04a00800ffffffff58
:020000040000fa
:020000040a00f0
:04a02000ffffffff40
:020000040000fa
:020000040a00f0
:04a02400ffffffff3c
:020000040000fa
:020000040a00f0
:04a02800ffffffff38
:020000040000fa
:020000040a00f0
:04a02c00ffffffff34
:020000040000fa
:020000040a00f0
:04a03000ffffffff30
:020000040000fa
:020000040a00f0
:04a03400ffffffff2c
:020000040000fa
:020000040a00f0
:04a03800ffffffff28
:020000040000fa
:020000040a00f0
:04a03c00ffffffff24
:020000040000fa
:020000040a00f0
:04a04000ffffffff20
:020000040000fa
:020000040a00f0
:04a04400ffffffff1c
:020000040000fa
:020000040a00f0
:04a04800ffffffff18
:020000040000fa
:020000040a00f0
:04a04c00ffffffff14
:020000040000fa
:020000040a00f0
:04a05000ffffffff10
:020000040000fa
:020000040a00f0
:04a05400ffffffff0c
:020000040000fa
:020000040a00f0
:04a05800ffffffff08
:020000040000fa
:020000040a00f0
:04a05c00ffffffff04
:020000040000fa
:020000040a00f0
:04a06000ffffffff00
:020000040000fa
:020000040a00f0
:04a06400fffffffffc
:020000040000fa
:020000040a00f0
:04a06800fffffffff8
:020000040000fa
:020000040a00f0
:04a06c00fffffffff4
:020000040000fa
:020000040a00f0
:04a07000fffffffff0
:020000040000fa
:020000040a00f0
:04a07400ffffffffec
:020000040000fa
:020000040a00f0
:04a07800ffffffffe8
:020000040000fa
:020000040a00f0
:04a07c00ffffffffe4
:020000040000fa
:020000040a00f0
:04a08000ffffffffe0
:020000040000fa
:020000040a00f0
:04a08400ffffffffdc
:020000040000fa
:020000040a00f0
:04a08800ffffffffd8
:020000040000fa
:020000040a00f0
:04a08c00ffffffffd4
:020000040000fa
:020000040a00f0
:04a09000ffffffffd0
:020000040000fa
:020000040a00f0
:04a09400ffffffffcc
:020000040000fa
:020000040a00f0
:04a09800ffffffffc8
:020000040000fa
:020000040a00f0
:04a09c00ffffffffc4
:020000040000fa
:020000040a00f0
:04a0a000ffffffffc0
:020000040000fa
:020000040a00f0
:04a0a400ffffffffbc
:020000040000fa
:020000040a00f0
:04a0a800ffffffffb8
:020000040000fa
:020000040a00f0
:04a0ac00ffffffffb4
:020000040000fa
:020000040a00f0
:04a0b000ffffffffb0
:020000040000fa
:020000040a00f0
:04a0b400ffffffffac
:020000040000fa
:020000040a00f0
:04a0b800ffffffffa8
:020000040000fa
:020000040a00f0
:04a0bc00ffffffffa4
:020000040000fa
:020000040a00f0
:04a0c000ffffffffa0
:020000040000fa
:020000040a00f0
:04a0c400ffffffff9c
:020000040000fa
:020000040a00f0
:04a0c800ffffffff98
:020000040000fa
:020000040a00f0
:04a0cc00ffffffff94
:020000040000fa
:020000040a00f0
:04a0d000ffffffff90
:020000040000fa
:020000040a00f0
:04a0d400ffffffff8c
:020000040000fa
:020000040a00f0
:04a0d800ffffffff88
:020000040000fa
:020000040a00f0
:04a0dc00ffffffff84
:020000040000fa
:020000040a00f0
:04a0e000060700006f
:020000040000fa
:020000040a00f0
:04a0e40004cf0f0096
:020000040000fa
:020000040a00f0
:04a0e80036f7070739
:020000040000fa
:020000040a00f0
:04a0ec00863a0000b0
:020000040000fa
:020000040a00f0
:04a0f000ff0300006a
:020000040000fa
:020000040a00f0
:04a0f4003f00000029
:020000040000fa
:020000040a00f0
:04a0f800bf000000a5
:020000040000fa
:020000040a00f0
:04a0fc00ffffffff64
:020000040000fa
:020000040a00f0
:04a10000ffffffff5f
:020000040000fa
:020000040a00f0
:04a11000ffffffff4f
:020000040000fa
:020000040a00f0
:04a11400ffffffff4b
:020000040000fa
:020000040a00f0
:04a11800ffffffff47
:020000040000fa
:020000040a00f0
:04a11c00ffffffff43
:020000040000fa
:020000040a00f0
:04a12000ffffffff3f
:020000040000fa
:020000040c00ee
:10000000f8b500bff8bc08bc9e4670476508000cf8
:10001000f8b500bff8bc08bc9e4670474108000c0c
:020000040000fa
:020000040c00ee
:1000200010b54e4b1b780c2b18d8dfe803f00712e5
:10003000181e24363e4f5b6c777f8f004ff089434c
:10004000d3f8a03013f0806f08d1444b01221a700e
:1000500004e000f01ffb414b02221a7010bd00f0bb
:1000600045fc3e4b03221a70f8e700f009fc3b4bbd
:1000700004221a70f2e73a4c204600f0bbfb2046ff
:1000800050f810394360374a934219bfa4f1100366
:100090000d22324b05221a70e0e7334b186800f04e
:1000a00089fc2e4b06221a70d8e72c4b5b78002b6c
:1000b000d4d02d4a136803f580531360b3f5a03fe5
:1000c000264b34bf052207221a70c7e7274b196851
:1000d00001f5a0301030214c204400f061fb0823d2
:1000e0002370bbe71d4b5b78002bb7d01f4a13680a
:1000f00003f580731360b3f5a03f184b34bf07229c
:1001000009221a70aae7164c00224ff4a0312046ab
:1001100000f0c6f80a2304f8103c9fe70f4b5b7809
:10012000002b9bd00d4b0b221a7097e70c484ff415
:10013000a0320146104400f04bfc18b9074b0c22ca
:100140001a708be7054b0d221a7087e74ff0894331
:100150004ff48012c3f8942180e700bf0000002014
:1001600010000020bf2642bff4a90220f8a90220f7
:020000040000fa
:020000040c00ee
:1001700000a902201c000000000000001ca90220b1
:100180000400000000000000f0a9022004000000ac
:1001900000000000000000201080020000000000ad
:1001a000f4a90220040000000000000010800220da
:1001b000002800000000000010a80220a00000009d
:1001c0000000000020a90220100000000000000034
:1001d00030a90220100000000000000040a9022009
:1001e000100000000000000050a9022010000000d4
:1001f0000000000060a902201000000000000000c4
:1002000070a90220100000000000000080a9022058
:10021000100000000000000090a902201000000063
:1002200000000000a0a90220100000000000000053
:10023000b0a902201000000000000000c0a90220a8
:100240001000000000000000d0a9022010000000f3
:1002500000000000e0a902201000000000000000e3
:10026000f8a902200400000000000000fca9022000
:100270000400000000000000b0a8022050000000b0
:100280000000000000aa022004000000000000009e
:10029000000000000000000044444444444444443e
:020000040000fa
:020000040c00ee
:1002a00070b500252c4b5d702c4c130c6370130a39
:1002b000a370e27025712a4b2a4a1a609c605d6027
:1002c00003f12002da60284a1a62284a9a625d62c3
:1002d000274ada620d4679b3b1f5807f28bf4ff423
:1002e0008071234b41f0004242f412021a60986080
:1002f00000225a6003f12002da606a1a084440338f
:1003000001250026c2b11146b2f5807f28bf4ff407
:10031000807141f0004444f4120443f8204c43f847
:10032000180c43f81c6c013543f8143c521a08446d
:100330002033b5f5a07fe5d1013d0d4a6d0151197e
:10034000535943f0804343f4402353510023cb607f
:10035000034800f011fb70bd0000002070a90220ce
:1003600010a80220050080800200808050a9022091
:0403700010800220d7
:020000040000fa
:020000040c00ee
:1003740008b500231a4a13701a4a02f8013f0133e0
:10038400b3f5a03ff9d1184baf221a70174b38229e
:100394001a70174b66221a70164b99221a70164b54
:1003a40006221a70154b05221a70154bc7221a70b3
:1003b400144bd8221a70144b20221a70134b0222a9
:1003c4001a70134b0b221a70124b98221a700021c8
:1003d400114800f009fb024b00221a7008bd00bf4f
:1003e400000000200f40012080a9022060a9022003
:1003f400c0a90220b0a90220e0a90220a0a90220dd
:1004040040a9022030a90220d0a9022090a90220ec
:0c04140070a9022020a90220250a000c7b
:020000040000fa
:020000040c00ee
:100420001f4b01221a611f4ad36943f48033d36101
:10043000d36813f4807ffbd01b4b0c229a64f0220c
:100440005a640022da661a46936f13f0400ffbd10c
:10045000154a8823d364136c43f4206343f00203ea
:100460001364136913f0807ffbd0104b104a1a629b
:100470001a46536813f0040ffbd10c4b0d4a5a6215
:100480001a46536813f0080ffbd1084b4122c3f8fa
:100490002c211a46d2f82c3113f0400ffad07047b5
:1004a00000e000440080004400c00044000001441b
:0804b000060101000601020033
:020000040000fa
:020000040c00ee
:1004b8001f4b01221a601a46136a13f0010ffbd171
:1004c8001b4b1c4ac3f808210122c3f810211a4605
:1004d800d2f8103113f0020ffad0154bd3f81021cf
:1004e80042f48072c3f81021d3f8082142f40002c4
:1004f800c3f808210022c3f85821c3f81c21c3f807
:10050800202142f22002c3f8142140f20112c3f85c
:1005180018210122c3f854214ff4c061c3f81c11fb
:10052800c3f858110449c3f860119a615a617047b9
:0c05380000f0ff0f0208200305001a006d
:020000040000fa
:020000040c00ee
:1005440008b51e4b01229a61d3f8203113f4806f51
:1005540005d11a4bd3f8203113f4007f2dd0174b5b
:10056400d3f8202122f48062c3f82021d3f81c217f
:1005740022f48062c3f81c21d3f81c2142f4806267
:10058400c3f81c21d3f8202122f40072c3f82021df
:10059400d3f81c2122f40072c3f81c21d3f81c21c7
:1005a40042f40072c3f81c210022c3f83421044b26
:1005b4001b6813b1034a1068984708bd00f0ff0f89
:0805c400f0a902201ca902208d
:020000040000fa
:020000040c00ee
:1005cc0008b5124b9847124b9847eff3108172b64f
:1005dc00104ad2f8883043f47003c2f88830bff365
:1005ec004f8fbff36f8f01b962b600f01bfa0a4b45
:1005fc0023f07f03074a9360084b9847084b9847b2
:10060c00084b984700f0f6f9fee700bf390a000cda
:10061c00390a000c00ed00e000000008f106000ca7
:08062c00390a000c390a000c28
:020000040000fa
:020000040c00ee
:10063400144b0021144a70b5934206d3134a002583
:10064400d2e9003123b919b970bd03f8011bf3e7ee
:10065400946858180c3294b11446834208d111f0ae
:10066400030318bf012303eb910102eb8102e7e7c7
:1006740014f8016b03f8016befe703f8015b8342a5
:10068400fbd1dde700000020000000207001000c19
:020000040000fa
:020000040c00ee
:1006940008b50023104a53701048114a0260114ae9
:1006a40082604360c36000f065f90b4a5378002b05
:1006b400fcd00023084a53700848094a02620a4ad7
:1006c40082624362c362203000f054f9024a5378d4
:1006d400002bfcd008bd00bf0000002010a80220a1
:0c06e40001000ec0c0a90220b0a9022035
:020000040000fa
:020000040c00ee
:1006f00038b50e4a00230e4c13600e4a0e4d13609f
:100700000e4a13600e4a13600e4a13600e4a53627b
:1007100013610123936000f091f900f08ff9ac426e
:1007200000d338bd54f8043b9847f8e700aa0220ec
:100730000c00000cbca802201000000cb8a802207d
:0c074000b0a80220b4a80220c0a802202b
:020000040000fa
:020000040c00ee
:10074c004ff08943022283f8da20002183f8bd1090
:10075c004ff48012c3f88021c3f89021012283f852
:10076c00c52183f8c72183f8c82183f8c92183f8f0
:10077c00ca2183f8cb2183f8d411702283f8b221db
:10078c0083f8b321772283f8b42183f8b52183f859
:04079c00ba117047d7
:020000040000fa
:020000040c00ee
:1007a00070b506460d4600240c4b5c7000f0d2f884
:1007b0000b4b2a0c5a702a0a9a70dd7009480a4ab3
:1007c000026283624462094bc362094a1a609e60f6
:1007d0005c60dc6000f0d0f870bd00bf000000205d
:1007e00090a9022010a8022004008080108002201e
:0407f00000018ec8ae
:020000040000fa
:020000040c00ee
:1007f40010b500210b4b59700b4a51700b4b0c4c2c
:100804001c609a6059600b4ada600b4c146090606b
:100814005160d160184600f0adf8024a5378002bbd
:10082400fcd010bd0000002080a9022010a80220e6
:0c083400020080801080022004009ec0a2
:020000040000fa
:020000040c00ee
:1008400010b5054c227832b9044b13b1044800e0ce
:1008500000bf0123237010bd00a90220000000008a
:100860000000000008b5034b1bb10349034800e03a
:1008700000bf08bd0000000004a902200000000025
:020000040000fa
:020000040c00ee
:1008800010b50024084b5c7000f064f80748084b72
:100890000362084b83624462c46200f06df8024a4e
:1008a0005378002bfcd010bd0000002010a80220bf
:0808b00001008ec020a9022006
:020000040000fa
:020000040c00ee
:1008b8000a4ad36823f4e0631b041b0c43f0bf63ac
:1008c80043f40033d360bff35f8f62b6044be0227a
:1008d80083f892234ff480221a61704700ed00e0fc
:0408e80000e100e04b
:020000040000fa
:020000040c00ee
:1008ec0008b50023074a53700748084a0260084ab3
:1008fc0082604360c36000f039f8024a5378002be1
:10090c00fcd008bd0000002010a8022001000ec081
:04091c0060a90220ac
:020000040000fa
:020000040c00ee
:1009200070b506460c460025084b5d7000f012f8c5
:100930000748c4f3080141f0484141f40e01016247
:1009400086624562c56200f017f870bd00000020a5
:0409500010a80220c9
:020000040000fa
:020000040c00ee
:10095400054b064a1a60064a9a6000225a6003f15f
:100964002002da60704700bf10a80220010080c096
:04097400e0a90220d4
:020000040000fa
:020000040c00ee
:10097800064bd3f8082142f48022c3f80821c3f8b3
:1009880040010522c3f83421704700bf00f0ff0f73
:020000040000fa
:020000040c00ee
:1009980008b5fff7d7fefff73ffd00f036f8fff781
:0c09a80087fd00f033f8fff783ff08bd67
:020000040000fa
:020000040c00ee
:1009b40008b5054b020c5a70020a9a70d8700421cb
:0c09c4001846fff7abff08bdd0a90220c9
:020000040000fa
:020000040c00ee
:1009d00030b501390024a24206d0035d01340d5d1b
:0c09e000ab42f8d0581b00e0002030bdf6
:020000040000fa
:020000040c00ee
:1009ec00024b1860024b1960704700bff0a902203f
:0409fc001ca9022010
:020000040000fa
:020000040c00ee
:100a000008b50020fff7c8fffff7b4fcfff708fbad
:020a1000fce701
:020000040000fa
:020000040c00ee
:020a120070472b
:020000040000fa
:020000040c00ee
:100a1400024b04221a725a72704700bf00600044ed
:020000040000fa
:020000040c00ee
:0c0a2400014b01225a70704700000020b6
:020000040000fa
:020000040c00ee
:040a3000fff700be0e
:020000040000fa
:020000040c00ee
:020a3400fee7db
:020000040000fa
:020000040c00ee
:020a3600fee7d9
:020000040000fa
:020000040c00ee
:020a3800704705
:020000040000fa
:020000040c00ee
:020a3a00fee7d5
:020000040000fa
:020000040c00ee
:020a3c00704701
:00000001FF
